:1000000071C000008FC000008DC000008BC00000D8
:1000100089C0000087C0000085C0000083C00000C8
:1000200081C000007FC000007DC000007BC00000D8
:1000300079C0000077C0000075C0000073C00000E8
:1000400071C000000C94F8126DC000006BC000007D
:1000500069C0000067C0000065C0000063C0000008
:1000600061C000000C9484125DC000005BC0000001
:1000700059C0000057C0000055C0000053C0000028
:1000800051C000004FC000004DC000004BC0000038
:100090000C94BE1247C0000045C0000043C00000E1
:1000A00041C000003FC000003DC000003BC0000058
:1000B00039C0000037C0000035C0000033C0000068
:1000C00031C000002FC000002DC000002BC0000078
:1000D00029C0000027C0000025C0000023C0000088
:1000E00021C0000011241FBECFEFD1E2DEBFCDBF83
:1000F00000E00CBF12E0A0E0B2E0E0ECF8E200E0CB
:100100000BBF02C007900D92A831B107D9F723E0C9
:10011000A8E1B2E001C01D92A737B207E1F7EFD521
:100120000C9429136DCF9091D40291111DC0209190
:10013000D30221111FC035E13A95F1F74091D40265
:10014000411134C05091D30251112BC060E36A9524
:10015000F1F77091D40271111CC051110EC08CEDD9
:1001600090E00197F1F70895089A10982091D30232
:10017000222309F3099A1198DECF019BF0CFB091A9
:1001800040028B0F809340028CED90E00197F1F7D5
:100190000895009BE2CFA0914102A80FA0934102D5
:1001A000DCCF0998119A5091D302D0CF0898109AB9
:1001B000C9CF80914202893070F4823008F43DC08A
:1001C0008350863008F5E82FF0E08827E55DFC4E87
:1001D0008F4F0C940D138F3F81F5089580E2A3DFBC
:1001E00087E080934202089580E49DDF88E0F9CFA4
:1001F00084E099DF84E0F5CF88E095DF85E0F1CFFA
:1002000080E191DF86E0EDCF82E08DDF83E0E9CF12
:1002100080E889DF8091D10290E0FC01E252FD4F3D
:100220002091410220838B529D4F30914002FC016E
:1002300030831092420280E00895109241021092A1
:10024000400281E070DF82E0CCCF9091D402911126
:1002500024C02091D30221111DC04091D4028823D3
:1002600059F085E18A95F1F7411126C03091D3020A
:1002700031111FC04091D402E0EFF0E03197F1F767
:10028000411114C05091D30251110AC065E36A951F
:10029000F1F70895099A1198E0CF089A1098D9CFEC
:1002A0000998119A65E36A95F1F708950898109AEC
:1002B000E9CF0998119ADECF0898109A3091D302AD
:1002C0003323C1F2F6CF809145028530A1F1B8F415
:1002D000833009F45AC08430C1F4E0914302E9301C
:1002E00028F5E23008F4E9C0E350E63008F0A3C096
:1002F000F0E08827EF5CFC4E8F4F0C940D13863096
:1003000009F18F3F09F09DC00895823009F099C02E
:10031000A8E6B6E01197F1F77091D3029091D4025C
:10032000792B89F51092450280E00895EF3F09F09E
:10033000C4C084E008958091D2028093440226E0F4
:1003400020934502E0914302E93070F4E23008F472
:10035000BAC0E350E63008F068C0F0E08827E95CF6
:10036000FC4E8F4F0C940D13EF3F09F0ACC086E0AC
:10037000089580914402807868DF1092430285E0FE
:1003800080934502089583E0FBCF4CEC40934402F8
:1003900054E050934502A1CF80914402807255DF12
:1003A00037E03093430286E00895809144028074E0
:1003B0004CDF68E06093430284E00895809144023A
:1003C000847043DF64E0F6CF8091440288703DDFA3
:1003D00065E0F0CF80914402807137DF66E0EACFBC
:1003E00080914402807231DF67E0E4CF8091440263
:1003F00080742BDF38E0D5CF80914402847025DFF4
:1004000034E0CFCF8091440288701FDF35E0C9CF40
:1004100080914402807119DF36E0C3CF809144029D
:10042000807813DF109243027DCF80914402827066
:100430000CDF33E0B6CF80914402827006DF63E0C8
:10044000B9CFB091D402B11131C0E091D302EE2303
:1004500009F468CF099A119880E699E00197F1F7BD
:100460002091D402211135C03091D302311143C003
:10047000A0E4B1E01197F1F74091D40241112CC0F2
:10048000311102C082E07CCF90B1E1E0B92FB270AF
:1004900091FDE0E0E093D302BB23A1F3F091EF02E2
:1004A000F20D81F3F093EF0282E06ACF089A109880
:1004B000F091D302FF2381F2CDCF8091440281706D
:1004C000C4DE62E077CF809144028170BEDE32E00C
:1004D00068CF0898109AC8CF50B1517061E0652775
:1004E0006093D402552361F27091F602720D41F2CD
:1004F0007093F602C5CF0998119A3091D302B8CF04
:1005000080913F02843009F43FC078F4823009F4CE
:1005100094C0833009F08CC0B091CD02B23061F04C
:10052000BF3F09F0D1C083E00895853009F462C06F
:100530008F3F09F07DC00895E091CC02F091CB028D
:10054000EF1789F3E091CB02F0E0E55BFD4F3081DE
:100550003093CF024091CB024F5F4F774093CB0255
:100560001092CD0250ED530F5A3008F09FC06091A9
:10057000E802762F770F770F760F770F750F70934E
:10058000E802A4E0A0933F02B091CD02B23009F09E
:100590004AC0E091CC02F091CB02EF1709F446C0BB
:1005A000E091CB02F0E0E55BFD4F40814093CF024C
:1005B0003091CB023F5F3F773093CB021092CD0258
:1005C00050ED540F5A3008F071C06091E802693163
:1005D00030F0693109F06AC0463308F067C0762F01
:1005E000770F770F760F770F750F7093E802A5E0FE
:1005F000A0933F02B091CD02B23041F4E091CC0221
:10060000F091CB02EF1342C085E00895BF3FE1F3C4
:1006100082E09091CC022091CB02291337C08093C5
:10062000CD0285E0F2CFBF3F09F044C084E00895D9
:100630001092E80282E080933F028091CD028230E6
:1006400029F08F3F09F04AC082E008952091CC0242
:100650009091CB02291709F46ECFE091CB02F0E024
:10066000E55BFD4F60816093CF027091CB027F5FAD
:100670007F777093CB021092CD0260536A30B0F452
:100680006093E802A3E0A0933F0246CFE091CB0243
:10069000F0E0E55BFD4F40814093CF023091CB020B
:1006A0003F5F3F773093CB021092CD0210923F0212
:1006B00080E0089582E09091CC022091CB02291332
:1006C0006FCF8093CD02B2CF82E09091CC02209187
:1006D000CB02291337CF8093CD0225CF32E0409152
:1006E000CC025091CB025413B8CF3093CD02ACCF93
:1006F00080913C02823031F08F3F09F4089582E00E
:1007000080933C022091C00025FD02C082E0089544
:10071000309140033093C6004091FE026091400347
:10072000922D542F56954627422111F07CE85727E9
:10073000A52FA695B62FB695B527B92311F0ECE8ED
:10074000AE27FA2FF695862F869586958A278923D8
:1007500011F02CE8F2274F2F4695362F3695369517
:1007600036953F27392311F05CE84527742F76959D
:10077000A62FA295AF70A427A92311F0BCE87B2770
:10078000E72FE695F62FF295F695F770F727F92300
:1007900011F08CE8E8274E2F4695262F22952695B6
:1007A000269523702E27292311F03CE84327542F48
:1007B0005695661F6627661F6427692311F06CE84B
:1007C00056275093FE0210923C0280E008959091CB
:1007D0003B02892F933009F483C09F3F09F47FC007
:1007E000923099F0E091FF02EE2309F475C0E031F8
:1007F00008F4F7C0E295EF70F0E0E85FFD4F40814C
:100800004093400352E050933B0260913C026230BF
:1008100009F478C06F3F09F072C082E008956091DA
:1008200040036093C6003091FE0270914003A22DF8
:10083000B32FB6953727322111F0ECE8BE27FB2FF6
:10084000F695572F56955B275A2311F09CE8F92708
:100850008F2F8695272F269526952F272A2311F04F
:100860004CE88427682F6695372F36953695369550
:1008700038273A2311F0BCE86B27E62FE695F72FCF
:10088000F295FF70F627FA2311F05CE8E5279E2F1A
:100890009695872F8295869587708E278A2311F0EB
:1008A0002CE89227492F4695672F629566956695A5
:1008B000637069276A2311F03CE84327B42FB6958B
:1008C000771F7727771F74277A2311F07CE8B727E3
:1008D000B093FE0210923C0210923B0280E0089519
:1008E00080913C02823031F44091C00045FD97CFA9
:1008F00083E008958F3F09F070C083E0089572E0AF
:1009000070933C02A091C000A5FF87CFB091400337
:10091000B093C600E091FE02F0914003922D8E2F1D
:100920008695EF27E22111F02CE88227482F469583
:100930003F2F36953827392311F05CE84527642F7F
:1009400066957F2F769576957427792311F0ACE81C
:100950006A27B62FB695EF2FE695E695E695E6273A
:10096000E92311F08CE8B8275B2F56952F2F22959D
:100970002F702B27292311F04CE85427652F6695FB
:100980003F2F3295369537703527392311F07CE8A3
:100990006727A62FA695BF2FB295B695B695B370CB
:1009A000B627B92311F0ECE8AE275A2F5695FF1F52
:1009B000FF27FF1FFA27F92311F0FCE85F27509368
:1009C000FE02E091FF02EF70F0E0E85FFD4F9081E2
:1009D0009093400383E080933B0222E020933C020B
:1009E00083CF80913C02EF70F0E0E85FFD4F208103
:1009F0002093400333E030933B0274CF80913D025B
:100A00008430A9F0F0F4823009F43CC0833079F5E9
:100A10006FDE81114DC0E091FF02EF70F0E0E85F02
:100A2000FD4F60816093400374E070933D02A0919C
:100A30003C02A23059F4E091C000E5FD3DC084E0E5
:100A40000895853071F08F3F91F40895AF3FB9F369
:100A5000B2E0B0933C02EFCF9093FF0225E02093E9
:100A60003D02B5DE882309F484C085E008959091A5
:100A7000F2028091F302882379F38093FF0232E03F
:100A800030933D02A4DE811115C0E091F202E093A3
:100A9000FF02E295EF70F0E0E85FFD4F4081409388
:100AA000400353E050933D0223DE882309F4B3CF83
:100AB00083E0089582E00895F0914003F093C6002A
:100AC0002091FE0280914003922D522F56952827A7
:100AD000222111F03CE85327452F4695682F669553
:100AE0006527692311F07CE84727A42FA695B82F26
:100AF000B695B695B427B92311F0ECE8AE27FA2FD6
:100B0000F695282F2695269526952A27292311F034
:100B10005CE8F5276F2F6695382F32953F703F2799
:100B2000392311F04CE86427762F7695A82FA295EB
:100B3000A695A770A627A92311F0BCE87B27E72F6D
:100B4000E695F82FF295F695F695F370F727F923C9
:100B500011F02CE8E2275E2F5695881F8827881F02
:100B60008E27892311F08CE858275093FE021092AB
:100B70003C0210923D0280E0089580913E02853053
:100B8000C1F058F5833009F453C08430B1F5B0DDBD
:100B9000811161C0E091F202E093FF02E295EF70F3
:100BA000F0E0E85FFD4FA081A0934003B5E0B09373
:100BB0003E029EDD811160C0E091FF02EF70F0E027
:100BC000E85FFD4FE081E0934003F6E0F0933E02E2
:100BD0008FDD882371F086E00895873009F446C0E0
:100BE0008F3F09F40895863009F04AC081DD8111F4
:100BF000F2CF10923E0280E00895823009F040C0AA
:100C0000FDDE81113BC04091FA02E091FB0240936E
:100C1000F202E093F302E093FF02E295EF70F0E05E
:100C2000E85FFD4F50815093400363E060933E02C4
:100C30005FDD811112C0E091FF02EF70F0E0E85F2C
:100C4000FD4F70817093400394E090933E0250DD1D
:100C5000882309F49FCF84E0089583E0089590935A
:100C6000F3028093F20287E080933E02C7DE88237E
:100C700009F4BFCF87E0089585E0089582E00895E4
:100C80008091FA029091FB02A091FC02B091FD02CA
:100C9000AD01662777274115510509F35093F302FB
:100CA0004093F20232E030933E02AACF80913A02A2
:100CB000823031F08F3F09F4089582E080933A0248
:100CC0009091390220913802921302C082E0089577
:100CD000E0913802F0E0E85EFD4F308130935C0334
:100CE000409138024F5F4F714093380250915B033F
:100CF000530F50935B0310923A0280E00895222430
:100D0000239400E09D98A59A6A98729A6B98739ABA
:100D10006C98749A6D98759A6E98769A6F98779A7F
:100D2000809101018E7F8093010110910201116079
:100D300010930201209101012D7F20930101309138
:100D40000201326030930201409101014B7F4093D8
:100D50000101509102015460509302016091010120
:100D6000677F6093010170910201786070930201C6
:100D7000909101019F7E90930101A0910201A061D9
:100D8000A0930201B0910101BF7DB0930101C09118
:100D90000201C062C0930201D0910101DF7BD093B8
:100DA0000101E0910201E064E09302012098289A99
:100DB0002198299A22982A9A23982B9A24982C9A37
:100DC00025982D9A26982E9AF0910101FF77F0939D
:100DD0000101809102018068809302019B98A39A8F
:100DE0009C98A49A10910A011E7F10930A012091E9
:100DF0000B01216020930B0130910A013D7F30935C
:100E00000A0140910B01426040930B0150910A018D
:100E10005B7F50930A0160910B01646060930B014A
:100E200070910A01777F70930A0190910B0198608D
:100E300090930B01A0910A01AF7EA0930A01B0919B
:100E40000B01B061B0930B01C0910A01CF7DC0933B
:100E50000A01D0910B01D062D0930B01E0910A01FD
:100E6000EF7BE0930A01F0910B01F064F0930B012A
:100E700080910A018F7780930A0110910B0110680D
:100E800010930B015098589A5198599A54985C9A1B
:100E900055985D9A56985E9A57985F9A9898A09A36
:100EA0009998A19A3898409A3998419A3A98429AD2
:100EB0003B98439A3C98449A3D98459A3E98469A66
:100EC0003F98479A209104012E7F2093040130918E
:100ED0000501316030930501409104014D7F40933D
:100EE0000401509105015260509305016091040185
:100EF0006B7F60930401709105017460709305012C
:100F000090910401977F90930401A0910501A8603E
:100F1000A0930501B0910401BF7EB0930401C0917C
:100F20000501C061C0930501D0910401DF7DD0931C
:100F30000401E0910501E062E0930501F0910401F4
:100F4000FF7BF0930401809105018064809305018B
:100F50009A98A29A0F98179A0E98169A0B98139A25
:100F60000A98129A109104011F771093040120919E
:100F70000501206820930501309107013F773093E8
:100F80000701409108014068409308015091070112
:100F90005F7B5093070160910801606460930801D2
:100FA000709107017F7D7093070190910801906215
:100FB00090930801A0910701AF7EA0930701B09123
:100FC0000801B061B0930801C0910701C77FC093C9
:100FD0000701D0910801D860D0930801E091070182
:100FE000EB7FE0930701F0910801F460F0930801B2
:100FF000809107018D7F8093070110910801126095
:1010000010930801209107012E7F20930701309152
:10101000080131603093080187988F9A86988E9ADC
:1010200085988D9A84988C9A83988B9A82988A9ABC
:101030008198899A8098889A0C9A14980D9A159894
:10104000279A48E159E20FB6F894A89540936000BA
:101050000FBE509360000898109A0998119A109248
:10106000CD006FEC6093CC0072E07093C80096E006
:101070009093CA00A8E9A093C9001092C50060939C
:10108000C4007093C0009093C200A093C100C7EA4F
:10109000D1E6D0938900C0938800B0916F00B26010
:1010A000B0936F00D0918100DB60D0938100789481
:1010B000B6EEEB2EB2E0FB2EDFEFC3E0CC2ED12C50
:1010C0003324339410E8812E17E9912E16E0A12ED7
:1010D000B12CCAE08CE3482E19E0E8E07E2EF7E060
:1010E0006F2EA6E05A2E8091730390917403A09105
:1010F0007503B09176030196A11DB11D011199C030
:101100008093730390937403A0937503B093760355
:10111000A895E0915D03EB3070F4E23008F41AC159
:10112000E350E83008F019C1F0E08827E35CFC4E9A
:101130008F4F0C940D13EF3F09F00CC180914403C5
:10114000843009F4D1C208F06AC0823009F051C07D
:10115000B0915E03BB2309F4A1C5E0914303E250C3
:10116000EE3F08F47EC1E091420370914103E7171E
:1011700009F4E0C5B091420380914103B81709F426
:10118000C6C5EEE3E093400372E070934303B0DA28
:10119000811114C0E0914103F0E0E050FD4FB081B7
:1011A000B093FF02809141038F5F8F73809341035F
:1011B00043E0409343030BDB8823E1F29091EA0282
:1011C000923009F02DC26091D002643009F433C42A
:1011D00008F011C23091CD02623009F4E2C36330ED
:1011E00009F0DCC3323009F404C43F3F09F409C2FA
:1011F000FDC3833009F049C1E0914602EB3008F0AD
:10120000DCC1E23008F4DCC1E350E83008F0DDC1B5
:10121000F0E08827EB5BFC4E8F4F0C940D138F3F53
:1012200009F033C1E0914303E250EE3F08F09BCF59
:1012300018C100E080936F0390937003A093710333
:10124000B09372031092730310927403109275039B
:1012500010927603E0910702F1E0FE0FEF3F09F4F0
:10126000FCC0F0930702F43608F0F9C020910602A2
:1012700031E0320F2F3F09F0D8C1D0930602159804
:10128000409105025FEF540F413009F4FDC15093C6
:1012900005022091660330916703409168035091E5
:1012A00069032F5F3F4F4F4F5F4F2093660330938B
:1012B00067034093680350936903309165033323B8
:1012C00009F4E0C12F9A51E040916503411150E0CB
:1012D0005093650360916403662319F0621960936B
:1012E0006403722D90910202920D11F0909302020C
:1012F000A0910102A70F11F0A0930102B09100028A
:101300007B0F11F070930002809160039091610354
:10131000A0916203B09163030097A105B10509F4A0
:10132000A6C10197A109B10980936003909361035D
:10133000A0936203B0936303E0915E03EE2309F48C
:10134000E7CEE150E0935E03E3CE409145034F5F6B
:1013500040934503F2E0F0935D03A8DC8111EECEEB
:1013600030915C033F3FB1F710925B0323E0209381
:101370005D039CDC8111E2CE30915C03393721F0B2
:101380004CE7430F433070F730935A0354E05093C7
:101390005D038CDC8111D2CE60915C0360935903B4
:1013A00075E070935D0382DC8111C8CE90915C037F
:1013B0009093580350925D0379DC8111BFCEA091C8
:1013C0005C03A093570360925D0370DC8111B6CE7D
:1013D000B0915C03B093560370925D0367DC81119A
:1013E000ADCE80915C038093550310935D035EDC6A
:1013F0008111A4CEE0915C03E0935403C0935D039C
:1014000055DC81119BCEF0915C0330915B038F2FF3
:10141000831B80935B03F81398CF50915A0356387F
:1014200009F4C6C7543809F449C4553811F40C946A
:101430003C12593709F08ECF60915903613009F0A1
:1014400089CF10925F03A0914603B0914703119694
:10145000B0934703A09346037DCFD093070214981F
:1014600005CFF0E08827E35BFC4E8F4F0C940D1303
:1014700090914702923009F027C37091C80075FD22
:1014800032C4E0914602E11168CE63E060935E03EE
:10149000A2E0A093440361CEF0914702F23009F03C
:1014A00017C36091C80065FFECCFA0914902A093DB
:1014B000CE0070924602E2E0E0934702DECF309128
:1014C0004702323009F00CC34091C80045FFD9CF24
:1014D000209149022093CE006092460252E0509340
:1014E0004702DFCF40914702423009F006C3909196
:1014F000C80095FFC6CFF0914902F093CE0010923C
:1015000049025092460232E030934702DDCF2091EB
:101510004702223009F0F9C2E091C800E5FFB1CFDF
:10152000709149027093CE001092490285E0809339
:101530004602B2E0B0934702DACF609147026230D0
:1015400009F0BAC29091C80095FF9BCFF091490273
:10155000F093CE0036E830934902C093460242E051
:10156000409347021CC050914702523009F01CC7FB
:101570004091C80045FF85CF209149022093CE00BD
:1015800059E75093490264E060934602A2E0A093B9
:101590004702C2CFA0914702A23009F089C2209130
:1015A000C80025FF6ECF509149025093CE00109293
:1015B000470210924602E0E066CFEF3F09F463CFA6
:1015C000D0934902E2E0E093460270914702723004
:1015D00009F029C7B091C800B5FF53CF90914902D7
:1015E0009093CE0030924902F3E0F093460232E04D
:1015F00030934702BDCF653009F42EC26F3F09F02A
:10160000CBC1E091E702E031B0F4E230B8F0E35052
:10161000ED30F0F4F0E08827E55BFB4E8F4FFDC71F
:101620009F3F79F36091D0022EC230930602343688
:1016300008F426CE24CEEF3F09F455CD3092D402E3
:101640003092D30224E42093D20282E08093E70216
:101650000E946301811140CD5090D4026091D30269
:10166000562A09F492C1C093640373E08FC130928B
:101670005F038092600390926103A0926203B09234
:1016800063035ACE2F981FCEC093050260910402C7
:101690007FEF760F613009F07CC140920402909197
:1016A0006E03992341F0A0916D03A150A0936D03A7
:1016B000AA2309F4EDC2B0916C03BB2341F08091E1
:1016C0006B03815080936B03882309F4E4C2E0919B
:1016D0000302FFEFFE0FE13009F4D9C1F0930302DA
:1016E000D8CD34E030934403E0914A02EB3008F067
:1016F000BAC0E23008F4BAC0E350E83008F0BBC02A
:10170000F0E08827E85AFB4E8F4F87C74091470289
:10171000423009F0C9C1F091C800F5FDEEC2E09178
:101720004A02B1CE20914702223009F0C9C180910E
:10173000C80085FFF4CFB0914902B093CE007092FB
:101740004A0292E090934702E6CF5091470252300E
:1017500009F0C2C1A091C800A5FFE1CFE091490204
:10176000E093CE0060924A0272E070934702DFCFAE
:1017700060914702623009F0BCC12091C80025FF8A
:10178000CECF509149025093CE0050924A0262E06F
:1017900060934702DFCFA0914702A23009F0B1C1A8
:1017A0009091C80095FFBBCFF0914902F093CE0015
:1017B0001092490235E030934A0242E040934702DA
:1017C000DCCFE0914702E23009F0EAC56091C80041
:1017D00065FFA5CFA0914902A093CE00E0914802F9
:1017E000E11146C61092500374E87093490284E0F8
:1017F00080934A02B2E0B0934702D2CF8091470271
:10180000823009F049C17091C80075FF88CF80917E
:1018100049028093CE00109247028091480290E0E6
:101820000196B601E7D68093480210924A02E0E0A2
:101830002ACE70914702723009F032C12091C8005F
:1018400025FF6DCF509149025093CE006091480220
:101850006111F0C5ABE7A0934902C0934A02E2E0F0
:10186000E0934702D0CFEF3F09F40DCED093490269
:10187000B2E0B0934A0290914702923009F0CCC591
:101880003091C80035FF4BCF409149024093CE00C4
:101890003092490223E020934A0252E050934702DB
:1018A00095CF10916403111117CC2EEB2093D20227
:1018B00054E05093E7020E94630181110DCC7090B7
:1018C000D4026090D302762809F45FC01092D1024E
:1018D000A5E0A093E7020E94D9008111FDCB3092D0
:1018E000D102E6E0E093E7020E94D9008111F4CB37
:1018F00072E07093D102B7E0B093E7020E94D90082
:101900008111EACB43E04093D10288E08093E70263
:101910000E94D9008111E0CB64E06093D102F9E02C
:10192000F093E7020E94D9008111D6CB35E03093C5
:10193000D102C093E7020E94D9008111CDCB96E07D
:101940009093D1021BE01093E7020E94D90081110D
:10195000C3CB27E02093D1025CE05093E7020E94C2
:10196000D9008111B9CBA8E0A093D102EDE0E093BA
:10197000E7020E94D9008111AFCB5090D4025110E0
:10198000B0C17090D302711097C170E17093E702FB
:10199000A3CB709304027DCC3091CD0222E0209342
:1019A000D002323031F03F3F09F42BCE32E0309399
:1019B000CD026091CC025091CB02651709F421CE83
:1019C000E091CB02F0E0E55BFD4FA081A093CF0258
:1019D000E091CB02EF5FEF77E093CB021092CD0264
:1019E00030E0AC33D9F673E07093D002B2E0B0933C
:1019F000CD024091CC028091CB02481709F401CE70
:101A0000E091CB02F0E0E55BFD4FF081F093CF0277
:101A10009091CB029F5F9F779093CB021092CD0263
:101A200030E02FEB2F0F2A3108F0B8CFF093E90206
:101A300064E06093D0020E948002811155C05091F1
:101A4000CF02A091E9025A13A7CFE091E802E093F8
:101A5000CE0275E07093D0020E948002811144C0D2
:101A6000B091CF02BE3309F097CF4091CE02809162
:101A7000E802481391CF1092D00260E0F091E902A1
:101A8000FC3409F4DCC4F2E0F093EA029ECB40920D
:101A9000030210926A03FDCB8F3F09F440CEDFCEE4
:101AA0007F3F09F43CCE2FC14F3F09F438CE49CED9
:101AB000AF3F09F4E6CC53CD6F3F09F4E2CC19C136
:101AC0002F3F09F42CCE50CE9F3F09F4DACCF3CC53
:101AD000FF3F09F4D6CC02CD5F3F09F420CE57CEAC
:101AE0003F3F09F4CECC0FCD6091D002611189CD7A
:101AF000C5CF6F3F09F413CE60CE4F3F09F4C1CC80
:101B000018CDAF3F09F40BCE75CE2F3F09F4B9CCF9
:101B10003DCD922DE5EDF2E030E01CE8A191432FA0
:101B200046953A27392309F04127542F56953A2FE5
:101B300036953427392309F05127552E56942A2FEC
:101B4000269526952527292309F05126852D86954A
:101B50006A2F6695669566956525692309F0812744
:101B6000782F7695BA2FB295BF70B827B92309F0B0
:101B70007127672E66944A2F4295469547704727EE
:101B8000492309F06126762C76945A2F5295569562
:101B9000569553705625592309F07126372D3695E1
:101BA000AA1FAA27AA1FA725A92309F0312782E087
:101BB000ED3DF80709F0B2CFF091DD02F31709F41B
:101BC00069C4E091F0029E0F09F4DFCE9093F00219
:101BD000DCCE722CEEEDF2E060E07CE8B191662E96
:101BE00066946B27672109F06726462D46958B2F53
:101BF00086958625872109F04727642F66953B2F18
:101C0000369536953427372109F06727962F969514
:101C10001B2F1695169516951627172109F097274D
:101C2000A92FA6952B2F22952F702927272109F060
:101C3000A7275A2F56954B2F4295469547704A270E
:101C4000472109F05727552E56948B2F829586955C
:101C5000869583708527872109F05726652D66951F
:101C6000BB1FBB27BB1FB525B72109F06727EE16A1
:101C7000FF0609F0B3CFF091E602F61709F41FC48E
:101C8000E091F7027E0E09F47CCE7092F70279CED5
:101C900010926E0310CD10926C0319CD90915F03DA
:101CA000992309F41ECDF0910002FF3F09F419CDEC
:101CB000B3E0B0934403A0CA7FE068CE809159039B
:101CC00090E0982F8827B09158038B0F911D909327
:101CD0004B0380934A03909150039F5F909350036E
:101CE00039CB7EE053CE809149028093CE00109391
:101CF0004602B2E0B093470225CC309149023093BE
:101D0000CE0010934A0242E04093470297CD9DE0F7
:101D100090934003F4E0F09343030E947803811111
:101D20004DCAC093400335E0309343030E947803CB
:101D3000811144CA1092FE0240E240934003509247
:101D400043030E947803811139CA21E420934003A0
:101D5000609243030E947803811130CA6091660348
:101D60007091670380916803909169036093FA0210
:101D70007093FB028093FC029093FD0270924303E8
:101D80000E94BD0581111ACA5CE250934003109372
:101D900043030E947803811111CAA091F902A09314
:101DA000FF02C09343030E94E703811107CAECE2DC
:101DB000E09340037BE0709343030E94780381111A
:101DC000FDC9B091F802B093FF028CE08093430309
:101DD0000E94E7038111F2C99CE290934003FDE069
:101DE000F09343030E9478038111E8C940916F0387
:101DF0005091700360917103709172034093FA02E5
:101E00005093FB026093FC027093FD023EE030931E
:101E100043030E94BD058111D1C920E220934003F4
:101E20006FE0609343030E9478038111C7C952E4B5
:101E300050934003A0E1A09343030E9478038111D3
:101E4000BDC9E091F702E093FF0271E17093430393
:101E50000E94E7038111B2C9BCE2B093400382E162
:101E6000809343030E9478038111A8C99091F602E0
:101E70009093FF02F3E1F09343030E94E703811183
:101E80009DC94CE24093400334E1309343030E94E8
:101E90007803811193C92091F4023091F5023093B7
:101EA000F3022093F20265E1609343030E94FE0473
:101EB000811184C95CE250934003A6E1A0934303DF
:101EC0000E94780381117AC9E091F102E093FF0248
:101ED00077E1709343030E94E70381116FC9BCE26D
:101EE000B093400388E1809343030E9478038111FB
:101EF00065C9909102029093FF02F9E1F0934303C8
:101F00000E94E70381115AC940E2409340033AE13D
:101F1000309343030E947803811150C923E4209336
:101F200040036BE1609343030E947803811146C92B
:101F30005091F0025093FF02ACE1A09343030E9442
:101F4000E70381113BC9ECE2E09340037DE170932C
:101F500043030E947803811131C9B091EF02B0931D
:101F6000FF028EE1809343030E94E703811126C99B
:101F70009CE290934003FFE1F09343030E947803B7
:101F800081111CC94091ED025091EE025093F30271
:101F90004093F20230E2309343030E94FE04811129
:101FA0000DC92CE22093400361E2609343030E9439
:101FB0007803811103C95091EC025093FF02A2E211
:101FC000A09343030E94E7038111F8C8ECE2E09379
:101FD000400373E2709343030E9478038111EEC8BB
:101FE000B0910102B093FF0284E2809343030E9408
:101FF000E7038111E3C890E290934003F5E2F09388
:1020000043030E9478038111D9C844E440934003FC
:1020100036E2309343030E9478038111CFC82091A8
:10202000EB022093FF0267E2609343030E94E70301
:102030008111C4C85CE250934003A8E2A09343031B
:102040000E9478038111BAC8E0914503E093FF0232
:1020500079E2709343030E94E7038111AFC8BCE2A9
:10206000B09340038AE2809343030E947803811176
:10207000A5C840914603509147035093F302409303
:10208000F2029BE2909343030E94FE04811196C8E2
:10209000FCE2F0934003F09343030E947803811124
:1020A0008DC820914A0330914B033093F302209363
:1020B000F2023DE2309343030E94FE0481117EC888
:1020C0006CE2609340035EE2509343030E94780306
:1020D000811174C8A0915203B0915303B093F302DD
:1020E000A093F202EFE2E09343030E94FE04811109
:1020F00065C87CE270934003B0E3B09343030E9451
:10210000780381115BC880914803909149039093B3
:10211000F3028093F20241E3409343030E94FE04E2
:1021200081114CC89CE290934003F2E3F093430387
:102130000E947803811142C8209151032093FF022D
:1021400033E3309343030E94E703811137C86CE205
:102150006093400354E3509343030E94780381113A
:102160002DC8A0914E03A093FF02E5E3E093430343
:102170000E94E703811122C87CE270934003B6E31A
:10218000B09343030E947803811118C880914C03D7
:1021900090914D039093F3028093F20247E34093B2
:1021A00043030E94FE04811109C89CE290934003FE
:1021B000F8E3F09343030E94780381110C94DE0846
:1021C00020914F032093FF0239E3309343030E9491
:1021D000E70381110C94DE086CE2609340035AE33C
:1021E000509343030E94780381110C94DE08A09160
:1021F0000002A093FF02EBE3E09343030E94E70396
:1022000081110C94DE0870E2709340034092430306
:102210000E94780381110C94DE08B5E4B09340036A
:102220008DE3809343030E94780381110C94DE08B0
:1022300042B1429541704093FF029EE39093430365
:102240000E94E70381110C94DE08FCE2F093400346
:102250002FE3209343030E94780381110C94DE083E
:1022600032B135FB662760F96093FF0250E450936A
:1022700043030E94E70381110C94DE08ACE2A093B3
:102280004003E1E4E09343030E94780381110C943E
:10229000DE08B1E070916E03711101C0B0E0B0933F
:1022A000FF0282E4809343030E94E70381110C94B0
:1022B000DE084CE24093400393E4909343030E9472
:1022C000780381110C94DE0821E0F0916C03F11188
:1022D00001C020E02093FF0234E4309343030E94C6
:1022E000E70381110C94DE086CE26093400355E42F
:1022F000509343030E94780381110C94DE08A0914F
:102300006A03A093FF02E6E4E09343030E94E7031D
:1023100081110C94DE0870E270934003B7E4B0932F
:1023200043030E94780381110C94DE0888EE8093A9
:10233000FF0248E4409343030E94E70381110C9499
:10234000DE0890E290934003F9E4F09343030E9487
:10235000780381110C94DE082091FE022093FF0285
:102360003AE4309343030E94E70381110C94DE08A2
:102370006DE0609340035BE4509343030E94780355
:1023800081110C94DE08C0934003ACE4A093430396
:102390000E947803882311F40C94B3080C94DE088F
:1023A000EF3F09F4BCC979CA5F3F09F46AC81FC985
:1023B000F091570331EE3F0F3B33D8F4809159032E
:1023C00090E0582F442720915803420F511D5093FD
:1023D000530340935203F852F0935103509150032A
:1023E000523039F41092000260914F036F5F609396
:1023F0004F03A0915603A0934E038091550390E0A4
:10240000F82FEE2770915403E70FF11DF0934D0361
:10241000E0934C030C94AA099F3F09F480C9F2E0B1
:10242000F09347022DCA7F3F09F42BC882E08093C6
:102430004702D0C8613009F457C0A9E70CCA3091EF
:10244000E802332309F454C090916A039A3008F0EB
:102450001ACB313009F455C010926E03C0936D034E
:1024600030926C03C0936B039F5F90936A030BCB16
:10247000E130E1F176E8B9C98091570390E0F82F97
:10248000EE2770915603E70FF11DF0934903E09397
:10249000480321CC109201029091EC029F5F90932F
:1024A000EC028091D60290E0B82FAA271091D502B5
:1024B000A10FB11DB093EE02A093ED0266CA109277
:1024C00002027091F1027F5F7093F1028091DF024E
:1024D00090E0782E6624B091DE026B0E711C709233
:1024E000F5026092F4024DCAAAE7B5C975E87DC944
:1024F00010926E03C0936D0310926C03C0936B0334
:10250000C2CA30936E03F6CF1F921FB61F921124DA
:102510002F932BB72F933F938F939F93EF93FF931B
:102520003091C6008091CC02820D8F77E091CB0272
:10253000E817A9F0F091CC02EF2FF0E0E55BFD4F3A
:1025400030838093CC02FF91EF919F918F913F91C7
:102550002F912BBF2F911F901FBE1F901895209178
:10256000F802220D2093F8023091F8023111EBCFDE
:102570008091F80282198093F802E5CF1F921FB66E
:102580001F9211242F932BB72F933F938F939F93D9
:10259000EF93FF933091CE0080913902820D8F71BD
:1025A000E0913802E817A9F0F0913902EF2FF0E03E
:1025B000E85EFD4F308380933902FF91EF919F9148
:1025C0008F913F912F912BBF2F911F901FBE1F9076
:1025D00018952091EB02220D2093EB023091EB0233
:1025E0003111EBCF8091EB0282198093EB02E5CFA2
:1025F00001E0189597FB072E16F4009406D077FD9E
:1026000008D013D007FC05D03EF4909581959F4FDC
:102610000895709561957F4F0895EE0FFF1F881FF5
:102620008BBF0790F691E02D1994AA1BBB1B51E1BB
:1026300007C0AA1FBB1FA617B70710F0A61BB70B32
:10264000881F991F5A95A9F780959095BC01CD01D7
:102650000895F894FFCFF800FC000001EE00F400AC
:102660000801DE01E401EA01F001D501B901FC0134
:1026700002020802CC01F6010E02B909C909D30908
:10268000DC09E509EE09F709000AB30A870A720AAC
:102690005F0A4C0A380A9D0ACA0AC708DB088D0E71
:1026A000960EA10EAA0EC00EC90ED30EDD0EE80EB8
:1026B000F20E090F130F1D0F280F320F3D0F470F9A
:1026C000560F600F6B0F750F800F8A0F940F9F0FBF
:1026D000A90FB40FBE0FCD0FD70FE20FEC0FF70FFE
:1026E00001100B10161020102B10351044104D1037
:1026F0005C10661075107F108E109810A310AD102E
:10270000B810C210D110DB10E710F210FE10081143
:10271000131120112B113911441154115F116F1134
:102720007A11861191119C11A711B311BE11C81114
:10273000B308B308B308B308B308B308B308B308C1
:10274000B308B308B308B308B308B308B308B308B1
:10275000B308B308B308B308B308B308B308B308A1
:10276000B308B308B308B308B308B308B308B30891
:10277000B308B308B308B308B308B308B308B30881
:10278000B308B308B308B308B308B308B308B30871
:10279000B308B308B308B308B308B308B308B30861
:1027A000B308B308B308B308B308B308B308B30851
:1027B000B308B308B308B308B308B308B308B30841
:1027C000B308B308B308B308B308B308B308B30831
:1027D000B308B308B308B308B308B308B308B30821
:1027E000B308B308B308B308B308B308B308B30811
:1027F000B308B308B308B308B308B308B308B30801
:10280000B308B308B308B308B308B308B308B308F0
:10281000B308B308B308B308B308B308B308B308E0
:10282000B308B308B308B308B308B308B308B308D0
:10283000B308B308B308B308B308B308B308B308C0
:10284000B308B308B308B308B308B308B308B308B0
:10285000B308B308B308B308B308B308B308B308A0
:10286000B308B308B308B308B308B308B308B30890
:10287000B308B308B308B308B308B308B308B30880
:10288000B308B308B308B308B308B308B308B30870
:10289000B308B308DE08510C5B0C6B0C740C7E0C97
:1028A000880C920C9B0CA50CAF0CB90CE90D890D92
:1028B000E10BCB0BB80BA50B920B860B190CFE0B87
:1028C000FFFFFF3C3C0AFFFF3031323334353637EF
:0828D00038396162636465663A
:00000001FF
