:1000000071C000008FC000008DC000008BC00000D8
:1000100089C0000087C0000085C0000083C00000C8
:1000200081C000007FC000007DC000007BC00000D8
:1000300079C0000077C0000075C0000073C00000E8
:1000400071C000000C9481146DC000006BC00000F2
:1000500069C0000067C0000065C0000063C0000008
:1000600061C000000C940D145DC000005BC0000076
:1000700059C0000057C0000055C0000053C0000028
:1000800051C000004FC000004DC000004BC0000038
:100090000C94471447C0000045C0000043C0000056
:1000A00041C000003FC000003DC000003BC0000058
:1000B00039C0000037C0000035C0000033C0000068
:1000C00031C000002FC000002DC000002BC0000078
:1000D00029C0000027C0000025C0000023C0000088
:1000E00021C0000011241FBECFEFD1E2DEBFCDBF83
:1000F00000E00CBF12E0A0E0B2E0E2EDFBE200E0C5
:100100000BBF02C007900D92AE31B107D9F723E0C3
:10011000AEE1B2E001C01D92A338B207E1F7EFD51E
:100120000C94B2146DCF9091DA0291111DC0209100
:10013000D90221111FC035E13A95F1F74091DA0259
:10014000411134C05091D90251112BC060E36A951E
:10015000F1F77091DA0271111CC051110EC08CEDD3
:1001600090E00197F1F70895089A10982091D9022C
:10017000222309F3099A1198DECF019BF0CFB091A9
:1001800046028B0F809346028CED90E00197F1F7C9
:100190000895009BE2CFA0914702A80FA0934702C9
:1001A000DCCF0998119A5091D902D0CF0898109AB3
:1001B000C9CF80914802893070F4823008F43DC084
:1001C0008350863008F5E82FF0E08827EC54FB4E8A
:1001D0008F4F0C9496148F3F81F5089580E2A3DF32
:1001E00087E080934802089580E49DDF88E0F9CF9E
:1001F00084E099DF84E0F5CF88E095DF85E0F1CFFA
:1002000080E191DF86E0EDCF82E08DDF83E0E9CF12
:1002100080E889DF8091D70290E0FC01EC51FD4F2E
:1002200020914702208385529D4F30914602FC0168
:1002300030831092480280E0089510924702109295
:10024000460281E070DF82E0CCCF9091DA0291111A
:1002500024C02091D90221111DC04091DA028823C7
:1002600059F085E18A95F1F7411126C03091D90204
:1002700031111FC04091DA02E0EFF0E03197F1F761
:10028000411114C05091D90251110AC065E36A9519
:10029000F1F70895099A1198E0CF089A1098D9CFEC
:1002A0000998119A65E36A95F1F708950898109AEC
:1002B000E9CF0998119ADECF0898109A3091D902A7
:1002C0003323C1F2F6CF80914B028530A1F1B8F40F
:1002D000833009F45AC08430C1F4E0914902E93016
:1002E00028F5E23008F4E9C0E350E63008F0A3C096
:1002F000F0E08827E654FB4E8F4F0C94961486301E
:1003000009F18F3F09F09DC00895823009F099C02E
:10031000A8E6B6E01197F1F77091D9029091DA0250
:10032000792B89F510924B0280E00895EF3F09F098
:10033000C4C084E008958091D80280934A0226E0E8
:1003400020934B02E0914902E93070F4E23008F466
:10035000BAC0E350E63008F068C0F0E08827E05407
:10036000FB4E8F4F0C949614EF3F09F0ACC086E023
:10037000089580914A02807868DF1092490285E0F2
:1003800080934B02089583E0FBCF4CEC40934A02EC
:1003900054E050934B02A1CF80914A02807255DF06
:1003A00037E03093490286E0089580914A028074D4
:1003B0004CDF68E06093490284E0089580914A022E
:1003C000847043DF64E0F6CF80914A0288703DDF9D
:1003D00065E0F0CF80914A02807137DF66E0EACFB6
:1003E00080914A02807231DF67E0E4CF80914A0257
:1003F00080742BDF38E0D5CF80914A02847025DFEE
:1004000034E0CFCF80914A0288701FDF35E0C9CF3A
:1004100080914A02807119DF36E0C3CF80914A0291
:10042000807813DF109249027DCF80914A0282705A
:100430000CDF33E0B6CF80914A02827006DF63E0C2
:10044000B9CFB091DA02B11131C0E091D902EE23F7
:1004500009F468CF099A119880E699E00197F1F7BD
:100460002091DA02211135C03091D902311143C0F7
:10047000A0E4B1E01197F1F74091DA0241112CC0EC
:10048000311102C082E07CCF90B1E1E0B92FB270AF
:1004900091FDE0E0E093D902BB23A1F3F091F502D6
:1004A000F20D81F3F093F50282E06ACF089A10987A
:1004B000F091D902FF2381F2CDCF80914A02817061
:1004C000C4DE62E077CF80914A028170BEDE32E006
:1004D00068CF0898109AC8CF50B1517061E0652775
:1004E0006093DA02552361F27091FC02720D41F2C1
:1004F0007093FC02C5CF0998119A3091D902B8CFF8
:1005000080914502843009F43FC078F4823009F4C8
:1005100094C0833009F08CC0B091D302B23061F046
:10052000BF3F09F0D1C083E00895853009F462C06F
:100530008F3F09F07DC00895E091D202F091D10281
:10054000EF1789F3E091D102F0E0EF5AFD4F3081CF
:100550003093D5024091D1024F5F4F774093D10243
:100560001092D30250ED530F5A3008F09FC06091A3
:10057000EE02762F770F770F760F770F750F709348
:10058000EE02A4E0A0934502B091D302B23009F08C
:100590004AC0E091D202F091D102EF1709F446C0AF
:1005A000E091D102F0E0EF5AFD4F40814093D50237
:1005B0003091D1023F5F3F773093D1021092D30246
:1005C00050ED540F5A3008F071C06091EE0269315D
:1005D00030F0693109F06AC0463308F067C0762F01
:1005E000770F770F760F770F750F7093EE02A5E0F8
:1005F000A0934502B091D302B23041F4E091D2020F
:10060000F091D102EF1342C085E00895BF3FE1F3BE
:1006100082E09091D2022091D102291337C08093B9
:10062000D30285E0F2CFBF3F09F044C084E00895D3
:100630001092EE0282E0809345028091D3028230D4
:1006400029F08F3F09F04AC082E008952091D2023C
:100650009091D102291709F46ECFE091D102F0E018
:10066000EF5AFD4F60816093D5027091D1027F5F98
:100670007F777093D1021092D30260536A30B0F446
:100680006093EE02A3E0A093450246CFE091D10231
:10069000F0E0EF5AFD4F40814093D5023091D102F6
:1006A0003F5F3F773093D1021092D3021092450200
:1006B00080E0089582E09091D2022091D102291326
:1006C0006FCF8093D302B2CF82E09091D20220917B
:1006D000D102291337CF8093D30225CF32E0409146
:1006E000D2025091D1025413B8CF3093D302ACCF81
:1006F00080914202823031F08F3F09F4089582E008
:10070000809342022091C00025FD02C082E008953E
:10071000309146033093C600409104036091460334
:10072000922D542F56954627422111F07CE85727E9
:10073000A52FA695B62FB695B527B92311F0ECE8ED
:10074000AE27FA2FF695862F869586958A278923D8
:1007500011F02CE8F2274F2F4695362F3695369517
:1007600036953F27392311F05CE84527742F76959D
:10077000A62FA295AF70A427A92311F0BCE87B2770
:10078000E72FE695F62FF295F695F770F727F92300
:1007900011F08CE8E8274E2F4695262F22952695B6
:1007A000269523702E27292311F03CE84327542F48
:1007B0005695661F6627661F6427692311F06CE84B
:1007C0005627509304031092420280E008959091BE
:1007D0004102892F933009F483C09F3F09F47FC001
:1007E000923099F0E0910503EE2309F475C0E031F1
:1007F00008F4F7C0E295EF70F0E0E35FFD4F408151
:100800004093460352E050934102609142026230AD
:1008100009F478C06F3F09F072C082E008956091DA
:1008200046036093C6003091040370914603A22DE5
:10083000B32FB6953727322111F0ECE8BE27FB2FF6
:10084000F695572F56955B275A2311F09CE8F92708
:100850008F2F8695272F269526952F272A2311F04F
:100860004CE88427682F6695372F36953695369550
:1008700038273A2311F0BCE86B27E62FE695F72FCF
:10088000F295FF70F627FA2311F05CE8E5279E2F1A
:100890009695872F8295869587708E278A2311F0EB
:1008A0002CE89227492F4695672F629566956695A5
:1008B000637069276A2311F03CE84327B42FB6958B
:1008C000771F7727771F74277A2311F07CE8B727E3
:1008D000B0930403109242021092410280E0089506
:1008E00080914202823031F44091C00045FD97CFA3
:1008F00083E008958F3F09F070C083E0089572E0AF
:1009000070934202A091C000A5FF87CFB09146032B
:10091000B093C600E0910403F0914603922D8E2F10
:100920008695EF27E22111F02CE88227482F469583
:100930003F2F36953827392311F05CE84527642F7F
:1009400066957F2F769576957427792311F0ACE81C
:100950006A27B62FB695EF2FE695E695E695E6273A
:10096000E92311F08CE8B8275B2F56952F2F22959D
:100970002F702B27292311F04CE85427652F6695FB
:100980003F2F3295369537703527392311F07CE8A3
:100990006727A62FA695BF2FB295B695B695B370CB
:1009A000B627B92311F0ECE8AE275A2F5695FF1F52
:1009B000FF27FF1FFA27F92311F0FCE85F27509368
:1009C0000403E0910503EF70F0E0E35FFD4F9081D9
:1009D0009093460383E08093410222E020934202F9
:1009E00083CF80914202EF70F0E0E35FFD4F208102
:1009F0002093460333E03093410274CF8091430249
:100A00008430A9F0F0F4823009F43CC0833079F5E9
:100A10006FDE81114DC0E0910503EF70F0E0E35F00
:100A2000FD4F60816093460374E070934302A09190
:100A30004202A23059F4E091C000E5FD3DC084E0DF
:100A40000895853071F08F3F91F40895AF3FB9F369
:100A5000B2E0B0934202EFCF9093050325E02093DC
:100A60004302B5DE882309F484C085E0089590919F
:100A7000F8028091F902882379F38093050332E02C
:100A800030934302A4DE811115C0E091F802E09397
:100A90000503E295EF70F0E0E35FFD4F4081409386
:100AA000460353E05093430223DE882309F4B3CF77
:100AB00083E0089582E00895F0914603F093C60024
:100AC0002091040380914603922D522F569528279A
:100AD000222111F03CE85327452F4695682F669553
:100AE0006527692311F07CE84727A42FA695B82F26
:100AF000B695B695B427B92311F0ECE8AE27FA2FD6
:100B0000F695282F2695269526952A27292311F034
:100B10005CE8F5276F2F6695382F32953F703F2799
:100B2000392311F04CE86427762F7695A82FA295EB
:100B3000A695A770A627A92311F0BCE87B27E72F6D
:100B4000E695F82FF295F695F695F370F727F923C9
:100B500011F02CE8E2275E2F5695881F8827881F02
:100B60008E27892311F08CE85827509304031092A4
:100B700042021092430280E0089580914402853041
:100B8000C1F058F5833009F453C08430B1F5B0DDBD
:100B9000811161C0E091F802E0930503E295EF70E6
:100BA000F0E0E35FFD4FA081A0934603B5E0B09372
:100BB00044029EDD811160C0E0910503EF70F0E01A
:100BC000E35FFD4FE081E0934603F6E0F0934402DB
:100BD0008FDD882371F086E00895873009F446C0E0
:100BE0008F3F09F40895863009F04AC081DD8111F4
:100BF000F2CF1092440280E00895823009F040C0A4
:100C0000FDDE81113BC040910003E0910103409360
:100C1000F802E093F902E0930503E295EF70F0E04B
:100C2000E35FFD4F50815093460363E060934402BD
:100C30005FDD811112C0E0910503EF70F0E0E35F2A
:100C4000FD4F70817093460394E09093440250DD11
:100C5000882309F49FCF84E0089583E0089590935A
:100C6000F9028093F80287E080934402C7DE88236C
:100C700009F4BFCF87E0089585E0089582E00895E4
:100C80008091000390910103A0910203B0910303AE
:100C9000AD01662777274115510509F35093F902F5
:100CA0004093F80232E030934402AACF8091400290
:100CB000823031F08F3F09F4089582E08093400242
:100CC00090913F0220913E02921302C082E008956B
:100CD000E0913E02F0E0E25EFD4F3081309362032E
:100CE00040913E024F5F4F7140933E02509161032D
:100CF000530F509361031092400280E00895222424
:100D0000239400E09D98A59A6A98729A6B98739ABA
:100D10006C98749A6D98759A6E98769A6F98779A7F
:100D2000809101018E7F8093010110910201116079
:100D300010930201209101012D7F20930101309138
:100D40000201326030930201409101014B7F4093D8
:100D50000101509102015460509302016091010120
:100D6000677F6093010170910201786070930201C6
:100D7000909101019F7E90930101A0910201A061D9
:100D8000A0930201B0910101BF7DB0930101C09118
:100D90000201C062C0930201D0910101DF7BD093B8
:100DA0000101E0910201E064E09302012098289A99
:100DB0002198299A22982A9A23982B9A24982C9A37
:100DC00025982D9A26982E9AF0910101FF77F0939D
:100DD0000101809102018068809302019B98A39A8F
:100DE0009C98A49A10910A011E7F10930A012091E9
:100DF0000B01216020930B0130910A013D7F30935C
:100E00000A0140910B01426040930B0150910A018D
:100E10005B7F50930A0160910B01646060930B014A
:100E200070910A01777F70930A0190910B0198608D
:100E300090930B01A0910A01AF7EA0930A01B0919B
:100E40000B01B061B0930B01C0910A01CF7DC0933B
:100E50000A01D0910B01D062D0930B01E0910A01FD
:100E6000EF7BE0930A01F0910B01F064F0930B012A
:100E700080910A018F7780930A0110910B0110680D
:100E800010930B015098589A5198599A54985C9A1B
:100E900055985D9A56985E9A57985F9A9898A09A36
:100EA0009998A19A3898409A3998419A3A98429AD2
:100EB0003B98439A3C98449A3D98459A3E98469A66
:100EC0003F98479A209104012E7F2093040130918E
:100ED0000501316030930501409104014D7F40933D
:100EE0000401509105015260509305016091040185
:100EF0006B7F60930401709105017460709305012C
:100F000090910401977F90930401A0910501A8603E
:100F1000A0930501B0910401BF7EB0930401C0917C
:100F20000501C061C0930501D0910401DF7DD0931C
:100F30000401E0910501E062E0930501F0910401F4
:100F4000FF7BF0930401809105018064809305018B
:100F50009A98A29A0F98179A0B98139A0A98129A2D
:100F6000109104011F77109304012091050120685E
:100F700020930501309107013F773093070140919D
:100F80000801406840930801509107015F7B50932E
:100F90000701609108016064609308017091070186
:100FA0007F7D7093070190910801906290930801F2
:100FB000A0910701AF7EA0930701B0910801B06135
:100FC000B0930801C0910701C77FC0930701D0917A
:100FD0000801D860D0930801E0910701EB7FE0930E
:100FE0000701F0910801F460F09308018091070176
:100FF0008D7F809307011091080112601093080102
:10100000209107012E7F2093070130910801316064
:101010003093080187988F9A86988E9A85988D9A32
:1010200084988C9A83988B9A82988A9A8198899AC4
:101030008098889A0C9A14980D9A15980E9A16987A
:10104000279A48E159E20FB6F894A89540936000BA
:101050000FBE509360000898109A0998119A109248
:10106000CD006FEC6093CC0072E07093C80096E006
:101070009093CA00A8E9A093C9001092C50060939C
:10108000C4007093C0009093C200A093C100C7EA4F
:10109000D1E6D0938900C0938800B0916F00B26010
:1010A000B0936F00D0918100DB60D0938100789481
:1010B0009CEE492E92E0592E23E0A22EB12CCFEFC8
:1010C000FF24F394DAE01CE3B7E03B2E86E0982E91
:1010D00080917F0390918003A0918103B09182035E
:1010E0000196A11DB11D011199C080937F039093BA
:1010F0008003A0938103B0938203A895E0916303DA
:10110000EB3070F4E23008F4B9C1E350E83008F095
:10111000B8C1F0E08827EA53FB4E8F4F0C94961429
:10112000EF3F09F0ABC1F0914A03F43009F486C3F4
:1011300008F06AC0F23009F051C0E0906403EE207C
:1011400009F48DC6E0914903E250EE3F08F420C255
:10115000B091480370914703B71709F4DAC660905D
:101160004803C09047036C1409F4C0C68EE3809313
:10117000460392E090934903BBDA811114C0E091D9
:101180004703F0E0EA5FFC4F708070920503E09146
:101190004703EF5FEF73E093470353E05093490336
:1011A00016DB8823E1F2A091F002A23009F0D5C24B
:1011B0006091D602643009F4EDC408F0B8C2909191
:1011C000D302623009F49CC4633009F096C49230B3
:1011D00009F4BEC49F3F09F4B0C2B7C4F33009F0AC
:1011E000EBC1E0914C02EB3008F082C2E23008F42F
:1011F00082C2E350E83008F083C2F0E08827E2536F
:10120000FB4E8F4F0C949614FF3F09F0D5C1E0912F
:101210004903E250EE3F08F09BCFBAC100E0809353
:101220007B0390937C03A0937D03B0937E03109285
:101230007F03109280031092810310928203E09149
:101240000C02F1E0FE0FEF3F09F49EC1F0930C0297
:10125000F43608F09BC120910B0231E0320F2F3F92
:1012600009F089C2C0930B02159840910A0251E01F
:10127000540F4F3F09F079C2C0930A02169860914B
:1012800009027FEF760F613009F497C2709309026B
:1012900050917A03C0900402D0900502E0900602BB
:1012A0004E2D96012F5F3F4F4F4F21158FE238078C
:1012B0008DE0480718F020E030E040E0752F622D07
:1012C00051110FC070907803711010C261E0A42F0B
:1012D000C90180549E47A54080349E47A54008F030
:1012E00005C2809103028F3F09F453C060907403DC
:1012F000712C812C872C762C662490E0A0E0A82FFE
:1013000099278827860D971DA81D80907303880D47
:10131000911DA11D3C018A2E6C187D088E08E82CB9
:101320006301C0927003D0927103E0927203E09166
:101330007503EA3070F5B4E06B0E711C811CF9E0A6
:101340006F167104810428F151110C946213B0914D
:101350007803B11111C071E03901842E50E4651A8F
:101360005EE7750A55E0850AB0E46B16BEE77B06BA
:10137000B5E08B0608F081C5671709F454C4F3E1A2
:10138000CF0ED11CE11C57E2C516D104E10408F0D0
:101390004AC4C09303022093040230930502409391
:1013A0000602662309F436C2222009F49FC3149A68
:1013B00010920C02159810920B0220916C03309140
:1013C0006D0340916E0350916F032F5F3F4F4F4F5E
:1013D0005F4F20936C0330936D0340936E035093E3
:1013E0006F03C0906B03CC2009F41CC22F9A31E02C
:1013F000D0906B03D11030E030936B03E0906A0320
:10140000EE2019F0E218E0926A03422DA091020248
:10141000A20D11F0A093020290910102940F11F01D
:101420009093010250910002450F11F04093000289
:101430008091660390916703A0916803B09169035E
:101440000097A105B10509F4EFC10197A109B10900
:101450008093660390936703A0936803B093690336
:10146000F0916403FF2309F448CEF150F093640334
:1014700044CEE0914B03EF5FE0934B03E2E0E09357
:10148000630314DC81114FCE709162037F3FB1F78B
:1014900010926103B3E0B093630308DC811143CE83
:1014A00070916203793721F06CE7670F633070F752
:1014B0007093600324E020936303F8DB811133CE43
:1014C0007090620370925F0335E030936303EEDB4C
:1014D000811129CE6090620360925E039092630353
:1014E000E5DB811120CE8090620380925D03309213
:1014F0006303DCDB811117CEC0906203C0925C03F2
:1015000048E040936303D2DB81110DCED09062039B
:10151000D0925B03A9E0A0936303C8DB811103CEE3
:10152000E0906203E0925A03D0936303BFDB811122
:10153000FACD9091620350916103892F851B8093AE
:101540006103981396CFB0916003B63811F40C94F0
:101550006513B43809F495C4B53811F40C94C81364
:10156000B93709F08BCF70915F03713009F086CFE6
:1015700010926503A0914C03B0914D031196B09366
:101580004D03A0934C037ACFC0930C02149863CE02
:10159000F0E08827EA52FB4E8F4F0C94961460912E
:1015A0004D02623009F065C37090C80075FC8AC4B2
:1015B000E0914C02E111C6CDA3E0A0936403F2E0F8
:1015C000F0934A03BFCD20914D02223009F055C35C
:1015D0006090C80065FEECCFC0904F02C092CE0074
:1015E00068E060934C0222E020934D02DDCF309101
:1015F0004D02323009F059C3F091C800F5FFD8CF41
:10160000B0914F02B093CE0030924C0272E07093D2
:101610004D02DECF40914D02423009F04EC3509151
:10162000C80055FFC5CF80914F028093CE00109225
:101630004F0290924C02A2E0A0934D02DDCF909118
:101640004D02923009F041C3D090C800D5FEB0CF12
:10165000E0904F02E092CE0010924F0295E09093FE
:101660004C02E2E0E0934D02DACFE0914D02E2302D
:1016700011F00C945D137090C80075FE99CF8090A6
:101680004F028092CE0029E720934F0234E030933E
:101690004C0242E040934D02D7CF80914D02823000
:1016A00009F0DBC25091C80055FF82CF80914F02F4
:1016B0008093CE0010924D0210924C02E0E07ACF5F
:1016C00050914D02523009F0CCC2D090C800D5FEE6
:1016D0006FCFE0904F02E092CE0096E890934F02D9
:1016E000D0934C02E2E0E0934D02DCCF60E0F9CD14
:1016F000EF3F09F45FCFC0934F02A2E0A0934C02EA
:10170000F0914D02F23011F00C94A0136090C800DB
:1017100065FE4ECFC0904F02C092CE00F0924F02B5
:1017200073E070934C0262E060934D02A4CF653089
:1017300009F441C26F3F09F0DEC1E091ED02E031F2
:1017400000F5E23008F1E350ED3040F5F0E0882795
:10175000EC52FA4E8F4F0C949614AF3F71F3609198
:10176000D602F2E0F093F00225CD50930A025436EF
:1017700008F485CD83CD30930B02343608F475CD53
:1017800073CDEF3F09F4A4CCF092DA02F092D902C3
:1017900044E44093D80282E08093ED020E9463010A
:1017A000811191CC8090DA02D090D9028D2809F471
:1017B00099C1D0936A0363E096C150917A03D093A4
:1017C0000902A09108029FEF9A0FA13009F090C181
:1017D00010930802552341F0B0917903B150B093B2
:1017E0007903BB2309F434C360907803662041F089
:1017F00080917703815080937703882309F42CC369
:10180000E0910702FFEFFE0FE13009F413C2F093FD
:10181000070240CD149810920C02222009F4CACD80
:10182000159AC9CD2F98E3CDF092650380E897E92A
:10183000A6E0B0E00DCE64E060934A03E091500270
:10184000EB3008F0BDC0E23008F4BDC0E350E83032
:1018500008F0BEC0F0E08827EF51FA4E8F4F0C948D
:10186000961420914D02223009F0F3C18090C800F7
:1018700085FC1CC3E09150029DCE30914D02323068
:1018800009F0F3C1C090C800C5FEF4CF20914F020B
:101890002093CE0068E0762E7092500232E03093B2
:1018A0004D02E4CF40914D02423009F0EAC17091FF
:1018B000C80075FFDFCF60904F026092CE0030927B
:1018C000500262E060934D02DDCF90914D02923064
:1018D00009F0EFC1A091C800A5FFCCCFF0914F0255
:1018E000F093CE0090925002B2E0B0934D02DFCF61
:1018F000E0914D02E23009F0E4C1D090C800D5FE7D
:10190000B9CFE0904F02E092CE0010924F0255E026
:101910005093500282E080934D02DCCF50914D02F3
:10192000523009F0C6C67090C80075FEA3CF8090F3
:101930004F028092CE0030914E02311125C7109295
:10194000560344E840934F0294E090935002E2E043
:10195000E0934D02D2CFA0914D02A23009F071C1A7
:10196000F091C800F5FF86CFB0914F02B093CE0042
:1019700010924D0280914E0290E00196B501C3D7BE
:1019800080934E0210925002E0E014CE80914D02FE
:10199000823009F05AC1E091C800E5FF6BCFE090BA
:1019A0004F02E092CE0050914E025111D2C68BE709
:1019B00080934F02D0935002A2E0A0934D02D0CF6B
:1019C000EF3F09F4F7CDC0934F02F2E0F0935002DD
:1019D000B0914D02B23009F0ACC66090C80065FE0F
:1019E00049CFC0904F02C092CE00F0924F0263E008
:1019F0006093500222E020934D0295CF30906A030D
:101A0000311061CB1EEB1093D802E4E0E093ED02BD
:101A10000E946301811157CB9090DA02E090D902C5
:101A20009E2809F45FC01092D70255E05093ED0252
:101A30000E94D900811147CBF092D702A6E0A09373
:101A4000ED020E94D90081113ECBF2E0F093D70263
:101A5000B7E0B093ED020E94D900811134CB73E05E
:101A60007093D70268E06093ED020E94D900811163
:101A70002ACB24E02093D70239E03093ED020E9474
:101A8000D900811120CB45E04093D702D093ED02DD
:101A90000E94D900811117CB86E08093D7029BE08A
:101AA0009093ED020E94D90081110DCB17E01093A5
:101AB000D702ECE0E093ED020E94D900811103CB44
:101AC00058E05093D702ADE0A093ED020E94D900F8
:101AD0008111F9CA7090DA027110E6C17090D902D2
:101AE0007110CDC160E16093ED02EDCA149860CC35
:101AF00090930802CFCB9091D302B2E0B093D6027C
:101B0000923031F09F3F09F418CE72E07093D30207
:101B10006090D2028090D102681409F40ECEE09158
:101B2000D102F0E0EF5AFD4F60816093D502209121
:101B3000D1022F5F2F772093D1021092D30290E031
:101B40006C33D9F633E03093D60242E04093D302AF
:101B5000D090D202C090D102DC1409F4EECDE09115
:101B6000D102F0E0EF5AFD4FE080E092D502809183
:101B7000D1028F5F8F778093D1021092D30290E0D1
:101B8000EFEBEE0DEA3108F0B8CFE092EF0254E04F
:101B90005093D6020E948002811177C07090D502C6
:101BA000A091EF027A12A7CFF091EE02F093D40247
:101BB000B5E0B093D6020E948002811166C0709198
:101BC000D5027E3309F097CF6090D4028090EE0268
:101BD000681091CF1092D60260E02091EF0223347A
:101BE00009F4CCC508F456C0273409F4B7C52C3421
:101BF00009F0B7CD8091EE02882309F46EC190916F
:101C000076039A3008F0ADCD813009F4FFC510920B
:101C10007A03D0937903F0927803D09377039F5F90
:101C2000909376039ECDEF5FE0937503672F9C0141
:101C30004A2FAFCB109307021092760310927503D0
:101C400029CBAF3F09F416CEB7CE8F3F09F412CEA1
:101C500035C12F3F09F40ECE21CE8F3F09F4A8CC19
:101C600041CD5F3F09F4A4CC34C13F3F09F402CE1B
:101C700028CE6F3F09F49CCCB6CC2F3F09F498CC0A
:101C8000C5CC4F3F09F4F6CD2FCE6091D60261113D
:101C900054CDA3CF213409F46BC5223409F061CDB2
:101CA000C090EE02C09274035CCD3F3F09F480CC3B
:101CB000C2CC9F3F09F4DECD2DCE4F3F09F478CC46
:101CC000D0CCEF3F09F4D6CD42CE9F3F09F470CC83
:101CD000E0CC722DEBEDF2E0612C4CE88191862C8A
:101CE00086946826672209F08426D82CD694C82EBC
:101CF000C694C824C72209F0D4263D2C3694982EC9
:101D0000969496949D24972209F03426E32CE69429
:101D1000682F6695669566956325672309F0E42626
:101D20009E2D9695282F22952F702E25272309F07A
:101D30009427192F1695382F3295369537703927F5
:101D4000372309F01427512F5695A82FA295A69551
:101D5000A695A370A127A72309F05427652E6694A2
:101D6000881F8827881F8527872309F0642652E06B
:101D7000E33EF50709F0B2CFF091E302F61509F45E
:101D800015C5B091F6027B0F09F4ACCE7093F60244
:101D9000A9CE622CE4EEF2E050E0BCE87191852E11
:101DA00086945727562109F08B26D82CD694C72E17
:101DB000C694C824C62009F0DB263D2C3694972E05
:101DC000969496949D24962009F03B26E32CE69465
:101DD000672F6695669566956325662109F0EB2663
:101DE0004E2D4695272F22952F702E25262109F05E
:101DF0004B27842F8695372F3295369537703427A9
:101E0000362109F08B27982F9695172F1295169546
:101E1000169513701827162109F09B27592F5695F0
:101E2000771F7727771F7927762109F05B274E16D2
:101E30005F0609F0B3CFF091EC02F51709F4CBC4BB
:101E4000A091FD026A0E09F449CE6092FD0246CED1
:101E500010927A0350E0C8CC10927803D1CCB091A4
:101E60006503BB2309F4E7CC709100027F3F09F4BE
:101E7000E2CC73E070934A03B4C970E07DCA6FE0AE
:101E800032CE80915F0390E0D82ECC2420915E0367
:101E9000C20ED11CD0925103C09250033091560310
:101EA0003F5F30935603EACA6EE01DCE40914F0269
:101EB0004093CE0059E0D52ED092500292E09093FC
:101EC0004D0269CD80904F028092CE0039E0309370
:101ED0004C0242E040934D02F8CB10927A03D0932B
:101EE000790310927803D09377033BCC6DE0609335
:101EF000460324E0209349030E947803811153C9CB
:101F0000D093460335E0309349030E947803811152
:101F10004AC91092040340E2409346039092490359
:101F20000E94780381113FC991E490934603309257
:101F300049030E947803811136C980916C03909106
:101F40006D03A0916E03B0916F0380930003909393
:101F50000103A0930203B093030348E0742E709230
:101F600049030E94BD0581111EC9ECE2E0934603BE
:101F700059E0509349030E947803811114C980905D
:101F8000FF0280920503D09349030E94E703811169
:101F90000AC9ACE2A0934603FBE0F09349030E9418
:101FA0007803811100C9D090FE02D0920503BCE0F5
:101FB000B09349030E94E7038111F5C87CE2709356
:101FC00046036DE0609349030E9478038111EBC8DA
:101FD00020917B0330917C0340917D0350917E03DF
:101FE00020930003309301034093020350930303B3
:101FF0003EE0309349030E94BD058111D4C84CE2F4
:10200000409346039FE0909349030E947803811117
:10201000CAC88091700390917103A09172030A2E37
:10202000000CBB0B8093000390930103A093020369
:10203000B093030380E1809349030E94BD058111A1
:10204000B2C88CE280934603E1E1E09349030E9429
:1020500078038111A8C88091750390E0B0E0A0E0FA
:102060008093000390930103A0930203B0930303B2
:1020700052E1509349030E94BD05811194C8ACE21E
:10208000A0934603F3E1F09349030E947803811182
:102090008AC88091040290910502A0910602B0E0E6
:1020A0008093000390930103A0930203B093030372
:1020B000B4E1B09349030E94BD05811174C870E278
:1020C0007093460365E1609349030E947803811190
:1020D0006AC822E42093460336E1309349030E9404
:1020E0007803811160C8E090FD02E092050347E1AA
:1020F000409349030E94E703811155C89CE29093E5
:10210000460388E1809349030E94780381114BC8FC
:102110006090FC0260920503E9E1E09349030E94AC
:10212000E703811140C85CE250934603AAE1A09303
:1021300049030E947803811136C8C090FA02D090FA
:10214000FB02D092F902C092F802FBE1F09349033E
:102150000E94FE04811127C8BCE2B09346037CE1D3
:10216000709349030E94780381111DC87090F70293
:10217000709205036DE1609349030E94E7038111AA
:1021800012C82CE2209346033EE1309349030E949B
:102190007803811108C880900202809205034FE104
:1021A000409349030E94E70381110C94D30890E205
:1021B00090934603909349030E94780381110C94F5
:1021C000D30883E480934603E1E2E09349030E944D
:1021D000780381110C94D308D090F602D0920503B5
:1021E00052E2509349030E94E70381110C94D308F3
:1021F000ACE2A0934603F3E2F09349030E94780314
:1022000081110C94D308E090F502E0920503B4E24A
:10221000B09349030E94E70381110C94D3087CE238
:102220007093460365E2609349030E94780381112D
:102230000C94D3086090F3027090F4027092F9024B
:102240006092F80226E2209349030E94FE04811165
:102250000C94D3083CE23093460347E24093490391
:102260000E94780381110C94D308C090F202C092AE
:10227000050398E2909349030E94E70381110C94AF
:10228000D3088CE280934603E9E2E09349030E947D
:10229000780381110C94D3087090010270920503A9
:1022A0005AE2509349030E94E70381110C94D3082A
:1022B000A0E2A0934603FBE2F09349030E94780357
:1022C00081110C94D308B4E4B09346037CE270937C
:1022D00049030E94780381110C94D3088090F10285
:1022E000809205036DE2609349030E94E703811128
:1022F0000C94D3082CE2209346033EE2309349032A
:102300000E94780381110C94D308D0904B03D09293
:1023100005034FE2409349030E94E70381110C94A7
:10232000D3089CE29093460380E3809349030E9484
:10233000780381110C94D30860904C0370904D0386
:102340007092F9026092F802E1E3E09349030E947F
:10235000FE0481110C94D3085CE250934603A2E37F
:10236000A09349030E94780381110C94D308C09074
:102370005003D0905103D092F902C092F802F3E3D7
:10238000F09349030E94FE0481110C94D308BCE22F
:10239000B093460374E3709349030E94780381115C
:1023A0000C94D30860915803709159037093F9020B
:1023B0006093F80225E3209349030E94FE048111F3
:1023C0000C94D3083CE23093460346E34093490320
:1023D0000E94780381110C94D30880914E03909150
:1023E0004F039093F9028093F80297E39093490387
:1023F0000E94FE0481110C94D308ECE2E0934603A2
:1024000058E3509349030E94780381110C94D30838
:10241000E0905703E0920503A9E3A09349030E94CB
:10242000E70381110C94D308FCE2F0934603BAE36E
:10243000B09349030E94780381110C94D3087090E3
:102440005403709205037BE3709349030E94E703F2
:1024500081110C94D3086CE26093460310934903F6
:102460000E94780381110C94D308609052037090FD
:1024700053037092F9026092F8022DE3209349030E
:102480000E94FE0481110C94D3083CE23093460371
:102490004EE3409349030E94780381110C94D308C2
:1024A00080905503809205038FE3809349030E9437
:1024B000E70381110C94D3089CE290934603E0E477
:1024C000E09349030E94780381110C94D308D090C3
:1024D0000002D092050351E4509349030E94E703A0
:1024E00081110C94D308ACE2A0934603F2E4F0937C
:1024F00049030E94780381110C94D308C2B0C6FA34
:10250000EE24E0F8E0920503B3E4B09349030E949F
:10251000E70381110C94D30870E27093460364E4DE
:10252000609349030E94780381110C94D30825E439
:1025300020934603209349030E94780381110C9451
:10254000D30832B1329531703093050346E440939D
:1025500049030E94E70381110C94D3088CE2809315
:10256000460397E4909349030E94780381110C94E9
:10257000D30872B075FA662460F860920503E8E447
:10258000E09349030E94E70381110C94D3085CE2B5
:1025900050934603A9E4A09349030E947803811154
:1025A0000C94D308F1E080907A03811001C0F0E030
:1025B000F0930503BAE4B09349030E94E703811145
:1025C0000C94D3087CE2709346036BE46093490358
:1025D0000E94780381110C94D30821E0D0907803F5
:1025E000D11001C020E0209305033CE4309349035F
:1025F0000E94E70381110C94D3084CE240934603F8
:102600008DE4809349030E94780381110C94D308D0
:10261000C0907603C09205039EE4909349030E9404
:10262000E70381110C94D308E0E2E09346035FE4F2
:10263000509349030E94780381110C94D308AEE8AB
:10264000A0930503F0E5F09349030E94E70381118D
:102650000C94D308B0E2B093460371E5709349033C
:102660000E94780381110C94D308E0900403E09257
:10267000050362E5609349030E94E70381110C940E
:10268000D3082DE02093460333E5309349030E949D
:10269000780381110C94D308D093460344E540930A
:1026A00049030E947803882311F40C94A8080C9421
:1026B000D3085F3F09F4DEC89DC9EF3F11F40C94C5
:1026C000D80A31C8722D0C94BC0940915D0391EE7B
:1026D000940F9B33D8F420915F0330E0F22FEE2764
:1026E00070905E03E70DF11DF0935903E0935803DA
:1026F00048524093570350915603523039F4109288
:102700000002809155038F5F8093550380905C0396
:102710008092540380915B0390E0B82FAA27D09059
:102720005A03AD0DB11DB0935303A09352030C9403
:102730003E0ABF3F09F49EC872E070934D024DC936
:10274000FF3F11F40C94D80AB2E0B0934D020C9400
:10275000860B513009F454C089E72AC94091EE0232
:10276000442309F44FC0169A10920A020C94AF0B3E
:10277000D090EE02D09273030C94B10B3091EE0224
:10278000309303020C94B10B3130F1F146E8DAC812
:1027900080915D0390E0782E662460915C03660E64
:1027A000711C70924F0360924E0378CB109201021D
:1027B0007091F2027F5F7093F2028091DC0290E0F0
:1027C000F82FEE277090DB02E70DF11DF093F40275
:1027D000E093F30287C910920202E091F702EF5FE3
:1027E000E093F7028091E50290E0782E6624B091A4
:1027F000E4026B0E711C7092FB026092FA026EC9C9
:102800008AE7D6C81698B0CF45E89CC880937A036B
:10281000D09379031092780300CA1F921FB61F92BB
:1028200011242F932BB72F933F938F939F93EF9365
:10283000FF933091C6008091D202820D8F77E09194
:10284000D102E817A9F0F091D202EF2FF0E0EF5A91
:10285000FD4F30838093D202FF91EF919F918F9132
:102860003F912F912BBF2F911F901FBE1F90189546
:102870002091FE02220D2093FE023091FE023111C2
:10288000EBCF8091FE0282198093FE02E5CF1F926A
:102890001FB61F9211242F932BB72F933F938F9323
:1028A0009F93EF93FF933091CE0080913F02820D72
:1028B0008F71E0913E02E817A9F0F0913F02EF2FEF
:1028C000F0E0E25EFD4F308380933F02FF91EF9195
:1028D0009F918F913F912F912BBF2F911F901FBEE2
:1028E0001F9018952091F102220D2093F102309152
:1028F000F1023111EBCF8091F10282198093F10244
:10290000E5CF01E0189597FB072E16F4009406D04A
:1029100077FD08D013D007FC05D03EF49095819543
:102920009F4F0895709561957F4F0895EE0FFF1F9B
:10293000881F8BBF0790F691E02D1994AA1BBB1B33
:1029400051E107C0AA1FBB1FA617B70710F0A61BAF
:10295000B70B881F991F5A95A9F780959095BC01D0
:10296000CD010895F894FFCFF800FC000001EE00BF
:10297000F4000801DE01E401EA01F001D501B9012A
:10298000FC0102020802CC01F6010E024D0A5D0AAA
:10299000670A700A790A830A8D0A960A350B1F0B9B
:1029A0000A0BF70AE30ACF0A600B4D0BBC08D008EC
:1029B0007C0F850F900F990FB10FBB0FC50FCF0F75
:1029C000DA0FE40FFB0F05101D1027103B10451008
:1029D0005B1065106F107A1084108F109910A8107A
:1029E000B210BD10C710D210DC10E710F310FE10AB
:1029F0000A111511251130113C11471153115E11A7
:102A00006911751180118C119711A711B211C211A2
:102A1000CD11DD11E811F81103120F121A1226124E
:102A2000301240124B12571262126E127912871234
:102A300092129C12A912B412C212CD12DD12E81227
:102A4000F81203130F131A13251330133C134713F3
:102A50005113A808A808A808A808A808A808A80842
:102A6000A808A808A808A808A808A808A808A808E6
:102A7000A808A808A808A808A808A808A808A808D6
:102A8000A808A808A808A808A808A808A808A808C6
:102A9000A808A808A808A808A808A808A808A808B6
:102AA000A808A808A808A808A808A808A808A808A6
:102AB000A808A808A808A808A808A808A808A80896
:102AC000A808A808A808A808A808A808A808A80886
:102AD000A808A808A808A808A808A808A808A80876
:102AE000A808A808A808A808A808A808A808A80866
:102AF000A808A808A808A808A808A808A808A80856
:102B0000A808A808A808A808A808A808A808A80845
:102B1000A808A808A808A808A808A808A808A80835
:102B2000A808A808A808A808A808A808A808A80825
:102B3000A808A808A808A808A808A808A808A80815
:102B4000A808A808A808A808A808A808A808A80805
:102B5000A808A808A808A808A808A808A808A808F5
:102B6000A808A808A808A808A808A808A808A808E5
:102B7000A808A808A808A808A808A808A808A808D5
:102B8000A808A808A808A808A808A808A808A808C5
:102B9000A808A808A808A808A808A808A808A808B5
:102BA000A808A808A808D308FE0C080D180D210DC8
:102BB0002B0D350D3F0D480D520D5C0D660DC90EE8
:102BC000690E8E0C780C650C520C3D0C310CC60C49
:022BD000AB0C4C
:102BD200FFFFFFFFE0A5013C3C0AFFFFFF3031325F
:0E2BE200333435363738396162636465660016
:00000001FF
