:1000000071C000008FC000008DC000008BC00000D8
:1000100089C0000087C0000085C0000083C00000C8
:1000200081C000007FC000007DC000007BC00000D8
:1000300079C0000077C0000075C0000073C00000E8
:1000400071C000000C9470146DC000006BC0000003
:1000500069C0000067C0000065C0000063C0000008
:1000600061C000000C94FC135DC000005BC0000088
:1000700059C0000057C0000055C0000053C0000028
:1000800051C000004FC000004DC000004BC0000038
:100090000C94361447C0000045C0000043C0000067
:1000A00041C000003FC000003DC000003BC0000058
:1000B00039C0000037C0000035C0000033C0000068
:1000C00031C000002FC000002DC000002BC0000078
:1000D00029C0000027C0000025C0000023C0000088
:1000E00021C0000011241FBECFEFD1E2DEBFCDBF83
:1000F00000E00CBF12E0A0E0B2E0E0EBFBE200E0C9
:100100000BBF02C007900D92AE31B107D9F723E0C3
:10011000AEE1B2E001C01D92AF38B207E1F7B1D550
:100120000C94A1146DCF9091D80291111DC0309103
:10013000D70231111FC045E14A95F1F75091D8021D
:10014000511134C06091D70261112BC070E37A95D0
:10015000F1F7A091D802A1111CC061110EC08CED65
:1001600090E00197F1F70895089A10983091D7021E
:10017000332309F3099A1198DECF019BF0CFE09168
:1001800046028E0F809346028CED90E00197F1F7C6
:100190000895009BE2CFB0914702B80FB093470299
:1001A000DCCF0998119A6091D702D0CF0898109AA5
:1001B000C9CF80914802893070F4823008F43DC084
:1001C0008350863008F5E82FF0E08827ED55FB4E88
:1001D0008F4F0C9485148F3F81F5089580E2A3DF43
:1001E00087E080934802089580E49DDF88E0F9CF9E
:1001F00084E099DF84E0F5CF88E095DF85E0F1CFFA
:1002000080E191DF86E0EDCF82E08DDF83E0E9CF12
:1002100080E889DF8091D50290E0FC01EE51FD4F2E
:1002200030914702308387529D4F40914602FC0136
:1002300040831092480280E0089510924702109285
:10024000460281E070DF82E0CCCF9091D80291111C
:1002500024C03091D70231111DC05091D80288239B
:1002600059F085E18A95F1F7511126C04091D702E6
:1002700041111FC05091D802E0EFF0E03197F1F743
:10028000511114C06091D70261110AC075E37A95CB
:10029000F1F70895099A1198E0CF089A1098D9CFEC
:1002A0000998119A75E37A95F1F708950898109ACC
:1002B000E9CF0998119ADECF0898109A4091D70299
:1002C0004423C1F2F6CF80914A028530A1F1B8F4FF
:1002D000833009F457C08430C1F4E0914902E93019
:1002E00028F5E23008F4D8C0E350E63008F093C0B7
:1002F000F0E08827E755FB4E8F4F0C94851486302D
:10030000F9F08F3F09F08CC00895823009F088C061
:10031000A8E6B6E01197F1F76091D7029091D80264
:10032000692B71F510924A0280E00895EF3F09F0C1
:10033000B3C084E008956090D60286E080934A02BC
:10034000E0914902E93070F4E23008F4AAC0E350C9
:10035000E63008F05BC0F0E08827E155FB4E8F4F98
:100360000C948514EF3F09F09CC086E00895862D1B
:1003700080786BDF1092490285E080934A020895ED
:1003800083E0FBCF8CEC682E44E040934A02A5CF7B
:10039000862D80725ADF37E03093490286E0089557
:1003A000862D807452DF58E05093490284E008950E
:1003B000862D84704ADF54E0F7CF862D887045DFA4
:1003C00055E0F2CF862D807140DF56E0EDCF862DCF
:1003D00080723BDF57E0E8CF862D807436DF38E04F
:1003E000DBCF862D847031DF34E0D6CF862D887048
:1003F0002CDF35E0D1CF862D807127DF36E0CCCFE2
:10040000862D807822DF109249028CCF862D827053
:100410001CDF33E0C1CF862D827017DF53E0C4CFDD
:100420007091D802711131C0B091D702BB2309F489
:1004300079CF099A119880E699E00197F1F7F09148
:10044000D802F11133C04091D702411141C0A0E45C
:10045000B1E01197F1F73091D80231112AC0411162
:1004600002C082E08ACF70B1E1E0B72FB27071FDB7
:10047000E0E0E093D702BB23A1F38091F702820D65
:1004800081F38093F70282E078CF089A1098E09188
:10049000D702EE2381F2CDCF862D8170D6DE52E0D9
:1004A00083CF862D8170D1DE32E076CF0898109A06
:1004B000CACF50B1517061E065276093D8025523CF
:1004C00071F29091FE02920D51F29093FE02C7CF0D
:1004D0000998119A4091D702BACF80914502843091
:1004E00009F43FC078F4823009F494C0833009F0F5
:1004F0008CC0E091D102E23061F0EF3F09F0D1C051
:1005000083E00895853009F462C08F3F09F07DC013
:100510000895F091D0028091CF02F81789F3E0910D
:10052000CF02F0E0E15BFD4F50815093D302609128
:10053000CF026F5F6F776093CF021092D10270EDA0
:10054000750F7A3008F09FC0A091EB02BA2FBB0F55
:10055000BB0FBA0FBB0FB70FB093EB02E4E0E09311
:100560004502F091D102F23009F04AC04091D00228
:100570008091CF02481709F446C0E091CF02F0E025
:10058000E15BFD4F60816093D3027091CF027F5F8A
:100590007F777093CF021092D102A0EDA60FAA3000
:1005A00008F071C0B091EB02B93130F0B93109F007
:1005B0006AC0663308F067C0EB2FEE0FEE0FEB0F4B
:1005C000EE0FEA0FE093EB02F5E0F0934502409165
:1005D000D102423041F45091D0028091CF025813A1
:1005E00042C085E008954F3FE1F362E09091D00270
:1005F0003091CF02391337C06093D10285E0F2CF3A
:10060000FF3F09F044C084E008951092EB0282E0BD
:10061000809345028091D102823029F08F3F09F00A
:100620004AC082E008953091D0029091CF023917EC
:1006300009F46ECFE091CF02F0E0E15BFD4F7081F5
:100640007093D302A091CF02AF5FAF77A093CF0298
:100650001092D10270537A30B0F47093EB02B3E091
:10066000B093450246CFE091CF02F0E0E15BFD4F51
:1006700070817093D302A091CF02AF5FAF77A09348
:10068000CF021092D1021092450280E0089552E00C
:100690009091D0023091CF0239136FCF5093D10295
:1006A000B2CF42E09091D0023091CF02391337CFD0
:1006B0004093D10225CF42E05091D0026091CF0209
:1006C0006513B8CF4093D102ACCF80914202823003
:1006D00031F08F3F09F4089582E080934202309117
:1006E000C00035FD02C082E00895712F1093C6004E
:1006F00040910603922D642F66954127422111F007
:100700005CE86527A62FA695B72FB695B627B9231F
:1007100011F0ECE8AE27FA2FF695872F869586958F
:100720008A27892311F03CE8F3275F2F5695472F3E
:100730004695469546954F27492311F06CE8562774
:10074000A52FA695B72FB295BF70B527B92311F085
:10075000ECE8AE27FA2FF695872F8295869587705D
:100760008A27892311F03CE8F3275F2F5695472FFE
:1007700042954695469543704F27492311F06CE802
:100780005627A52FA695771F7727771F75277923DB
:1007900011F07CE8A727A09306031092420280E0A4
:1007A000089590914102892F933009F47DC09F3FB5
:1007B00009F479C0923081F0E32D332009F470C040
:1007C000E03108F4ECC0E295EF70F0E0E35FFD4F3C
:1007D000108142E04093410250914202523009F4AC
:1007E00075C05F3F09F06FC082E00895712F1093CC
:1007F000C60050910603B22D652F669551275221F0
:1008000011F0FCE86F27962F9695372F36953627EF
:100810003B2311F0ACE89A27E92FE695872F8695C0
:10082000869589278B2311F04CE8E4275E2F569597
:10083000672F6695669566956E276B2311F0FCE829
:100840005F27952F9695372F32953F7035273B239D
:1008500011F0ACE89A27E92FE695872F82958695C7
:10086000877089278B2311F04CE8E4275E2F56957B
:10087000672F62956695669563706E276B2311F0FE
:10088000FCE85F27952F9695771F7727771F7527A9
:100890007B2311F07CE89727909306031092420285
:1008A0001092410280E0089580914202823031F43A
:1008B0004091C00045FD9ACF83E008958F3F09F035
:1008C0006AC083E0089562E0609342027091C000C4
:1008D00075FF8ACFA12F1093C600B0910603E22DB9
:1008E000FB2FF695B127B22111F09CE8F9278F2F45
:1008F00086953A2F36953F273E2311F04CE8842702
:10090000682F66955A2F5695569558275E2311F0F5
:100910007CE86727B62FB695FA2FF695F695F695EB
:10092000F627FE2311F09CE8B9278B2F86953A2FE6
:1009300032953F703B273E2311F04CE88427682F07
:1009400066955A2F52955695577058275E2311F089
:100950007CE86727B62FB695FA2FF295F695F695AF
:10096000F370F627FE2311F09CE8B9273B2F36954C
:10097000AA1FAA27AA1FAB27AE2311F0ACE83A277B
:1009800030930603E32DEF70F0E0E35FFD4F10813D
:10099000E3E0E093410282E08093420289CF8091BC
:1009A0004202EF70F0E0E35FFD4F108133E03093DF
:1009B00041027CCF80914302843089F0D0F48230B0
:1009C000B9F1833059F581DE811145C0E32DEF7017
:1009D000F0E0E35FFD4F108164E0609343027091AB
:1009E0004202723059F4B091C000B5FD38C084E0C5
:1009F0000895853069F08F3F89F408957F3FB9F3FA
:100A0000A2E0A0934202EFCF392E35E030934302AB
:100A1000C8DE882309F47DC085E008959091FA022C
:100A20008091FB02382E882379F342E04093430201
:100A3000B8DE811112C0E091FA023E2EE295EF700D
:100A4000F0E0E35FFD4F108153E0509343023DDE41
:100A5000882309F4BBCF83E0089582E00895E12F55
:100A60001093C600F0910603922D8F2F8695F127E3
:100A7000F22111F03CE88327582F56954E2F4695CA
:100A80004827492311F06CE85627752F7695AE2F2D
:100A9000A695A695A527A92311F0BCE87B27F72FDB
:100AA000F6958E2F8695869586958727892311F052
:100AB0003CE8F3276F2F66955E2F52955F705F2796
:100AC000592311F04CE86427762F7695AE2FA29526
:100AD000A695A770A627A92311F0BCE87B27F72FBE
:100AE000F6958E2F82958695869583708727892324
:100AF00011F03CE8F3276F2F6695EE1FEE27EE1FEF
:100B0000EF27E92311F0ECE86E27609306031092BB
:100B100042021092430280E00895809144028530A1
:100B2000A9F028F5833009F449C0843081F5CDDD82
:100B3000811154C0E091FA023E2EE295EF70F0E090
:100B4000E35FFD4F108175E070934402BEDD8111BB
:100B500055C0E32DEF70F0E0E35FFD4F108196E0AC
:100B600090934402B2DD882371F086E008958730C7
:100B700009F43FC08F3F09F40895863009F042C060
:100B8000A4DD8111F2CF1092440280E008958230FA
:100B9000C9F510DF811134C040910203E0910303D5
:100BA0004093FA02E093FB023E2EE295EF70F0E0F4
:100BB000E35FFD4F108153E05093440286DD8111C5
:100BC0000FC0E32DEF70F0E0E35FFD4F108164E0B4
:100BD000609344027ADD882309F4ACCF84E0089561
:100BE00083E008959093FB028093FA0287E080935C
:100BF0004402E0DE882339F287E0089585E0089515
:100C000082E008958091020390910303A091040370
:100C1000B0910503AD0166277727FA01EF2B11F399
:100C20005093FB024093FA0232E030934402B1CF7A
:100C300080914002823031F08F3F09F4089582E0C4
:100C40008093400290913F0230913E02931302C084
:100C500082E00895E0913E02F0E0E25EFD4F4081C7
:100C60004093610350913E025F5F5F7150933E027B
:100C700060916003640F609360031092400280E013
:100C8000089522242394312C412C512C612C00E016
:100C900010E020E09D98A59A6A98729A6B98739AD2
:100CA0006C98749A6D98759A6E98769A6F98779AF0
:100CB000809101018E7F80930101309102013160AA
:100CC00030930201409101014D7F40930101509109
:100CD0000201526050930201609101016B7F6093A9
:100CE0000101709102017460709302019091010101
:100CF000977F90930101A0910201A860A093020147
:100D0000B0910101BF7EB0930101C0910201C061A9
:100D1000C0930201D0910101DF7DD0930101E091E8
:100D20000201E062E0930201F0910101FF7BF09388
:100D30000101809102018064809302012098289A29
:100D40002198299A22982A9A23982B9A24982C9AA7
:100D500025982D9A26982E9A309101013F7730934D
:100D60000101409102014068409302019B98A39ABF
:100D70009C98A49A50910A015E7F50930A01609159
:100D80000B01616060930B0170910A017D7F70938C
:100D90000A0190910B01926090930B01A0910A01BE
:100DA000AB7FA0930A01B0910B01B460B0930B012B
:100DB000C0910A01C77FC0930A01D0910B01D8608E
:100DC000D0930B01E0910A01EF7EE0930A01F091CC
:100DD0000B01F061F0930B0180910A018F7D8093EC
:100DE0000A0130910B01306230930B0140910A01EE
:100DF0004F7B40930A0150910B01506450930B01BB
:100E000060910A016F7760930A0170910B0170681D
:100E100070930B015098589A5198599A54985C9A2B
:100E200055985D9A56985E9A57985F9A9898A09AA6
:100E30009998A19A3898409A3998419A3A98429A42
:100E40003B98439A3C98449A3D98459A3E98469AD6
:100E50003F98479A909104019E7F90930401A0913E
:100E60000501A160A0930501B0910401BD7FB0937D
:100E70000401C0910501C260C0930501D091040135
:100E8000DB7FD0930401E0910501E460E09305016C
:100E9000F0910401F77FF0930401809105018860CF
:100EA00080930501309104013F7E3093040140910D
:100EB0000501406140930501509104015F7D50930D
:100EC0000401609105016062609305017091040165
:100ED0007F7B7093040190910501906490930501CC
:100EE0009A98A29A0F98179A0B98139A0A98129A9E
:100EF000A0910401AF77A0930401B0910501B068FF
:100F0000B0930501C0910701CF77C0930701D0913D
:100F10000801D068D0930801E0910701EF7BE093CE
:100F20000701F0910801F064F09308018091070136
:100F30008F7D809307013091080130623093080162
:100F4000409107014F7E4093070150910801506185
:100F50005093080160910701677F609307017091CA
:100F60000801786070930801909107019B7F90932E
:100F70000701A0910801A460A0930801B0910701A6
:100F8000BD7FB0930701C0910801C260C093080102
:100F9000D0910701DE7FD0930701E0910801E16065
:100FA000E093080187988F9A86988E9A85988D9AF3
:100FB00084988C9A83988B9A82988A9A8198899A35
:100FC0000C9A14980D9A15980E9A1698279AF8E18B
:100FD00089E20FB6F894A895F09360000FBE809355
:100FE00060000898109A0998119A30E430937C00B8
:100FF00047E840937A0050917A00506450937A0009
:101000001092CD006FEC6093CC0072E07093C8003A
:1010100096E09093CA00A8E9A093C9001092C50079
:101020006093C4007093C0009093C200A093C1006D
:10103000C7EAD1E6D0938900C0938800B0916F00D1
:10104000B260B0936F00D0918100DB60D0938100DB
:101050007894C3E0D0E080918B0390918C03A091B1
:101060008D03B0918E030196A11DB11D2111B5C054
:1010700080938B0390938C03A0938D03B0938E0386
:10108000A89530917A0036FD21C0C0907800D090AC
:10109000790050917A00506450937A0080916503F2
:1010A00090916603A09167038C0D9D1DA11D8093F7
:1010B000650390936603A0936703A0916303B091C7
:1010C00064031196B0936403A0936303E0916203F9
:1010D000EB3070F4E23008F4C0C1E350E83008F0BF
:1010E000BFC1F0E08827EB54FB4E8F4F0C94851462
:1010F000EF3F09F0B2C1F0914903F43009F4FDC2A9
:1011000008F062C0F23009F049C0609168036623BC
:1011100009F4F7C6EEEFE00FEE3F08F42DC2909011
:101120004803A09047039A1409F426C78090480307
:1011300080914703881609F413C71EE302E0C5DA5D
:10114000811111C0E0914703F0E0E95FFC4FB081ED
:101150003B2EF0914703FF5FFF73F093470303E0DB
:1011600020DB882319F38091ED02823009F02EC232
:10117000A091D402A43009F4BBC408F012C260915B
:10118000D102A23009F46AC4A33009F064C4623009
:1011900009F48CC46F3F09F40AC285C4F33009F026
:1011A000F9C1E0914B02EB3008F0EFC1E23008F4F6
:1011B00049C3E350E83008F04BC3F0E08827E3541C
:1011C000FB4E8F4F0C948514FF3F09F0E3C1EEEF07
:1011D000E00FEE3F08F0A3CFCFC120E0809387035C
:1011E00090938803A0938903B0938A0310928B0392
:1011F00010928C0310928D0310928E03E0910C02DA
:10120000F1E0FE0FEF3F09F4B5C1F0930C02F436A4
:1012100008F0B0C130910B0241E0430F3F3F09F4A9
:10122000A7C140930B02443608F0A2C150910A02B4
:1012300061E0650F5F3F09F499C160930A0264366B
:1012400008F094C1709109029FEF970F713009F473
:101250000AC2909309023091840380900402909016
:101260000502A0900602AA2DC4010196A11D8115B8
:101270004FE294074DE0A40718F080E090E0A0E072
:10128000E32F722D311115C0C0908203C1107BC1B4
:1012900071E06C01EA2E60E4C61A6EE7D60A65E0DA
:1012A000E60AB0E4CB16BEE7DB06B5E0EB0608F0D5
:1012B0006AC1409103024F3F79F1C0907C03D12C69
:1012C000E12CED2CDC2CCC2450E060E0642F552781
:1012D0004427C40ED51EE61EB0917B03CB0ED11C55
:1012E000E11C6E2DA601481959096A09409378033B
:1012F0005093790360937A03F0917D03FA3060F4A0
:101300004A01A62EB4E08B0E911CA11CB9E08B16ED
:101310009104A10408F021C43FEF309303028093AD
:10132000040290930502A09306029556A44051E052
:10133000803E4AE0940746E0A40708F050E050934E
:101340007703C0907403D0907503E0907603C114C6
:10135000D104E10409F460C161E0C61AD108E108D2
:10136000C0927403D0927503E092760360E0772315
:1013700009F463C121106BC3149810920C021598E4
:1013800010920B02169B6BC1662309F455C3169A83
:1013900010920A02409170035091710360917203A0
:1013A000709173034F5F5F4F6F4F7F4F4093700398
:1013B000509371036093720370937303E0906F0313
:1013C000EE2009F442C12F9A91E090906F039110A2
:1013D00090E090936F03A0906E03AA2019F0A218DA
:1013E000A0926E03A22DB0910202B20D11F0B09343
:1013F0000202F0910102FA0F11F0F09301028090C5
:101400000002A80D11F0A093000260916A03709190
:101410006B0380916C0390916D03611571058105DB
:10142000910509F414C16150710981099109609312
:101430006A0370936B0380936C0390936D037091B8
:101440006803772309F41CCE71507093680318CE9B
:10145000F0914A03FF5FF0934A0342E04093620336
:10146000E7DB811148CEB0916103BF3FB1F7109225
:10147000600393E090936203DBDB81113CCEB0917B
:101480006103B93721F0FCE7FB0FF33070F7B0933D
:101490005F03E4E0E0936203CBDB81112CCED090BC
:1014A0006103D0925E0365E060936203C1DB81114A
:1014B00022CEE0906103E0925D0376E070936203D8
:1014C000B7DB811118CE9090610390925C0337E0F6
:1014D00030936203ADDB81110ECEA0906103A09228
:1014E0005B0358E050936203A3DB811104CE80902C
:1014F000610380925A0389E08093620399DB811132
:10150000FACDC0906103C0925903AAE0A093620390
:101510008FDB8111F0CD4091610390916003842FA6
:10152000891B80936003481393CFE0915F03E638F3
:1015300011F40C943013E43809F4F5C4E53811F4CF
:101540000C948B13E93709F088CF60915E0361300A
:1015500009F083CF10926903A0914B03B0914C0323
:101560001196B0934C03A0934B0377CF16986ACE95
:1015700015985CCE14984ECEF0E08827EB53FB4EC6
:101580008F4F0C94851470E094CEEF3F09F05AC150
:10159000E111C0CD43E04093680392E0909349038A
:1015A000B9CDA53009F4B5C2AF3F09F052C2E52D5F
:1015B000E031A0F4E230A8F0E350ED30E0F4F0E0E8
:1015C0008827ED53FA4E8F4F0C9485148F3F79F393
:1015D000A091D40262E06093ED02CCCDEF3F09F41C
:1015E0003ACD71E07093D8027093D70294E490934F
:1015F000D60252E0552E0E94630181112ACDA0909F
:10160000D8028090D702A82809F410C23AE030939B
:101610006E0343E0542E1DCD60918603662309F4CA
:10162000A6CE803E9A40A64008F0A0CE61E0D090C1
:101630008003DD2009F49BCE99CE149810920C0201
:10164000222009F49CCE159A9BCE2F98BDCEE1E0C6
:10165000E093690360E877E986E090E0E8CE611105
:1016600096CE169895CEAAE0A0930902B0910802F2
:101670008FEF8B0FB13009F0DCC1ECE3E09308028F
:1016800080908603882041F0F0918503F150F0931B
:101690008503FF2309F480C330918403332341F091
:1016A00040918303415040938303442309F47DC355
:1016B00090908203992041F05091810351505093B2
:1016C0008103552309F46EC3A0908003AA2041F042
:1016D00060917F03615060937F03662309F45FC3C9
:1016E000709107029FEF970F713009F45EC29093DB
:1016F0000702B3CD34E030934903E0914E02EB3062
:1017000060F4E23068F0E350E83080F4F0E08827DD
:10171000E053FA4E8F4F0C948514EF3F09F438CF05
:101720005FEF50934D0242E040934E02942D923071
:1017300009F0CAC78090C80085FE02C00C94EF1360
:1017400041107DC081E080934D02E3E0E0934E02C2
:10175000B42DB23009F076C7E090C800E5FE02C0B3
:101760000C94E21341106BC0F0914C02F111B8C718
:101770001092550364E860934D02A4E0A0934E02DA
:10178000742D723009F4A7C37F3F09F0A2C3411042
:1017900056C010924D0295E090934E02842D8230F7
:1017A00009F481C38F3F09F07CC3411048C0E6E0D3
:1017B000E0934E02B42DB23009F45DC3BF3F09F08F
:1017C00058C341103CC0F7E0F0934E02642D6230E4
:1017D00009F42DC36F3F09F028C3411030C058E011
:1017E00050934E02442D423009F409C34F3F09F093
:1017F00004C3411024C0E9E0E0934E02B42DB2309E
:1018000009F4E5C2BF3F09F0E0C2411018C0F091F1
:101810004C02FF2309F483C3F13009F4B4C769E72C
:1018200060934D02AAE0A0934E02742D723009F429
:10183000C2C27F3F09F0BDC2442009F4A6C7E091AF
:101840004E02A6CE4FEF40934D0292E090934B0292
:10185000842D823009F03EC78090C80085FE01C00B
:10186000C5C7411070C0F1E0F0934D0263E0609392
:101870004B02A42DA23009F0EBC6D090C800D5FED3
:1018800001C0A7C741105FC079E770934D0234E0F3
:1018900030934B02542D523009F429C35F3F09F0B5
:1018A00024C3411050C010924D0295E090934B021A
:1018B000842D823009F403C38F3F09F0FEC241102A
:1018C00042C010924D02F6E0F0934B02642D62305C
:1018D00009F4DDC26F3F09F0D8C2411034C077E08F
:1018E00070934B02342D323009F4B9C23F3F09F0F6
:1018F000B4C2411028C048E040934B02942D92306E
:1019000009F4A1C29F3F09F09CC241101CC0E9E04C
:10191000E0934B02B42DB23009F47DC2BF3F09F011
:1019200078C2411010C076E870934D023AE03093CF
:101930004B02542D523009F456C25F3F09F051C298
:10194000442009F42FC7E0914B0222CEC0916E03D0
:10195000C1117FCBDEEBD093D60234E0532E0E9430
:101960006301811176CBC090D8028090D702C8283D
:1019700009F45CC01092D50295E0592E0E94D9005E
:10198000811167CB31E03093D50286E0582E0E945A
:10199000D90081115ECB52E05093D502D7E05D2E85
:1019A0000E94D900811155CBA3E0A093D502C8E0D5
:1019B0005C2E0E94D90081114CCB94E09093D5020B
:1019C000B9E05B2E0E94D900811143CBB5E0B09302
:1019D000D502AAE05A2E0E94D90081113ACBF6E036
:1019E000F093D502FBE05F2E0E94D900811131CB2C
:1019F00067E06093D502ECE05E2E0E94D900811171
:101A000028CB88E08093D5027DE0572E0E94D90034
:101A100081111FCBD090D8026EE0562ED11019CB79
:101A2000D091D7024FE0542ED11113CB80E1582E24
:101A300010CB809308020FCC80EA9CE8A0E0809352
:101A4000740390937503A09376031698A1CC149A0F
:101A500094CC6091D102E2E0E093D402623031F0A4
:101A60006F3F09F4A4CD42E04093D1027091D002BF
:101A70003091CF02731709F49ACDE091CF02F0E0D4
:101A8000E15BFD4F50815093D3029091CF029F5F55
:101A90009F779093CF021092D10260E05C33D9F629
:101AA000A3E0A093D402B2E0B093D102D090D002D0
:101AB000E090CF02DE1409F47ACDE091CF02F0E09D
:101AC000E15BFD4F90809092D302F091CF02FF5FD7
:101AD000FF77F093CF021092D10260E08FEB890D77
:101AE0008A3108F0B8CF9092EC02E4E0E093D4029F
:101AF0000E946D02811161C0A090D302C090EC02DF
:101B0000AC10A7CF8090EB028092D20245E04093C8
:101B1000D4020E946D02811150C07091D3027E33B5
:101B200009F097CF3091D2025091EB02351391CF4B
:101B30001092D402A0E09091EC02963409F4E4C52E
:101B400008F040C0923409F4D9C5933409F05BC061
:101B50009090EB02909203023DCD31117FC58090B1
:101B60008203811011C0E1E04C01AA2E30E4831AF7
:101B70003EE7930A35E0A30AB0E48B16BEE79B0666
:101B8000B5E0AB0608F0CDC17E1741F04D5E5F4F6A
:101B90006F4F47325105610508F4BECBFF5FF093EC
:101BA0007D037E2FAE2DC601B7CBACE3A093070219
:101BB00010927E0310927D0350CBA091D402A1110C
:101BC000F6CCB9CF973409F490C59C3409F002CD16
:101BD0006091EB02662309F4B9C180917E038A30DB
:101BE00008F0F8CC613009F4E5C510928403EAE00E
:101BF000E093830341E040938203E09381038F5F8E
:101C000080937E03E7CC913409F0E4CCA090EB0202
:101C1000A0927B03DFCC922CE9EDF2E0E12C5CE8B2
:101C2000A1917E2D7695EA26E92009F07527A72E49
:101C3000A6948A2E86948726892009F0A5269A2DB7
:101C400096953A2F369536953A25392109F09527FC
:101C5000B92FB6956A2F66956695669569276921AD
:101C600009F0B5278B2F86954A2F42954F704B2749
:101C7000492109F08527D82ED694CA2FC295C6953A
:101C8000C770C827C92109F0D526CD2CC694DA2FF4
:101C9000D295D695D695D370DD25D92109F0C526E4
:101CA000EC2CE694AA1FAA27AA1FAC25A92109F0AB
:101CB000E52672E0E13EF70709F0B2CFF091E102CC
:101CC000FE1509F436C5E091F8029E0E09F4AECE79
:101CD0009092F802ABCEE22CE2EEF2E0D12CCCE80E
:101CE000D1917D2D7695DD26DE2009F07C27972E7B
:101CF00096944D2F469547274E2109F09C26A92CF6
:101D0000A694CD2EC694C694C924CE2009F0AC2644
:101D10008A2C86943D2F3695369536953A253E2168
:101D200009F08C26582D5695AD2FA295AF70A82599
:101D3000AE2109F05C27952F9695BD2FB295B695EB
:101D4000B770B527BE2109F09C27692F66958D2FA6
:101D5000829586958695837089278E2109F06C2758
:101D6000D62ED694DD1FDD27DD1FD627DE2109F014
:101D7000DC264AEE52E04E175F0709F0B1CFF09132
:101D8000EA02FD1509F4EAC4E091FF02EE0E09F43F
:101D900047CEE092FF0244CE109286037DCC109293
:101DA00080039ECC109282038FCC1092840330E08B
:101DB0007FCC72E0472E9090C80095FE3DCDA0905C
:101DC0004D02A092CE00412C37CDE2E04E2ED090B5
:101DD000C800D5FE1ACDC0904D02C092CE00412C55
:101DE00014CD52E0452ED090C800D5FEA9CDC090AC
:101DF0004D02C092CE00412CA3CDF2E04F2E909127
:101E0000C80095FFF6CC80914D028093CE00412C06
:101E1000F0CC62E0462EF091C800F5FF82CD6091D3
:101E20004D026093CE00412C7CCDA2E04A2EA091C1
:101E3000C800A5FFD2CC70914D027093CE00412C0A
:101E4000CCCC72E0472EA090C800A5FE5ECD80915C
:101E50004D028093CE00412C58CDE2E04E2EE09012
:101E6000C800E5FE46CD50914D025093CE00412C66
:101E700040CDB2E04B2EE090C800E5FEA2CC9090A1
:101E80004D029092CE00412C9CCCF2E04F2EA091BE
:101E9000C800A5FF22CDD0904D02D092CE00412C9B
:101EA0001CCD82E0482E8090C80085FE7ECCD0906C
:101EB0004D02D092CE00412C78CCA2E04A2E8090E8
:101EC000C80085FEFCCCE0914D02E093CE00412C91
:101ED000F6CC92E0492E3091C80035FF58CC509195
:101EE0004D025093CE00412C52CCB2E04B2E90903C
:101EF000C80095FED6CCA0904D02A092CE00412CF9
:101F0000D0CCA0916903AA2309F4F4CB709100020C
:101F10007F3F09F4EFCB53E05093490342C96BE78D
:101F20007FCCE0E031CE80915E0390E0D82ECC24CF
:101F3000E0905D03CE0CD11CD0925003C0924F03B1
:101F4000709155037F5F7093550387CA1092840385
:101F50007AE07093830310928203709381033ACBEB
:101F60001DE004E00E9465038111FDC81AE005E050
:101F70000E9465038111F7C81092060310E206E083
:101F80000E9465038111EFC811E407E00E94650318
:101F90008111E9C86091700370917103809172039F
:101FA000909173036093020370930303809304037F
:101FB0009093050308E00E948D058111D4C81CE2AE
:101FC00009E00E9465038111CEC8E09101033E2E15
:101FD0000AE00E94D1038111C6C81CE20BE00E94F6
:101FE00065038111C0C8B09100033B2E0CE00E9434
:101FF000D1038111B8C81CE20DE00E946503811174
:10200000B2C8409187035091880360918903709111
:102010008A03409302035093030360930403709375
:1020200005030EE00E948D0581119DC81CE20FE0A2
:102030000E946503811197C880917803909179037C
:10204000A0917A030A2E000CBB0B8093020390939D
:102050000303A0930403B093050300E10E948D05E0
:10206000811181C81CE201E10E94650381117BC8D6
:1020700080917D0390E0B0E0A0E080930203909314
:102080000303A0930403B093050302E10E948D05AE
:10209000811169C81CE203E10E946503811163C8D4
:1020A0008091040290910502A0910602B0E0809315
:1020B000020390930303A0930403B093050304E188
:1020C0000E948D0581114FC810E205E10E94650351
:1020D000811149C812E406E10E946503811143C8D9
:1020E0003090FF0207E10E94D10381113CC81CE23D
:1020F00008E10E946503811136C83090FE0209E1B3
:102100000E94D10381112FC81CE20AE10E946503DD
:10211000811129C8A091FC02B091FD02B093FB028D
:10212000A093FA020BE10E94DA0481111CC81CE2A0
:102130000CE10E946503811116C83090F9020DE18F
:102140000E94D10381110FC81CE20EE10E946503B9
:10215000811109C8309002020FE10E94D103811160
:1021600002C810E200E20E94650381110C94B308DA
:1021700013E401E20E94650381110C94B3083090CE
:10218000F80202E20E94D10381110C94B3081CE210
:1021900003E20E94650381110C94B3083090F702AA
:1021A00004E20E94D10381110C94B3081CE205E201
:1021B0000E94650381110C94B308C090F502D09081
:1021C000F602D092FB02C092FA0206E20E94DA0402
:1021D00081110C94B3081CE207E20E94650381118F
:1021E0000C94B3083090F40208E20E94D1038111EC
:1021F0000C94B3081CE209E20E94650381110C945F
:10220000B308309001020AE20E94D10381110C94BC
:10221000B30810E20BE20E94650381110C94B3082D
:1022200014E40CE20E94650381110C94B308F09150
:10223000F3023F2E0DE20E94D10381110C94B308EA
:102240001CE20EE20E94650381110C94B3083090E9
:102250004A030FE20E94D10381110C94B3081CE2DF
:1022600000E30E94650381110C94B30880904B0336
:1022700090904C039092FB028092FA0201E30E943C
:10228000DA0481110C94B3081CE202E30E94650396
:1022900081110C94B30880914F0390915003909357
:1022A000FB028093FA0203E30E94DA0481110C948A
:1022B000B3081CE204E30E94650381110C94B30887
:1022C00060915703709158037093FB026093FA0278
:1022D00005E30E94DA0481110C94B3081CE206E3C2
:1022E0000E94650381110C94B308E0914D03F091B5
:1022F0004E03F093FB02E093FA0207E30E94DA0434
:1023000081110C94B3081CE208E30E94650381115B
:102310000C94B3083090560309E30E94D103811155
:102320000C94B3081CE20AE30E94650381110C942B
:10233000B308309053030BE30E94D10381110C9436
:10234000B3081CE20CE30E94650381110C94B308EE
:1023500040915103509152035093FB024093FA0273
:102360000DE30E94DA0481110C94B3081CE20EE321
:102370000E94650381110C94B308309054030FE35D
:102380000E94D10381110C94B3081CE200E40E9466
:10239000650381110C94B3083090000201E40E949F
:1023A000D10381110C94B3081CE202E40E9465037E
:1023B00081110C94B30872B176FB332430F803E436
:1023C0000E94D10381110C94B3081CE204E40E9422
:1023D000650381110C94B30833243394309177034F
:1023E000311101C0312C05E40E94D10381110C94FC
:1023F000B3081CE206E40E94650381110C94B30843
:102400003324339450918003511101C0312C07E4DF
:102410000E94D10381110C94B3081CE208E40E94CD
:10242000650381110C94B30833243394D090860350
:10243000D11001C0312C09E40E94D10381110C9408
:10244000B3081CE20AE40E94650381110C94B308EE
:102450008091740390917503A0917603B0E080930E
:10246000020390930303A0930403B09305030BE4CA
:102470000E948D0581110C94B30810E20CE40E94B7
:10248000650381110C94B30815E40DE40E94650303
:1024900081110C94B308E2B0E4FA332430F80EE46E
:1024A0000E94D10381110C94B3081CE20FE40E9436
:1024B000650381110C94B30892B195FB332430F875
:1024C00000E50E94D10381110C94B3081CE201E5E0
:1024D0000E94650381110C94B308332433949090C7
:1024E0008403911001C0312C02E50E94D1038111B7
:1024F0000C94B3081CE203E50E94650381110C945F
:10250000B30833243394A0908203A11001C0312C6E
:1025100004E50E94D10381110C94B3081CE205E587
:102520000E94650381110C94B30830907E0306E588
:102530000E94D10381110C94B308C0906503D09020
:102540006603E0906703C092F002D092F102E0923D
:10255000F202A0916303B0916403B093EF02A093E1
:10256000EE021092650310926603109267031092B8
:1025700064031092630310E207E50E946503811172
:102580000C94B30816E408E50E94650381110C94CD
:10259000B3088091F0029091F102A091F202B0E0B4
:1025A0008093020390930303A0930403B093050365
:1025B00009E50E948D0581110C94B3081CE20AE51F
:1025C0000E94650381110C94B3088090EE029090F4
:1025D000EF029092FB028092FA020BE50E94DA046D
:1025E00081110C94B30810E20CE50E94650381117F
:1025F0000C94B30867EF362E0DE50E94D1038111CC
:102600000C94B30810E20EE50E94650381110C944E
:10261000B308309006030FE50E94D10381110C949A
:10262000B3081DE000E60E94650381110C94B30815
:102630001AE001E60E946503882311F40C948F08C8
:102640000C94B308BF3F09F48DC832E0432E84C810
:10265000AF3F09F417C982E0482E0FC9E22D94CA92
:1026600030915C0351EE530F5B33D8F440915E031D
:1026700050E0542F442790905D03490D511D509315
:1026800058034093570338523093560390915503A3
:10269000923039F410920002809154038F5F80933E
:1026A0005403A0905B03A092530380915A0390E0DF
:1026B000F82FEE27B0915903EB0FF11DF093520361
:1026C000E09351030C942D0A9F3F09F439C842E06E
:1026D000442E30C88F3F09F4C4C892E0492EBCC8CC
:1026E000F13009F464C066E846C8D090EB02D0929D
:1026F0008603FFE0F09385030C94EA0AE090EB0276
:10270000E0927C030C94EA0A20928003BAE0B09332
:102710007F030C94EA0A80915C0390E0982E882451
:10272000D0905B038D0C911C90924E0380924D03D0
:1027300007CC109201025091F4025F5F5093F402B3
:102740008091DA0290E0B82FAA279090D902A90DC3
:10275000B11DB093F602A093F50268C9109202026F
:10276000C091F902CF5FC093F9028091E30290E03B
:10277000D82ECC24E090E202CE0CD11CD092FD02E7
:10278000C092FC024DC96AE74BC880914C0290E0B0
:102790000196BE01A7D080934C0210924E02E0E059
:1027A0000C94C80A10924B02E0E00C94C80A65E849
:1027B0000C94BB0B60938403EAE0E09383031092D4
:1027C00082031BCA90904D029092CE00412C0C9433
:1027D000B20BC0904D02C092CE00412C53C8D09095
:1027E0004D02D092CE00412C0C94A00BE0914D02F2
:1027F000E093CE00412C35C81F921FB61F921124C2
:102800003F933BB73F934F938F939F93EF93FF93E8
:102810004091C6008091D002820D8F77E091CF0267
:10282000E817A9F0F091D002EF2FF0E0E15BFD4F47
:1028300040838093D002FF91EF919F918F914F91B0
:102840003F913BBF3F911F901FBE1F901895309145
:102850000003320D30930003409100034111EBCF90
:1028600080910003821980930003E5CF1F921FB669
:102870001F9211243F933BB73F934F938F939F93A6
:10288000EF93FF934091CE0080913F02820D8F71B4
:10289000E0913E02E817A9F0F0913F02EF2FF0E03F
:1028A000E25EFD4F408380933F02FF91EF919F9145
:1028B0008F914F913F913BBF3F911F901FBE1F9043
:1028C00018953091F302320D3093F3024091F302E8
:1028D0004111EBCF8091F30282198093F302E5CF8F
:1028E00021E0189597FB072E16F4009406D077FD8B
:1028F00008D013D007FC05D03EF4909581959F4FEA
:102900000895709561957F4F0895EE0FFF1F881F02
:102910008BBF0790F691E02D1994AA1BBB1B51E1C8
:1029200007C0AA1FBB1FA617B70710F0A61BB70B3F
:10293000881F991F5A95A9F780959095BC01CD01E4
:102940000895F894FFCFF800FC000001EE00F400B9
:102950000801D801DD01E201E701D001B701F10171
:10296000F601FB01C801EC0100023C0A4C0A560AC0
:10297000600A6A0A740A7E0A880A390C4A0C580CE2
:10298000660C720C7E0C8A0C990C9F08B008B20F72
:10299000B80FC00FC60FDB0FE10FE90FEF0FF70FF6
:1029A000FD0F121018102E10341046104C1060102D
:1029B00066106C10731079108010861093109910A7
:1029C000A010A610AD10B310BA10C210C910D110CB
:1029D000D810E610ED10F510FC1004110B111211B7
:1029E0001B1122112A1131113F11461154115B1193
:1029F000691170117E1185118D1194119C11A31113
:102A0000B111B811C011C711CF11D611E011E711E2
:102A1000F411FB1108120F121C12231238123F126C
:102A20004612501257126112681275127C128912E6
:102A300090129812BD12C412D912E012EE12F512C1
:102A4000FD1204130C1313131A138F088F088F0829
:102A50008F088F088F088F088F088F088F088F08BE
:102A60008F088F088F088F088F088F088F088F08AE
:102A70008F088F088F088F088F088F088F088F089E
:102A80008F088F088F088F088F088F088F088F088E
:102A90008F088F088F088F088F088F088F088F087E
:102AA0008F088F088F088F088F088F088F088F086E
:102AB0008F088F088F088F088F088F088F088F085E
:102AC0008F088F088F088F088F088F088F088F084E
:102AD0008F088F088F088F088F088F088F088F083E
:102AE0008F088F088F088F088F088F088F088F082E
:102AF0008F088F088F088F088F088F088F088F081E
:102B00008F088F088F088F088F088F088F088F080D
:102B10008F088F088F088F088F088F088F088F08FD
:102B20008F088F088F088F088F088F088F088F08ED
:102B30008F088F088F088F088F088F088F088F08DD
:102B40008F088F088F088F088F088F088F088F08CD
:102B50008F088F088F088F088F088F088F088F08BD
:102B60008F088F088F088F088F088F088F088F08AD
:102B70008F088F088F088F088F088F088F088F089D
:102B80008F088F08B308A60CAF0CBE0CC70CD00C76
:102B9000D90CE20CEB0CF40CFD0C060D6B0E0B0EBD
:102BA000A80BC00BCE0BDA0BE60BF20BFE0B150CD1
:102BB000FFFFFFFFE0A5013C3C0AFFFFFF30313281
:0E2BC000333435363738396162636465660038
:00000001FF
