:1000000071C000008FC000008DC000008BC00000D8
:1000100089C0000087C0000085C0000083C00000C8
:1000200081C000007FC000007DC000007BC00000D8
:1000300079C0000077C0000075C0000073C00000E8
:1000400071C000000C944E146DC000006BC0000025
:1000500069C0000067C0000065C0000063C0000008
:1000600061C000000C94DA135DC000005BC00000AA
:1000700059C0000057C0000055C0000053C0000028
:1000800051C000004FC000004DC000004BC0000038
:100090000C94141447C0000045C0000043C0000089
:1000A00041C000003FC000003DC000003BC0000058
:1000B00039C0000037C0000035C0000033C0000068
:1000C00031C000002FC000002DC000002BC0000078
:1000D00029C0000027C0000025C0000023C0000088
:1000E00021C0000011241FBECFEFD1E2DEBFCDBF83
:1000F00000E00CBF12E0A0E0B2E0ECE6FBE200E0C2
:100100000BBF02C007900D92AC31B107D9F723E0C5
:10011000ACE1B2E001C01D92A138B207E1F7EFD522
:100120000C947F146DCF9091D80291111DC0209135
:10013000D70221111FC035E13A95F1F74091D8025D
:10014000411134C05091D70251112BC060E36A9520
:10015000F1F77091D80271111CC051110EC08CEDD5
:1001600090E00197F1F70895089A10982091D7022E
:10017000222309F3099A1198DECF019BF0CFB091A9
:1001800044028B0F809344028CED90E00197F1F7CD
:100190000895009BE2CFA0914502A80FA0934502CD
:1001A000DCCF0998119A5091D702D0CF0898109AB5
:1001B000C9CF80914602893070F4823008F43DC086
:1001C0008350863008F5E82FF0E08827EF57FB4E84
:1001D0008F4F0C9463148F3F81F5089580E2A3DF65
:1001E00087E080934602089580E49DDF88E0F9CFA0
:1001F00084E099DF84E0F5CF88E095DF85E0F1CFFA
:1002000080E191DF86E0EDCF82E08DDF83E0E9CF12
:1002100080E889DF8091D50290E0FC01EE51FD4F2E
:1002200020914502208387529D4F30914402FC016A
:1002300030831092460280E0089510924502109299
:10024000440281E070DF82E0CCCF9091D80291111E
:1002500024C02091D70221111DC04091D8028823CB
:1002600059F085E18A95F1F7411126C03091D70206
:1002700031111FC04091D802E0EFF0E03197F1F763
:10028000411114C05091D70251110AC065E36A951B
:10029000F1F70895099A1198E0CF089A1098D9CFEC
:1002A0000998119A65E36A95F1F708950898109AEC
:1002B000E9CF0998119ADECF0898109A3091D702A9
:1002C0003323C1F2F6CF809149028530A1F1B8F411
:1002D000833009F45AC08430C1F4E0914702E93018
:1002E00028F5E23008F4E9C0E350E63008F0A3C096
:1002F000F0E08827E957FB4E8F4F0C94631486304B
:1003000009F18F3F09F09DC00895823009F099C02E
:10031000A8E6B6E01197F1F77091D7029091D80254
:10032000792B89F51092490280E00895EF3F09F09A
:10033000C4C084E008958091D6028093480226E0EC
:1003400020934902E0914702E93070F4E23008F46A
:10035000BAC0E350E63008F068C0F0E08827E35701
:10036000FB4E8F4F0C946314EF3F09F0ACC086E056
:10037000089580914802807868DF1092470285E0F6
:1003800080934902089583E0FBCF4CEC40934802F0
:1003900054E050934902A1CF80914802807255DF0A
:1003A00037E03093470286E00895809148028074D8
:1003B0004CDF68E06093470284E008958091480232
:1003C000847043DF64E0F6CF8091480288703DDF9F
:1003D00065E0F0CF80914802807137DF66E0EACFB8
:1003E00080914802807231DF67E0E4CF809148025B
:1003F00080742BDF38E0D5CF80914802847025DFF0
:1004000034E0CFCF8091480288701FDF35E0C9CF3C
:1004100080914802807119DF36E0C3CF8091480295
:10042000807813DF109247027DCF8091480282705E
:100430000CDF33E0B6CF80914802827006DF63E0C4
:10044000B9CFB091D802B11131C0E091D702EE23FB
:1004500009F468CF099A119880E699E00197F1F7BD
:100460002091D802211135C03091D702311143C0FB
:10047000A0E4B1E01197F1F74091D80241112CC0EE
:10048000311102C082E07CCF90B1E1E0B92FB270AF
:1004900091FDE0E0E093D702BB23A1F3F091F302DA
:1004A000F20D81F3F093F30282E06ACF089A10987C
:1004B000F091D702FF2381F2CDCF80914802817065
:1004C000C4DE62E077CF809148028170BEDE32E008
:1004D00068CF0898109AC8CF50B1517061E0652775
:1004E0006093D802552361F27091FA02720D41F2C5
:1004F0007093FA02C5CF0998119A3091D702B8CFFC
:1005000080914302843009F43FC078F4823009F4CA
:1005100094C0833009F08CC0B091D102B23061F048
:10052000BF3F09F0D1C083E00895853009F462C06F
:100530008F3F09F07DC00895E091D002F091CF0285
:10054000EF1789F3E091CF02F0E0E15BFD4F3081DE
:100550003093D3024091CF024F5F4F774093CF0249
:100560001092D10250ED530F5A3008F09FC06091A5
:10057000EC02762F770F770F760F770F750F70934A
:10058000EC02A4E0A0934302B091D102B23009F092
:100590004AC0E091D002F091CF02EF1709F446C0B3
:1005A000E091CF02F0E0E15BFD4F40814093D30248
:1005B0003091CF023F5F3F773093CF021092D1024C
:1005C00050ED540F5A3008F071C06091EC0269315F
:1005D00030F0693109F06AC0463308F067C0762F01
:1005E000770F770F760F770F750F7093EC02A5E0FA
:1005F000A0934302B091D102B23041F4E091D00215
:10060000F091CF02EF1342C085E00895BF3FE1F3C0
:1006100082E09091D0022091CF02291337C08093BD
:10062000D10285E0F2CFBF3F09F044C084E00895D5
:100630001092EC0282E0809343028091D1028230DA
:1006400029F08F3F09F04AC082E008952091D0023E
:100650009091CF02291709F46ECFE091CF02F0E01C
:10066000E15BFD4F60816093D3027091CF027F5FA9
:100670007F777093CF021092D10260536A30B0F44A
:100680006093EC02A3E0A093430246CFE091CF0237
:10069000F0E0E15BFD4F40814093D3023091CF0207
:1006A0003F5F3F773093CF021092D1021092430206
:1006B00080E0089582E09091D0022091CF0229132A
:1006C0006FCF8093D102B2CF82E09091D00220917F
:1006D000CF02291337CF8093D10225CF32E040914A
:1006E000D0025091CF025413B8CF3093D102ACCF87
:1006F00080914002823031F08F3F09F4089582E00A
:10070000809340022091C00025FD02C082E0089540
:10071000309144033093C60040910203609144033A
:10072000922D542F56954627422111F07CE85727E9
:10073000A52FA695B62FB695B527B92311F0ECE8ED
:10074000AE27FA2FF695862F869586958A278923D8
:1007500011F02CE8F2274F2F4695362F3695369517
:1007600036953F27392311F05CE84527742F76959D
:10077000A62FA295AF70A427A92311F0BCE87B2770
:10078000E72FE695F62FF295F695F770F727F92300
:1007900011F08CE8E8274E2F4695262F22952695B6
:1007A000269523702E27292311F03CE84327542F48
:1007B0005695661F6627661F6427692311F06CE84B
:1007C0005627509302031092400280E008959091C2
:1007D0003F02892F933009F483C09F3F09F47FC003
:1007E000923099F0E0910303EE2309F475C0E031F3
:1007F00008F4F7C0E295EF70F0E0E45FFD4F408150
:100800004093440352E050933F02609140026230B3
:1008100009F478C06F3F09F072C082E008956091DA
:1008200044036093C6003091020370914403A22DEB
:10083000B32FB6953727322111F0ECE8BE27FB2FF6
:10084000F695572F56955B275A2311F09CE8F92708
:100850008F2F8695272F269526952F272A2311F04F
:100860004CE88427682F6695372F36953695369550
:1008700038273A2311F0BCE86B27E62FE695F72FCF
:10088000F295FF70F627FA2311F05CE8E5279E2F1A
:100890009695872F8295869587708E278A2311F0EB
:1008A0002CE89227492F4695672F629566956695A5
:1008B000637069276A2311F03CE84327B42FB6958B
:1008C000771F7727771F74277A2311F07CE8B727E3
:1008D000B09302031092400210923F0280E008950C
:1008E00080914002823031F44091C00045FD97CFA5
:1008F00083E008958F3F09F070C083E0089572E0AF
:1009000070934002A091C000A5FF87CFB09144032F
:10091000B093C600E0910203F0914403922D8E2F14
:100920008695EF27E22111F02CE88227482F469583
:100930003F2F36953827392311F05CE84527642F7F
:1009400066957F2F769576957427792311F0ACE81C
:100950006A27B62FB695EF2FE695E695E695E6273A
:10096000E92311F08CE8B8275B2F56952F2F22959D
:100970002F702B27292311F04CE85427652F6695FB
:100980003F2F3295369537703527392311F07CE8A3
:100990006727A62FA695BF2FB295B695B695B370CB
:1009A000B627B92311F0ECE8AE275A2F5695FF1F52
:1009B000FF27FF1FFA27F92311F0FCE85F27509368
:1009C0000203E0910303EF70F0E0E45FFD4F9081DC
:1009D0009093440383E080933F0222E020934002FF
:1009E00083CF80914002EF70F0E0E45FFD4F208103
:1009F0002093440333E030933F0274CF809141024F
:100A00008430A9F0F0F4823009F43CC0833079F5E9
:100A10006FDE81114DC0E0910303EF70F0E0E45F01
:100A2000FD4F60816093440374E070934102A09194
:100A30004002A23059F4E091C000E5FD3DC084E0E1
:100A40000895853071F08F3F91F40895AF3FB9F369
:100A5000B2E0B0934002EFCF9093030325E02093E0
:100A60004102B5DE882309F484C085E008959091A1
:100A7000F6028091F702882379F38093030332E032
:100A800030934102A4DE811115C0E091F602E0939B
:100A90000303E295EF70F0E0E45FFD4F4081409387
:100AA000440353E05093410223DE882309F4B3CF7B
:100AB00083E0089582E00895F0914403F093C60026
:100AC0002091020380914403922D522F569528279E
:100AD000222111F03CE85327452F4695682F669553
:100AE0006527692311F07CE84727A42FA695B82F26
:100AF000B695B695B427B92311F0ECE8AE27FA2FD6
:100B0000F695282F2695269526952A27292311F034
:100B10005CE8F5276F2F6695382F32953F703F2799
:100B2000392311F04CE86427762F7695A82FA295EB
:100B3000A695A770A627A92311F0BCE87B27E72F6D
:100B4000E695F82FF295F695F695F370F727F923C9
:100B500011F02CE8E2275E2F5695881F8827881F02
:100B60008E27892311F08CE85827509302031092A6
:100B700040021092410280E0089580914202853047
:100B8000C1F058F5833009F453C08430B1F5B0DDBD
:100B9000811161C0E091F602E0930303E295EF70EA
:100BA000F0E0E45FFD4FA081A0934403B5E0B09373
:100BB00042029EDD811160C0E0910303EF70F0E01E
:100BC000E45FFD4FE081E0934403F6E0F0934202DE
:100BD0008FDD882371F086E00895873009F446C0E0
:100BE0008F3F09F40895863009F04AC081DD8111F4
:100BF000F2CF1092420280E00895823009F040C0A6
:100C0000FDDE81113BC04091FE02E091FF02409366
:100C1000F602E093F702E0930303E295EF70F0E051
:100C2000E45FFD4F50815093440363E060934202C0
:100C30005FDD811112C0E0910303EF70F0E0E45F2B
:100C4000FD4F70817093440394E09093420250DD15
:100C5000882309F49FCF84E0089583E0089590935A
:100C6000F7028093F60287E080934202C7DE882372
:100C700009F4BFCF87E0089585E0089582E00895E4
:100C80008091FE029091FF02A0910003B0910103B8
:100C9000AD01662777274115510509F35093F702F7
:100CA0004093F60232E030934202AACF80913E0296
:100CB000823031F08F3F09F4089582E080933E0244
:100CC00090913D0220913C02921302C082E008956F
:100CD000E0913C02F0E0E45EFD4F30813093600330
:100CE00040913C024F5F4F7140933C0250915F0333
:100CF000530F50935F0310923E0280E00895222428
:100D0000239400E09D98A59A6A98729A6B98739ABA
:100D10006C98749A6D98759A6E98769A6F98779A7F
:100D2000809101018E7F8093010110910201116079
:100D300010930201209101012D7F20930101309138
:100D40000201326030930201409101014B7F4093D8
:100D50000101509102015460509302016091010120
:100D6000677F6093010170910201786070930201C6
:100D7000909101019F7E90930101A0910201A061D9
:100D8000A0930201B0910101BF7DB0930101C09118
:100D90000201C062C0930201D0910101DF7BD093B8
:100DA0000101E0910201E064E09302012098289A99
:100DB0002198299A22982A9A23982B9A24982C9A37
:100DC00025982D9A26982E9AF0910101FF77F0939D
:100DD0000101809102018068809302019B98A39A8F
:100DE0009C98A49A10910A011E7F10930A012091E9
:100DF0000B01216020930B0130910A013D7F30935C
:100E00000A0140910B01426040930B0150910A018D
:100E10005B7F50930A0160910B01646060930B014A
:100E200070910A01777F70930A0190910B0198608D
:100E300090930B01A0910A01AF7EA0930A01B0919B
:100E40000B01B061B0930B01C0910A01CF7DC0933B
:100E50000A01D0910B01D062D0930B01E0910A01FD
:100E6000EF7BE0930A01F0910B01F064F0930B012A
:100E700080910A018F7780930A0110910B0110680D
:100E800010930B015098589A5198599A54985C9A1B
:100E900055985D9A56985E9A57985F9A9898A09A36
:100EA0009998A19A3898409A3998419A3A98429AD2
:100EB0003B98439A3C98449A3D98459A3E98469A66
:100EC0003F98479A209104012E7F2093040130918E
:100ED0000501316030930501409104014D7F40933D
:100EE0000401509105015260509305016091040185
:100EF0006B7F60930401709105017460709305012C
:100F000090910401977F90930401A0910501A8603E
:100F1000A0930501B0910401BF7EB0930401C0917C
:100F20000501C061C0930501D0910401DF7DD0931C
:100F30000401E0910501E062E0930501F0910401F4
:100F4000FF7BF0930401809105018064809305018B
:100F50009A98A29A0F98179A0E98169A0B98139A25
:100F60000A98129A109104011F771093040120919E
:100F70000501206820930501309107013F773093E8
:100F80000701409108014068409308015091070112
:100F90005F7B5093070160910801606460930801D2
:100FA000709107017F7D7093070190910801906215
:100FB00090930801A0910701AF7EA0930701B09123
:100FC0000801B061B0930801C0910701C77FC093C9
:100FD0000701D0910801D860D0930801E091070182
:100FE000EB7FE0930701F0910801F460F0930801B2
:100FF000809107018D7F8093070110910801126095
:1010000010930801209107012E7F20930701309152
:10101000080131603093080187988F9A86988E9ADC
:1010200085988D9A84988C9A83988B9A82988A9ABC
:101030008198899A8098889A0C9A14980D9A159894
:10104000279A48E159E20FB6F894A89540936000BA
:101050000FBE509360000898109A0998119A109248
:10106000CD006FEC6093CC0072E07093C80096E006
:101070009093CA00A8E9A093C9001092C50060939C
:10108000C4007093C0009093C200A093C100C7EA4F
:10109000D1E6D0938900C0938800B0916F00B26010
:1010A000B0936F00D0918100DB60D0938100789481
:1010B000AAEE4A2EA2E05A2EB3E0AB2EB12CFF24AA
:1010C000F394CFEFDAE01CE3E7E03E2EF6E09F2E4C
:1010D00080917D0390917E03A0917F03B091800366
:1010E0000196A11DB11D011199C080937D039093BC
:1010F0007E03A0937F03B0938003A895E0916103E2
:10110000EB3070F4E23008F4B2C1E350E83008F09C
:10111000B1C1F0E08827ED56FB4E8F4F0C9463145D
:10112000EF3F09F0A4C130914803343009F481C382
:1011300008F06AC0323009F051C0E0906203EE203E
:1011400009F487C6E0914703E250EE3F08F419C264
:101150007091460350914503751709F4D3C6C090AA
:10116000460360904503C61409F4B9C69EE3909304
:101170004403B2E0B0934703BBDA811114C0E0919D
:101180004503F0E0EC5FFC4F6080609203038091C8
:1011900045038F5F8F738093450343E0409347037C
:1011A00016DB8823E1F2F091EE02F23009F0CCC2B6
:1011B0005091D402543009F4E7C408F0AFC2B091A2
:1011C000D102523009F496C4533009F090C4B230C1
:1011D00009F4B8C4BF3F09F4A7C2B1C4333009F061
:1011E000E4C1E0914A02EB3008F079C2E23008F441
:1011F00079C2E350E83008F07AC2F0E08827E5567B
:10120000FB4E8F4F0C9463143F3F09F0CEC1E09129
:101210004703E250EE3F08F09BCFB3C100E080935C
:10122000790390937A03A0937B03B0937C0310928D
:101230007D0310927E0310927F0310928003E09151
:101240000B02F1E0FE0FEF3F09F497C1F0930B02A0
:10125000F43608F094C120910A0231E0320F2F3F9A
:1012600009F07AC2C0930A021598409109025FEF13
:10127000540F413009F4ADC2509309022091780314
:10128000609004027090050280900602A82DC301B0
:101290000196A11D81153FE293073DE0A30718F0D9
:1012A00080E090E0A0E0E22FF0910302322D2111C6
:1012B00015C0C0907603C11071C231E06C01EA2EF6
:1012C00040E4C41A4EE7D40A45E0E40A50E4C516E7
:1012D0005EE7D50655E0E50608F08BC4FF3F09F44C
:1012E0004FC0709173037A3008F04AC0C090720307
:1012F000D12CE12C6D2D5C2D4427CF2ED12CE12C4F
:10130000EC2CDD24CC24C40ED51EE61E50917103B6
:10131000C50ED11CE11C6E2DA6014619570968099E
:101320003A01862E60926E0370926F038092700372
:1013300049535F4F6F4F4F385140610508F12111FC
:101340000C9441136091760361110BC0E1E0AC0194
:101350006A2F40545E47654040345E47654008F060
:1013600086C5E31709F447C42FE8620E21E0721E18
:10137000811C4FE1641643E07406810408F03BC40D
:10138000C09303028093040290930502A093060287
:10139000332309F40DC2222009F4A2C3149A109237
:1013A0000B02159810920A0220916A0330916B0388
:1013B00040916C0350916D032F5F3F4F4F4F5F4F34
:1013C00020936A0330936B0340936C0350936D0337
:1013D00070906903772009F4F3C12F9AA1E08090FF
:1013E00069038110A0E0A0936903D0906803DD2019
:1013F00019F0D218D0926803E22C60900202620CBD
:1014000011F060920202B0910102BE0D11F0B09392
:10141000010280910002E80E11F0E092000240917A
:1014200064035091650360916603709167034115F1
:1014300051056105710509F4C5C1415051096109A2
:10144000710940936403509365036093660370933E
:101450006703F0916203FF2309F44FCEF150F0933C
:1014600062034BCE309149033F5F3093490332E032
:10147000309361031BDC811156CE509160035F3FB6
:10148000B1F710925F0373E0709361030FDC811179
:101490004ACE50916003593721F06CE7650F6330F5
:1014A00070F750935E03E4E0E0936103FFDB81118A
:1014B0003ACEC0906003C0925D0395E090936103C3
:1014C000F5DB811130CE2091600320935C03909274
:1014D0006103ECDB811127CE7090600370925B0397
:1014E00030926103E3DB81111ECE80906003809215
:1014F0005A03A8E0A0936103D9DB811114CED090E8
:101500006003D0925903B9E0B0936103CFDB81113E
:101510000ACEE0906003E0925803D0936103C6DBEB
:10152000811101CE6090600380915F03462D481BBE
:1015300040935F03641296CF70915E03763811F486
:101540000C944413743809F496C4753811F40C944F
:101550009B13793709F08BCF50915D03513009F01F
:1015600086CF10926303E0914A03F0914B033196CA
:10157000F0934B03E0934A037ACFC0930B02149885
:101580006ACEF0E08827ED55FB4E8F4F0C94631424
:1015900060914B02623009F055C38090C80085FC11
:1015A00093C4E0914A02E111CDCDE3E0E093620300
:1015B00032E030934803C6CDA0914B02A23009F02F
:1015C00045C3C090C800C5FEECCF60904D0260924C
:1015D000CE0068E060934A02A2E0A0934B02DDCF08
:1015E00090914B02923009F05AC33091C80035FFF8
:1015F000D8CF70914D027093CE0030924A0252E0E3
:1016000050934B02DECF20914B02223009F04FC3A2
:101610004091C80045FFC5CFF0914D02F093CE0038
:1016200010924D0290924A02E2E0E0934B02DDCF2D
:10163000F0914B02F23009F0F9C24091C80045FF29
:10164000B0CFF0914D02F093CE0010924B02109269
:101650004A02E0E0A8CF80914B02823011F00C9456
:101660003C138090C80085FE9CCF70904D02709214
:10167000CE00A9E7A0934D0294E090934A0222E0A5
:1016800020934B0205C0B0914B02B23009F017C352
:10169000D090C800D5FE85CFE0904D02E092CE00FC
:1016A00010924D02B5E0B0934A0282E080934B0263
:1016B000AFCF40914B02423009F0BCC2D090C8007D
:1016C000D5FE6FCFE0904D02E092CE00B6E8B09329
:1016D0004D02D0934A0282E080934B02AECFEF3F9F
:1016E00009F461CFC0934D02E2E0E0934A023091E9
:1016F0004B02323011F00C947F13C090C800C5FE2D
:1017000050CF60904D026092CE00F0924D0253E0B7
:1017100050934A0262E060934B02A3CF553009F424
:1017200044C25F3F09F0E1C1E091EB02E031D0F447
:10173000E230D8F0E350ED3010F5F0E08827EF55B7
:10174000FA4E8F4F0C946314FF3F71F35091D40203
:10175000E2E0E093EE022ECD30930A02343608F434
:1017600084CD82CDEF3F09F4B3CCF092D802F09251
:10177000D70294E49093D60212E01093EB020E94F9
:1017800063018111A0CCE090D802C090D702EC2870
:1017900009F4A2C1D093680333E09FC130E0FF3F5A
:1017A00009F09FCD8093040290930502A093060256
:1017B000149810920B02222009F4F3CD159AF2CD61
:1017C0002F980CCEF092630340E857E966E070E092
:1017D00038CE20917803D0930902609108027FEF00
:1017E000760F613009F07EC110930802222341F088
:1017F00090917703915090937703992309F422C332
:1018000060907603662041F0A0917503A150A093EB
:101810007503AA2309F41AC3B09107028FEF8B0F47
:10182000B13009F4F0C1809307022ACD64E06093DF
:101830004803E0914E02EB3008F0BCC0E23008F4FF
:10184000BCC0E350E83008F0BDC0F0E08827E255A6
:10185000FA4E8F4F0C946314A0914B02A23009F002
:10186000E1C18090C80085FC24C3E0914E029BCE6C
:1018700090914B02923009F0E1C16090C80065FE82
:10188000F4CFA0914D02A093CE0098E090934E0229
:1018900022E020934B02E5CF20914B02223009F049
:1018A000D9C15091C80055FFE0CFC0904D02C09201
:1018B000CE0030924E0262E060934B02DECFB091D8
:1018C0004B02B23009F0EFC1E091C800E5FFCDCF87
:1018D00030914D023093CE0090924E0272E07093A0
:1018E0004B02DFCF80914B02823009F0E4C1D090EF
:1018F000C800D5FEBACFE0904D02E092CE00109223
:101900004D0245E040934E02F2E0F0934B02DCCFF3
:1019100040914B02423009F0ABC68090C80085FE72
:10192000A4CF70904D027092CE0090914C02911114
:10193000FEC61092540324E820934D02B4E0B09305
:101940004E0282E080934B02D2CFE0914B02E23014
:1019500009F060C13091C80035FF87CF70914D020A
:101960007093CE0010924B0280914C0290E0019651
:10197000B50196D780934C0210924E02E0E013CE50
:10198000F0914B02F23009F049C1D090C800D5FE69
:101990006CCFE0904D02E092CE0040914C0241119C
:1019A000B7C6FBE7F0934D02D0934E02E2E0E0931E
:1019B0004B02D0CFEF3F09F4F6CDC0934D0232E099
:1019C00030934E0270914B02723009F091C6C09074
:1019D000C800C5FE4ACF60904D026092CE00F092E2
:1019E0004D0263E060934E02A2E0A0934B0295CFBC
:1019F00030906803311067CB1EEB1093D602B4E031
:101A0000B093EB020E94630181115DCB9090D802EC
:101A10007090D702972809F45FC01092D50285E034
:101A20008093EB020E94D90081114DCBF092D50238
:101A300046E04093EB020E94D900811144CBF2E0D2
:101A4000F093D502E7E0E093EB020E94D900811108
:101A50003ACB33E03093D50278E07093EB020E94EA
:101A6000D900811130CB54E05093D50269E06093E6
:101A7000EB020E94D900811126CBA5E0A093D502EC
:101A8000D093EB020E94D90081111DCB26E0209358
:101A9000D5029BE09093EB020E94D900811113CBF9
:101AA00017E01093D502BCE0B093EB020E94D9007E
:101AB000811109CB88E08093D5024DE04093EB0281
:101AC0000E94D9008111FFCA6090D8026110E6C15E
:101AD0007091D7027111CDC130E13093EB02F3CA9E
:101AE00014985DCC70930802CBCBB091D10232E058
:101AF0003093D402B23031F0BF3F09F415CE72E01A
:101B00007093D102D090D002E090CF02DE1409F49D
:101B10000BCEE091CF02F0E0E15BFD4F508150939E
:101B2000D3026091CF026F5F6F776093CF02109204
:101B3000D102B0E05C33D9F6A3E0A093D40222E056
:101B40002093D102C090D0028090CF02C81409F433
:101B5000EBCDE091CF02F0E0E15BFD4F7080709241
:101B6000D3029091CF029F5F9F779093CF02109204
:101B7000D102B0E08FEB870D8A3108F0B8CF7092B8
:101B8000ED0244E04093D4020E948002811166C0BD
:101B90006090D302F091ED026F12A7CFE091EC02BA
:101BA000E093D20235E03093D4020E94800281118A
:101BB00055C07091D3027E3309F097CFD090D202F6
:101BC000E090EC02DE1091CF1092D40250E06091D0
:101BD000ED02633409F4A1C508F045C0613409F48D
:101BE000A1C5623409F0B4CD8090EC0280927203FA
:101BF000AFCD30E073CB91E0970F909373033E2FFE
:101C0000AE2DC601BDCB1093070210927403109243
:101C1000730336CBEF3F09F428CEC8CEFF3F09F45B
:101C200024CE4EC1AF3F09F420CE32CEFF3F09F49F
:101C3000B8CC51CD4F3F09F4B4CC4DC19F3F09F40E
:101C400014CE39CE6F3F09F4ACCCC6CCAF3F09F40B
:101C5000A8CCD5CC2F3F09F408CE40CE5091D40269
:101C6000511162CDB4CF6C3409F072CD2091EC02E9
:101C7000222309F415C1909174039A3008F068CDBD
:101C8000213009F494C510927803D0937703F09231
:101C90007603D09375039F5F9093740359CD9F3F54
:101CA00009F47FCCC1CCBF3F09F4DFCD2DCE2F3F4F
:101CB00009F477CCFACC8F3F09F4D7CD42CEBF3FA1
:101CC00009F46FCCDCCCA22DE9EDF2E0612C9CE8AC
:101CD0001191E62CE69461266A2209F0E926CE2CC1
:101CE000C694812E86948E248A2209F0C9263C2C23
:101CF0003694912E969496949C249A2209F0392633
:101D0000732C7694312F36953695369533253A23B4
:101D100009F07926672D6695512F52955F705725EA
:101D20005A2309F06927B62FB695212F22952695BB
:101D3000277026272A2309F0B9274B2F4695812F94
:101D400082958695869583708B278A2309F049278B
:101D5000642E6694111F1127111F14271A2309F0EE
:101D6000692682E0E13EF80709F0B2CFF091E10286
:101D7000F61509F4EEC4D090F402AD0D09F4ACCE22
:101D8000A093F402A9CED22CE2EEF2E040E07CE88F
:101D9000A191E42EE6944A274D2109F0E726CE2CA6
:101DA000C6948A2E86948E248D2009F0C7263C2C5A
:101DB00036949A2E969496949C249D2009F037266A
:101DC000732C76943A2F36953695369533253D21EA
:101DD00009F07726672D66955A2F52955F70572523
:101DE0005D2109F06727962F96952A2F2295269533
:101DF000277026272D2109F09727192F1695BA2F1E
:101E0000B295B695B695B370B927BD2109F01727DD
:101E1000412F4695AA1FAA27AA1FA127AD2109F085
:101E200047274E165F0609F0B3CFF091EA02F41788
:101E300009F4A4C48091FB02D80E09F449CED092D3
:101E4000FB0246CE1092780320E0DACC10927603A3
:101E5000E3CC70916303772309F4E8CC509100023E
:101E60005F3F09F4E3CC53E050934803BAC9E0E084
:101E700078CA3FE032CE80915D0390E0B82FAA2768
:101E800090915C03A90FB11DB0934F03A0934E0333
:101E9000209154032F5F20935403E9CA3EE01DCEE6
:101EA00010927803D093770310927603D093750342
:101EB0004FCC70904D027092CE00B9E0B0934E02BC
:101EC00082E080934B0261CD70904D027092CE0003
:101ED00099E090934A0222E020934B02EFCB6DE011
:101EE00060934403A4E0A09347030E947803811108
:101EF0005AC9D093440395E0909347030E94780316
:101F0000811151C91092020320E220934403909260
:101F100047030E947803811146C9B1E4B09344039A
:101F2000309247030E94780381113DC980916A0372
:101F300090916B03A0916C03B0916D038093FE02AE
:101F40009093FF02A0930003B093010348E04093F5
:101F500047030E94BD05811126C9FCE2F0934403AA
:101F6000E9E0E09347030E94780381111CC9809047
:101F7000FD0280920303D09347030E94E70381117F
:101F800012C93CE2309344037BE0709347030E9404
:101F90007803811108C97090FC02709203035CE021
:101FA000509347030E94E7038111FDC86CE26093E0
:101FB0004403ADE0A09347030E9478038111F3C866
:101FC0002091790330917A0340917B0350917C03F7
:101FD0002093FE023093FF024093000350930103CD
:101FE0009EE0909347030E94BD058111DCC8BCE2CE
:101FF000B09344038FE0809347030E9478038111DC
:10200000D2C880916E0390916F03A09170030A2E45
:10201000000CBB0B8093FE029093FF02A093000381
:10202000B093010380E1809347030E94BD058111B5
:10203000BAC84CE240934403F1E1F09347030E9495
:1020400078038111B0C88091730390E0B0E0A0E004
:102050008093FE029093FF02A0930003B0930103CC
:10206000E2E1E09347030E94BD0581119CC83CE278
:102070003093440373E1709347030E947803811106
:1020800092C88091040290910502A0910602B0E0EE
:102090008093FE029093FF02A0930003B09301038C
:1020A00054E1509347030E94BD0581117CC860E252
:1020B00060934403A5E1A09347030E947803811134
:1020C00072C822E42093440396E1909347030E9450
:1020D0007803811168C8D090FB02D0920303B7E166
:1020E000B09347030E94E70381115DC88CE280939F
:1020F000440348E1409347030E947803811153C889
:10210000E090FA02E0920303F9E1F09347030E94A2
:10211000E703811148C8ECE2E09344033AE13093CD
:1021200047030E94780381113EC8C090F802D09006
:10213000F902D092F702C092F6027BE17093470356
:102140000E94FE0481112FC85CE2509344036CE1AD
:10215000609347030E947803811125C86090F502BF
:1021600060920303ADE1A09347030E94E70381114E
:102170001AC82CE2209344039EE1909347030E94E7
:102180007803811110C88090020280920303BFE19E
:10219000B09347030E94E703811105C880E2809352
:1021A0004403809347030E94780381110C94D30861
:1021B00043E440934403F1E2F09347030E94780321
:1021C00081110C94D3087090F40270920303E2E240
:1021D000E09347030E94E70381110C94D3083CE28B
:1021E0003093440373E2709347030E947803811194
:1021F0000C94D308D090F302D092030354E250938E
:1022000047030E94E70381110C94D3086CE26093AA
:102210004403A5E2A09347030E94780381110C9424
:10222000D308C090F102D090F202D092F702C0928F
:10223000F60226E2209347030E94FE0481110C94CB
:10224000D3089CE290934403B7E2B09347030E9403
:10225000780381110C94D308E090F002E09203031C
:1022600088E2809347030E94E70381110C94D3080E
:102270004CE240934403F9E2F09347030E94780351
:1022800081110C94D3086090010260920303EAE28A
:10229000E09347030E94E70381110C94D30830E2D6
:1022A000309344037BE2709347030E9478038111CB
:1022B0000C94D30854E4509344036CE260934703B6
:1022C0000E94780381110C94D3088090EF028092D1
:1022D0000303ADE2A09347030E94E70381110C942E
:1022E000D3082CE2209344039EE2909347030E947C
:1022F000780381110C94D308709049037092030302
:10230000BFE2B09347030E94E70381110C94D30806
:102310008CE28093440340E3409347030E94780398
:1023200081110C94D308C0904A03D0904B03D092F3
:10233000F702C092F602F1E3F09347030E94FE0415
:1023400081110C94D308ECE2E093440332E3309320
:1023500047030E94780381110C94D30860904E03C8
:1023600070904F037092F7026092F60273E37093DD
:1023700047030E94FE0481110C94D3085CE2509341
:10238000440364E3609347030E94780381110C9433
:10239000D308A0915603B0915703B093F702A093CE
:1023A000F60225E3209347030E94FE0481110C945A
:1023B000D3089CE290934403B6E3B09347030E9492
:1023C000780381110C94D30880914C0390914D03B4
:1023D0009093F7028093F60247E3409347030E94ED
:1023E000FE0481110C94D308FCE2F0934403E8E36B
:1023F000E09347030E94780381110C94D308D09096
:102400005503D092030339E3309347030E94E70357
:1024100081110C94D3087CE2709344035AE35093E7
:1024200047030E94780381110C94D308E090520373
:10243000E09203036BE3609347030E94E70381117B
:102440000C94D308ACE2A0934403109347030E947A
:10245000780381110C94D308C0905003D09051039D
:10246000D092F702C092F6022DE3209347030E9418
:10247000FE0481110C94D3089CE290934403BEE3C4
:10248000B09347030E94780381110C94D308809085
:102490005303809203038FE3809347030E94E70373
:1024A00081110C94D3084CE240934403F0E4F09380
:1024B00047030E94780381110C94D30870900002A6
:1024C00070920303E1E4E09347030E94E703811164
:1024D0000C94D30830E23093440372E470934703C2
:1024E0000E94780381110C94D30855E4509344035F
:1024F00063E4609347030E94780381110C94D3082E
:10250000A2B1A295A170A093030324E420934703F2
:102510000E94E70381110C94D3089CE2909344033A
:10252000B5E4B09347030E94780381110C94D3085B
:1025300062B065FADD24D0F8D092030386E480937C
:1025400047030E94E70381110C94D3084CE24093A7
:102550004403F7E4F09347030E94780381110C943D
:10256000D308E1E0E0907803E11001C0E0E0E093FF
:10257000030338E4309347030E94E70381110C946E
:10258000D3087CE27093440359E4509347030E94BC
:10259000780381110C94D30861E0C0907603C110D8
:1025A00001C060E060930303AAE4A09347030E9484
:1025B000E70381110C94D3082CE2209344039BE49D
:1025C000909347030E94780381110C94D308809064
:1025D000740380920303BCE4B09347030E94E703B3
:1025E00081110C94D30880E2809344034DE440931E
:1025F00047030E94780381110C94D308F4E5F0930B
:102600000303EEE4E09347030E94E70381110C9477
:10261000D30830E2309344037FE4709347030E9471
:10262000780381110C94D308709002037092030315
:1026300050E5509347030E94E70381110C94D3089F
:102640006DE060934403A1E5A09347030E947803E3
:1026500081110C94D308D093440322E520934703BF
:102660000E947803882311F40C94A8080C94D308D2
:102670004F3F09F4FAC8B8C98F3F11F40C94D10A3E
:1026800049C8E22D0C94B109B0915B0381EE8B0F28
:102690008B33D8F420915D0330E0722E6624809055
:1026A0005C03680C711C7092570360925603B85219
:1026B000B093550340915403423039F41092000214
:1026C000F0915303FF5FF093530370905A0370929D
:1026D00052038091590390E0F82FEE27D0905803D1
:1026E000ED0DF11DF0935103E09350030C94370A64
:1026F0007F3F09F4BAC852E050934B0268C93F3F8C
:1027000011F40C94D10A72E070934B020C947D0B7F
:10271000413009F448C0F9E745C9A091EC02A09303
:10272000030216C8C090EC02C092710311C8913028
:10273000E1F126E801C980915B0390E0782F6627DC
:10274000C0905A036C0D711D70934D0360934C0340
:102750009FCB109201027091F0027F5F7093F002A4
:102760008091DA0290E0B82FAA27E091D902AE0F4B
:10277000B11DB093F202A093F102AEC91092020211
:10278000E091F502EF5FE093F5028091E30290E0C3
:10279000782E6624D090E2026D0C711C7092F902C2
:1027A0006092F80295C9FAE7FDC825E8C5C82093EC
:1027B000780378CB1F921FB61F9211242F932BB74B
:1027C0002F933F938F939F93EF93FF933091C60086
:1027D0008091D002820D8F77E091CF02E817A9F0A7
:1027E000F091D002EF2FF0E0E15BFD4F308380935A
:1027F000D002FF91EF919F918F913F912F912BBF2D
:102800002F911F901FBE1F9018952091FC02220D42
:102810002093FC023091FC023111EBCF8091FC023D
:1028200082198093FC02E5CF1F921FB61F921124DC
:102830002F932BB72F933F938F939F93EF93FF93F8
:102840003091CE0080913D02820D8F71E0913C026B
:10285000E817A9F0F0913D02EF2FF0E0E45EFD4FA4
:10286000308380933D02FF91EF919F918F913F9133
:102870002F912BBF2F911F901FBE1F901895209155
:10288000EF02220D2093EF023091EF023111EBCFD6
:102890008091EF0282198093EF02E5CF01E0189555
:1028A00097FB072E16F4009406D077FD08D013D0BE
:1028B00007FC05D03EF4909581959F4F0895709543
:1028C00061957F4F0895EE0FFF1F881F8BBF079004
:1028D000F691E02D1994AA1BBB1B51E107C0AA1F5A
:1028E000BB1FA617B70710F0A61BB70B881F991FB1
:1028F0005A95A9F780959095BC01CD010895F8945B
:10290000FFCFF800FC000001EE00F4000801DE013A
:10291000E401EA01F001D501B901FC01020208025B
:10292000CC01F6010E02460A560A600A690A720ACA
:102930007C0A860A8F0A2B0B430B030BF00ADC0A76
:10294000C80A590B180BBC08D008750F7E0F890FE9
:10295000920FA90FB30FBD0FC70FD20FDC0FF30FEC
:10296000FD0F15101F1033103D1053105D10671030
:1029700072107C1087109110A010AA10B510BF1013
:10298000CA10D310DE10EA10F51001110C111C1141
:10299000271133113E114A11551160116C11771135
:1029A00083118E119E11A911B911C411D411DF1117
:1029B000EF11FA11061211121D12271237124212CC
:1029C0004E125912651270127B1288129312A112C4
:1029D000AC12BC12C712D712E212EE12F912041393
:1029E0000F131B1326133013A808A808A808A8085B
:1029F000A808A808A808A808A808A808A808A80857
:102A0000A808A808A808A808A808A808A808A80846
:102A1000A808A808A808A808A808A808A808A80836
:102A2000A808A808A808A808A808A808A808A80826
:102A3000A808A808A808A808A808A808A808A80816
:102A4000A808A808A808A808A808A808A808A80806
:102A5000A808A808A808A808A808A808A808A808F6
:102A6000A808A808A808A808A808A808A808A808E6
:102A7000A808A808A808A808A808A808A808A808D6
:102A8000A808A808A808A808A808A808A808A808C6
:102A9000A808A808A808A808A808A808A808A808B6
:102AA000A808A808A808A808A808A808A808A808A6
:102AB000A808A808A808A808A808A808A808A80896
:102AC000A808A808A808A808A808A808A808A80886
:102AD000A808A808A808A808A808A808A808A80876
:102AE000A808A808A808A808A808A808A808A80866
:102AF000A808A808A808A808A808A808A808A80856
:102B0000A808A808A808A808A808A808A808A80845
:102B1000A808A808A808A808A808A808A808A80835
:102B2000A808A808A808A808A808A808A808A80825
:102B3000A808A808A808A808A808A808A808A80815
:102B4000D308F80C020D120D1B0D250D2F0D390D9C
:102B5000420D4C0D560D600DC30E630E880C720CA9
:0C2B60005F0C4C0C380C2C0CC00CA50CAD
:102B6C00FFFFFFFFE0A5013C3C0AFFFF3031323391
:0C2B7C00343536373839616263646566B1
:00000001FF
