:1000000071C000008FC000008DC000008BC00000D8
:1000100089C0000087C0000085C0000083C00000C8
:1000200081C000007FC000007DC000007BC00000D8
:1000300079C0000077C0000075C0000073C00000E8
:1000400071C000000C9458146DC000006BC000001B
:1000500069C0000067C0000065C0000063C0000008
:1000600061C000000C94E4135DC000005BC00000A0
:1000700059C0000057C0000055C0000053C0000028
:1000800051C000004FC000004DC000004BC0000038
:100090000C941E1447C0000045C0000043C000007F
:1000A00041C000003FC000003DC000003BC0000058
:1000B00039C0000037C0000035C0000033C0000068
:1000C00031C000002FC000002DC000002BC0000078
:1000D00029C0000027C0000025C0000023C0000088
:1000E00021C0000011241FBECFEFD1E2DEBFCDBF83
:1000F00000E00CBF12E0A0E0B2E0E0E8FBE200E0CC
:100100000BBF02C007900D92AC31B107D9F723E0C5
:10011000ACE1B2E001C01D92A138B207E1F7EFD522
:100120000C9489146DCF9091D80291111DC020912B
:10013000D70221111FC035E13A95F1F74091D8025D
:10014000411134C05091D70251112BC060E36A9520
:10015000F1F77091D80271111CC051110EC08CEDD5
:1001600090E00197F1F70895089A10982091D7022E
:10017000222309F3099A1198DECF019BF0CFB091A9
:1001800044028B0F809344028CED90E00197F1F7CD
:100190000895009BE2CFA0914502A80FA0934502CD
:1001A000DCCF0998119A5091D702D0CF0898109AB5
:1001B000C9CF80914602893070F4823008F43DC086
:1001C0008350863008F5E82FF0E08827E557FB4E8E
:1001D0008F4F0C946D148F3F81F5089580E2A3DF5B
:1001E00087E080934602089580E49DDF88E0F9CFA0
:1001F00084E099DF84E0F5CF88E095DF85E0F1CFFA
:1002000080E191DF86E0EDCF82E08DDF83E0E9CF12
:1002100080E889DF8091D50290E0FC01EE51FD4F2E
:1002200020914502208387529D4F30914402FC016A
:1002300030831092460280E0089510924502109299
:10024000440281E070DF82E0CCCF9091D80291111E
:1002500024C02091D70221111DC04091D8028823CB
:1002600059F085E18A95F1F7411126C03091D70206
:1002700031111FC04091D802E0EFF0E03197F1F763
:10028000411114C05091D70251110AC065E36A951B
:10029000F1F70895099A1198E0CF089A1098D9CFEC
:1002A0000998119A65E36A95F1F708950898109AEC
:1002B000E9CF0998119ADECF0898109A3091D702A9
:1002C0003323C1F2F6CF809149028530A1F1B8F411
:1002D000833009F45AC08430C1F4E0914702E93018
:1002E00028F5E23008F4E9C0E350E63008F0A3C096
:1002F000F0E08827EF56FB4E8F4F0C946D1486303C
:1003000009F18F3F09F09DC00895823009F099C02E
:10031000A8E6B6E01197F1F77091D7029091D80254
:10032000792B89F51092490280E00895EF3F09F09A
:10033000C4C084E008958091D6028093480226E0EC
:1003400020934902E0914702E93070F4E23008F46A
:10035000BAC0E350E63008F068C0F0E08827E956FC
:10036000FB4E8F4F0C946D14EF3F09F0ACC086E04C
:10037000089580914802807868DF1092470285E0F6
:1003800080934902089583E0FBCF4CEC40934802F0
:1003900054E050934902A1CF80914802807255DF0A
:1003A00037E03093470286E00895809148028074D8
:1003B0004CDF68E06093470284E008958091480232
:1003C000847043DF64E0F6CF8091480288703DDF9F
:1003D00065E0F0CF80914802807137DF66E0EACFB8
:1003E00080914802807231DF67E0E4CF809148025B
:1003F00080742BDF38E0D5CF80914802847025DFF0
:1004000034E0CFCF8091480288701FDF35E0C9CF3C
:1004100080914802807119DF36E0C3CF8091480295
:10042000807813DF109247027DCF8091480282705E
:100430000CDF33E0B6CF80914802827006DF63E0C4
:10044000B9CFB091D802B11131C0E091D702EE23FB
:1004500009F468CF099A119880E699E00197F1F7BD
:100460002091D802211135C03091D702311143C0FB
:10047000A0E4B1E01197F1F74091D80241112CC0EE
:10048000311102C082E07CCF90B1E1E0B92FB270AF
:1004900091FDE0E0E093D702BB23A1F3F091F302DA
:1004A000F20D81F3F093F30282E06ACF089A10987C
:1004B000F091D702FF2381F2CDCF80914802817065
:1004C000C4DE62E077CF809148028170BEDE32E008
:1004D00068CF0898109AC8CF50B1517061E0652775
:1004E0006093D802552361F27091FA02720D41F2C5
:1004F0007093FA02C5CF0998119A3091D702B8CFFC
:1005000080914302843009F43FC078F4823009F4CA
:1005100094C0833009F08CC0B091D102B23061F048
:10052000BF3F09F0D1C083E00895853009F462C06F
:100530008F3F09F07DC00895E091D002F091CF0285
:10054000EF1789F3E091CF02F0E0E15BFD4F3081DE
:100550003093D3024091CF024F5F4F774093CF0249
:100560001092D10250ED530F5A3008F09FC06091A5
:10057000EC02762F770F770F760F770F750F70934A
:10058000EC02A4E0A0934302B091D102B23009F092
:100590004AC0E091D002F091CF02EF1709F446C0B3
:1005A000E091CF02F0E0E15BFD4F40814093D30248
:1005B0003091CF023F5F3F773093CF021092D1024C
:1005C00050ED540F5A3008F071C06091EC0269315F
:1005D00030F0693109F06AC0463308F067C0762F01
:1005E000770F770F760F770F750F7093EC02A5E0FA
:1005F000A0934302B091D102B23041F4E091D00215
:10060000F091CF02EF1342C085E00895BF3FE1F3C0
:1006100082E09091D0022091CF02291337C08093BD
:10062000D10285E0F2CFBF3F09F044C084E00895D5
:100630001092EC0282E0809343028091D1028230DA
:1006400029F08F3F09F04AC082E008952091D0023E
:100650009091CF02291709F46ECFE091CF02F0E01C
:10066000E15BFD4F60816093D3027091CF027F5FA9
:100670007F777093CF021092D10260536A30B0F44A
:100680006093EC02A3E0A093430246CFE091CF0237
:10069000F0E0E15BFD4F40814093D3023091CF0207
:1006A0003F5F3F773093CF021092D1021092430206
:1006B00080E0089582E09091D0022091CF0229132A
:1006C0006FCF8093D102B2CF82E09091D00220917F
:1006D000CF02291337CF8093D10225CF32E040914A
:1006E000D0025091CF025413B8CF3093D102ACCF87
:1006F00080914002823031F08F3F09F4089582E00A
:10070000809340022091C00025FD02C082E0089540
:10071000309144033093C60040910203609144033A
:10072000922D542F56954627422111F07CE85727E9
:10073000A52FA695B62FB695B527B92311F0ECE8ED
:10074000AE27FA2FF695862F869586958A278923D8
:1007500011F02CE8F2274F2F4695362F3695369517
:1007600036953F27392311F05CE84527742F76959D
:10077000A62FA295AF70A427A92311F0BCE87B2770
:10078000E72FE695F62FF295F695F770F727F92300
:1007900011F08CE8E8274E2F4695262F22952695B6
:1007A000269523702E27292311F03CE84327542F48
:1007B0005695661F6627661F6427692311F06CE84B
:1007C0005627509302031092400280E008959091C2
:1007D0003F02892F933009F483C09F3F09F47FC003
:1007E000923099F0E0910303EE2309F475C0E031F3
:1007F00008F4F7C0E295EF70F0E0E45FFD4F408150
:100800004093440352E050933F02609140026230B3
:1008100009F478C06F3F09F072C082E008956091DA
:1008200044036093C6003091020370914403A22DEB
:10083000B32FB6953727322111F0ECE8BE27FB2FF6
:10084000F695572F56955B275A2311F09CE8F92708
:100850008F2F8695272F269526952F272A2311F04F
:100860004CE88427682F6695372F36953695369550
:1008700038273A2311F0BCE86B27E62FE695F72FCF
:10088000F295FF70F627FA2311F05CE8E5279E2F1A
:100890009695872F8295869587708E278A2311F0EB
:1008A0002CE89227492F4695672F629566956695A5
:1008B000637069276A2311F03CE84327B42FB6958B
:1008C000771F7727771F74277A2311F07CE8B727E3
:1008D000B09302031092400210923F0280E008950C
:1008E00080914002823031F44091C00045FD97CFA5
:1008F00083E008958F3F09F070C083E0089572E0AF
:1009000070934002A091C000A5FF87CFB09144032F
:10091000B093C600E0910203F0914403922D8E2F14
:100920008695EF27E22111F02CE88227482F469583
:100930003F2F36953827392311F05CE84527642F7F
:1009400066957F2F769576957427792311F0ACE81C
:100950006A27B62FB695EF2FE695E695E695E6273A
:10096000E92311F08CE8B8275B2F56952F2F22959D
:100970002F702B27292311F04CE85427652F6695FB
:100980003F2F3295369537703527392311F07CE8A3
:100990006727A62FA695BF2FB295B695B695B370CB
:1009A000B627B92311F0ECE8AE275A2F5695FF1F52
:1009B000FF27FF1FFA27F92311F0FCE85F27509368
:1009C0000203E0910303EF70F0E0E45FFD4F9081DC
:1009D0009093440383E080933F0222E020934002FF
:1009E00083CF80914002EF70F0E0E45FFD4F208103
:1009F0002093440333E030933F0274CF809141024F
:100A00008430A9F0F0F4823009F43CC0833079F5E9
:100A10006FDE81114DC0E0910303EF70F0E0E45F01
:100A2000FD4F60816093440374E070934102A09194
:100A30004002A23059F4E091C000E5FD3DC084E0E1
:100A40000895853071F08F3F91F40895AF3FB9F369
:100A5000B2E0B0934002EFCF9093030325E02093E0
:100A60004102B5DE882309F484C085E008959091A1
:100A7000F6028091F702882379F38093030332E032
:100A800030934102A4DE811115C0E091F602E0939B
:100A90000303E295EF70F0E0E45FFD4F4081409387
:100AA000440353E05093410223DE882309F4B3CF7B
:100AB00083E0089582E00895F0914403F093C60026
:100AC0002091020380914403922D522F569528279E
:100AD000222111F03CE85327452F4695682F669553
:100AE0006527692311F07CE84727A42FA695B82F26
:100AF000B695B695B427B92311F0ECE8AE27FA2FD6
:100B0000F695282F2695269526952A27292311F034
:100B10005CE8F5276F2F6695382F32953F703F2799
:100B2000392311F04CE86427762F7695A82FA295EB
:100B3000A695A770A627A92311F0BCE87B27E72F6D
:100B4000E695F82FF295F695F695F370F727F923C9
:100B500011F02CE8E2275E2F5695881F8827881F02
:100B60008E27892311F08CE85827509302031092A6
:100B700040021092410280E0089580914202853047
:100B8000C1F058F5833009F453C08430B1F5B0DDBD
:100B9000811161C0E091F602E0930303E295EF70EA
:100BA000F0E0E45FFD4FA081A0934403B5E0B09373
:100BB00042029EDD811160C0E0910303EF70F0E01E
:100BC000E45FFD4FE081E0934403F6E0F0934202DE
:100BD0008FDD882371F086E00895873009F446C0E0
:100BE0008F3F09F40895863009F04AC081DD8111F4
:100BF000F2CF1092420280E00895823009F040C0A6
:100C0000FDDE81113BC04091FE02E091FF02409366
:100C1000F602E093F702E0930303E295EF70F0E051
:100C2000E45FFD4F50815093440363E060934202C0
:100C30005FDD811112C0E0910303EF70F0E0E45F2B
:100C4000FD4F70817093440394E09093420250DD15
:100C5000882309F49FCF84E0089583E0089590935A
:100C6000F7028093F60287E080934202C7DE882372
:100C700009F4BFCF87E0089585E0089582E00895E4
:100C80008091FE029091FF02A0910003B0910103B8
:100C9000AD01662777274115510509F35093F702F7
:100CA0004093F60232E030934202AACF80913E0296
:100CB000823031F08F3F09F4089582E080933E0244
:100CC00090913D0220913C02921302C082E008956F
:100CD000E0913C02F0E0E45EFD4F30813093600330
:100CE00040913C024F5F4F7140933C0250915F0333
:100CF000530F50935F0310923E0280E00895222428
:100D0000239400E09D98A59A6A98729A6B98739ABA
:100D10006C98749A6D98759A6E98769A6F98779A7F
:100D2000809101018E7F8093010110910201116079
:100D300010930201209101012D7F20930101309138
:100D40000201326030930201409101014B7F4093D8
:100D50000101509102015460509302016091010120
:100D6000677F6093010170910201786070930201C6
:100D7000909101019F7E90930101A0910201A061D9
:100D8000A0930201B0910101BF7DB0930101C09118
:100D90000201C062C0930201D0910101DF7BD093B8
:100DA0000101E0910201E064E09302012098289A99
:100DB0002198299A22982A9A23982B9A24982C9A37
:100DC00025982D9A26982E9AF0910101FF77F0939D
:100DD0000101809102018068809302019B98A39A8F
:100DE0009C98A49A10910A011E7F10930A012091E9
:100DF0000B01216020930B0130910A013D7F30935C
:100E00000A0140910B01426040930B0150910A018D
:100E10005B7F50930A0160910B01646060930B014A
:100E200070910A01777F70930A0190910B0198608D
:100E300090930B01A0910A01AF7EA0930A01B0919B
:100E40000B01B061B0930B01C0910A01CF7DC0933B
:100E50000A01D0910B01D062D0930B01E0910A01FD
:100E6000EF7BE0930A01F0910B01F064F0930B012A
:100E700080910A018F7780930A0110910B0110680D
:100E800010930B015098589A5198599A54985C9A1B
:100E900055985D9A56985E9A57985F9A9898A09A36
:100EA0009998A19A3898409A3998419A3A98429AD2
:100EB0003B98439A3C98449A3D98459A3E98469A66
:100EC0003F98479A209104012E7F2093040130918E
:100ED0000501316030930501409104014D7F40933D
:100EE0000401509105015260509305016091040185
:100EF0006B7F60930401709105017460709305012C
:100F000090910401977F90930401A0910501A8603E
:100F1000A0930501B0910401BF7EB0930401C0917C
:100F20000501C061C0930501D0910401DF7DD0931C
:100F30000401E0910501E062E0930501F0910401F4
:100F4000FF7BF0930401809105018064809305018B
:100F50009A98A29A0F98179A0E98169A0B98139A25
:100F60000A98129A109104011F771093040120919E
:100F70000501206820930501309107013F773093E8
:100F80000701409108014068409308015091070112
:100F90005F7B5093070160910801606460930801D2
:100FA000709107017F7D7093070190910801906215
:100FB00090930801A0910701AF7EA0930701B09123
:100FC0000801B061B0930801C0910701C77FC093C9
:100FD0000701D0910801D860D0930801E091070182
:100FE000EB7FE0930701F0910801F460F0930801B2
:100FF000809107018D7F8093070110910801126095
:1010000010930801209107012E7F20930701309152
:10101000080131603093080187988F9A86988E9ADC
:1010200085988D9A84988C9A83988B9A82988A9ABC
:101030008198899A8098889A0C9A14980D9A159894
:10104000279A48E159E20FB6F894A89540936000BA
:101050000FBE509360000898109A0998119A109248
:10106000CD006FEC6093CC0072E07093C80096E006
:101070009093CA00A8E9A093C9001092C50060939C
:10108000C4007093C0009093C200A093C100C7EA4F
:10109000D1E6D0938900C0938800B0916F00B26010
:1010A000B0936F00D0918100DB60D0938100789481
:1010B000AAEE4A2EA2E05A2EB3E0AB2EB12CC0E825
:1010C000CC2EC7E9DC2EC6E0EC2EF12C18E0E7E0D0
:1010D0009E2EF6E03F2E80917D0390917E03A0919D
:1010E0007F03B09180030196A11DB11D011199C02C
:1010F00080937D0390937E03A0937F03B09380033E
:10110000A895E0916103EB3070F4E23008F4A6C1D9
:10111000E350E83008F0A5C1F0E08827E356FB4E25
:101120008F4F0C946D14EF3F09F098C170914803F4
:10113000743009F478C308F06AC0723009F051C005
:1011400060916203662309F483C6E0914703E2508D
:10115000EE3F08F40EC27090460380904503781469
:1011600009F4D1C6F0914603D0914503FD1709F467
:10117000B6C6AEE3A0934403E2E0E0934703B8DAD7
:10118000811114C0E0914503F0E0EC5FFC4F8080DA
:1011900080920303209145032F5F2F732093450313
:1011A00093E09093470313DB8823E1F2F091EE0282
:1011B000F23009F0C4C28091D402843009F4E2C450
:1011C00008F0A7C29091D102823009F491C4833013
:1011D00009F08BC4923009F4B3C49F3F09F49FC255
:1011E000ACC4733009F0D9C1E0914A02EB3008F089
:1011F0006FC2E23008F46FC2E350E83008F071C209
:10120000F0E08827EB55FB4E8F4F0C946D147F3F19
:1012100009F0C3C1E0914703E250EE3F08F09BCFD5
:10122000A8C100E08093790390937A03A0937B0395
:10123000B0937C0310927D0310927E0310927F0383
:1012400010928003E0910B02F1E0FE0FEF3F09F4F2
:101250008BC1F0930B02F43608F089C130910A0279
:1012600041E0430F3F3F09F072C25FEF50930A0223
:101270001598609109027FEF760F613009F4A1C2E1
:101280007093090250917803C0910402D091050235
:10129000E09106023E018E2E8FEF681A780A880AC6
:1012A00061149FE279069DE0890618F0612C712C8B
:1012B000812C752FF22D51110FC030917603311111
:1012C00005C2F1E0A82DC30180549E47A54080349B
:1012D0009E47A54008F0FAC1209103022F3F09F470
:1012E00047C08091720390E0A0E0A92F982F882733
:1012F00030E040E0422F33272227820F931FA41FA4
:1013000040917103840F911DA11D9C014A2F2C1B3C
:101310003D0B4E0B20936E0330936F03409370038D
:10132000B0917303BA3020F5E42FE9012496E11D52
:101330002997E105E8F051110C944413C09176030C
:10134000C1110BC071E0E82DE301C054DE47E54058
:10135000C034DE47E54008F089C5F71709F447C4F3
:101360002D5E3F4F4F4F27323105410508F03FC4F6
:101370009FEF9093030260920402709205028092A4
:101380000602FF2309F407C22110A8C31498109283
:101390000B02159810920A0280916A0390916B03D8
:1013A000A0916C03B0916D030196A11DB11D8093B6
:1013B0006A0390936B03A0936C03B0936D037090DA
:1013C0006903772009F4EFC12F9AA1E080906903A7
:1013D0008110A0E0A0936903D0916803DD2319F088
:1013E000D219D0936803522D60900202620C11F062
:1013F00060920202E0910102E50F11F0E093010218
:1014000030910002530F11F05093000220916403B9
:1014100030916503409166035091670321153105B2
:101420004105510509F4C1C1215031094109510952
:1014300020936403309365034093660350936703DE
:10144000B0916203BB2309F45BCEB150B093620349
:1014500057CEC0914903CF5FC0934903C2E0C09308
:10146000610324DC811162CE609160036F3FB1F7AC
:1014700010925F0373E07093610318DC811156CE04
:1014800060916003693721F0FCE7F60FF33070F7E5
:1014900060935E0394E09093610308DC811146CE73
:1014A0008091600380935D03A5E0A0936103FEDB60
:1014B00081113CCE7090600370925C0330926103A6
:1014C000F5DB811133CE8090600380925B039092B4
:1014D0006103ECDB81112ACED0916003D0935A03D3
:1014E00010936103E3DB811121CE5091600350938F
:1014F0005903E9E0E0936103D9DB811117CE6090D5
:101500006003609258033AE030936103CFDB8111AE
:101510000DCE40916003B0915F03842F8B1B8093AD
:101520005F03481396CF70915E03763811F40C94E4
:101530004713743809F49EC4753811F40C949E1343
:10154000793709F08BCF60915D03613009F086CF68
:1015500010926303A0914A03B0914B031196B0938C
:101560004B03A0934A037ACF2FEF20930B021498DA
:1015700075CEF0E08827E355FB4E8F4F0C946D1429
:10158000F0914B02F23009F05AC36090C80065FC3C
:101590009BC4E0914A02E111D8CDE3E0E0936203FD
:1015A00092E090934803D1CDD0914B02D23009F014
:1015B0004AC39091C80095FFECCFF0914D02F09393
:1015C000CE0010934A02D2E0D0934B02DECF50916E
:1015D0004B02523009F062C37090C80075FED9CF3B
:1015E00080904D028092CE0090924A02E2E0E09319
:1015F0004B02DFCF30914B02323009F057C370916C
:10160000C80075FFC6CF60914D026093CE00109266
:101610004D0230924A02A2E0A0934B02DDCF20910E
:101620004B02223009F04AC34091C80045FFB1CFB8
:10163000B0914D02B093CE0010924D0285E08093A0
:101640004A02C2E0C0934B02DACFB0914B02B230F3
:1016500009F0EDC24091C80045FF9BCFB0914D020B
:10166000B093CE0086E880934D02CAE0C0934A0250
:1016700072E070934B021CC040914B02423009F063
:10168000FEC76090C80065FE84CFD0914D02D09314
:10169000CE0059E750934D0234E030934A0222E0E5
:1016A00020934B02C1CF80914B02823009F0BBC224
:1016B0006091C80065FF6DCFA0914D02A093CE0050
:1016C00010924B0210924A02E0E065CFF0E004CEA7
:1016D000EF3F09F460CFCFEFC0934D0272E07093FB
:1016E0004A0260914B02623011F00C9482137090A8
:1016F000C80075FE4ECF80904D028092CE00E1E092
:10170000E0934D0293E090934A02F2E0F0934B0293
:10171000B8CF853009F447C28F3F09F0E4C1E091AA
:10172000EB02E031D0F4E230D8F0E350ED3018F5C0
:10173000F0E08827E555FA4E8F4F0C946D14FF3F6B
:1017400071F38091D402D2E0D093EE0236CD409373
:101750000A02443608F48DCD8BCDEF3F09F4BBCCA3
:10176000A1E0A093D802A093D70264E46093D602CC
:1017700092E09093EB020E9463018111A7CC30901C
:10178000D8029090D702392809F4A4C11AE0109326
:10179000680323E0A0C1149810920B02222009F4E0
:1017A000F8CD159AF7CD2F9810CE41E04093630302
:1017B000C0926403D0926503E0926603F0926703DF
:1017C0003FCE509178039AE090930902A0910802CD
:1017D000CFEFCA0FA13009F083C1BCE3B093080278
:1017E000552341F0D0917703D150D0937703DD2377
:1017F00009F427C360907603662041F08091750359
:10180000815080937503882309F41FC3E091070278
:10181000FFEFFE0FE13009F4F2C1F093070234CD7F
:1018200094E090934803E0914E02EB3008F0BCC086
:10183000E23008F4BCC0E350E83008F0BEC0F0E08D
:101840008827E854FA4E8F4F0C946D14F0914B0298
:10185000F23009F0E4C15091C80055FD2AC3E0916F
:101860004E0299CED0914B02D23009F0E4C1F091F2
:10187000C800F5FFF4CF80904D028092CE00109307
:101880004E02D2E0D0934B02E6CF50914B02523041
:1018900009F0DDC16090C80065FEE1CF70904D0297
:1018A0007092CE0090924E0292E090934B02DFCF66
:1018B00030914B02323009F0F5C16091C80065FFEC
:1018C000CECFA0914D02A093CE0030924E02E2E026
:1018D000E0934B02DFCF20914B02223009F0EAC1A6
:1018E000B091C800B5FFBBCF80914D028093CE0070
:1018F00010924D02C5E0C0934E0272E070934B020D
:10190000DCCF40914B02423009F0B5C68090C80050
:1019100085FEA5CFD0914D02D093CE0050914C02C0
:10192000511108C71092540334E830934D0224E05B
:1019300020934E0242E040934B02D2CF80914B0263
:10194000823009F064C1E091C800E5FF88CF609063
:101950004D026092CE0010924B0280914C0290E0BA
:101960000196B501A7D780934C0210924E02E0E099
:1019700012CEB0914B02B23009F04DC1B091C80007
:10198000B5FF6DCF80914D028093CE00C0914C0287
:10199000C111C1C67BE770934D026AE060934E02AD
:1019A000A2E0A0934B02CFCFEF3F09F4F4CDCFEFED
:1019B000C0934D0272E070934E0260914B02623010
:1019C00009F099C66090C80065FE49CF70904D023D
:1019D0007092CE00E1E0E0934D0293E090934E02CE
:1019E000F2E0F0934B0292CF3090680331106ECB4F
:1019F0001EEB1093D602D4E0D093EB020E94630159
:101A0000811164CB9090D8025091D702952A09F4A5
:101A100061C01092D50245E04093EB020E94D900CC
:101A2000811154CB31E03093D502B6E0B093EB0294
:101A30000E94D90081114ACB82E08093D50267E0F1
:101A40006093EB020E94D900811140CBC3E0C093A8
:101A5000D50278E07093EB020E94D900811136CB59
:101A6000A4E0A093D502E9E0E093EB020E94D90044
:101A700081112CCB95E09093D5022AE02093EB02C4
:101A80000E94D900811122CBF6E0F093D5021BE031
:101A90001093EB020E94D900811118CBD7E0D093AC
:101AA000D5025CE05093EB020E94D90081110ECB6D
:101AB00048E04093D5023DE03093EB020E94D9000C
:101AC000811104CB6090D8026110E7C1B091D702B8
:101AD000B111CEC120E12093EB02F8CA149A57CC81
:101AE000C0930802D1CB9091D10252E05093D4021E
:101AF000923031F09F3F09F412CE42E04093D10280
:101B00006090D0023091CF02631609F408CEE091C4
:101B1000CF02F0E0E15BFD4FB081B093D302809142
:101B2000CF028F5F8F778093CF021092D10290E027
:101B3000BC33D9F663E06093D402C2E0C093D10213
:101B40007090D0027091CF02771609F4E8CDE09141
:101B5000CF02F0E0E15BFD4FA081A093D302E091C2
:101B6000CF02EF5FEF77E093CF021092D10290E0C7
:101B70002FEB2A0F2A3108F0B8CFA093ED02F4E042
:101B8000F093D4020E948002811165C08090D3023C
:101B9000D091ED028D12A7CF5091EC025093D2025A
:101BA00045E04093D4020E948002811154C03091DC
:101BB000D3023E3309F097CF6090D202B091EC028D
:101BC0006B1291CF1092D40280E06091ED026334E9
:101BD00009F4A6C508F044C0613409F4A6C562340E
:101BE00009F0B1CD8090EC0280927203ACCD61E03F
:101BF0006B0F60937303F72F3C018A2EB9CB2CE354
:101C00002093070210927403109273033DCB8F3F11
:101C100009F425CEC5CEBF3F09F421CE51C1FF3F07
:101C200009F41DCE2ECE8F3F09F4B3CC21CDBF3F9A
:101C300009F4AFCC50C1DF3F09F411CE35CEFF3FE0
:101C400009F4A7CCC0CCDF3F09F4A3CCCFCC5F3FD5
:101C500009F405CE3CCE8091D402811160CDB5CF80
:101C60006C3409F070CD7091EC02772309F417C140
:101C7000A0917403AA3008F066CD713009F49AC5BA
:101C800010927803EAE0E093770391E09093760373
:101C9000E0937503AF5FA093740355CD5F3F09F4E4
:101CA00078CCB9CC3F3F09F4DACD27CE3F3F09F4D9
:101CB00070CCC7CC2F3F09F4D2CD3CCE2F3F09F4D6
:101CC00068CCEDCC822CE9EDF2E0712C7CE8A1919E
:101CD000372C36947A26782009F03726932C969460
:101CE0006A2F66956325682109F09726992D9695A8
:101CF0002A2F269526952925282109F09727192F7F
:101D000016955A2F5695569556955927582109F0EC
:101D10001727412F46953A2F32953F7031273821AA
:101D200009F04727D42FD695CA2FC295C695C770FC
:101D3000C427C82109F0D7276D2E66948A2F829573
:101D40008695869583708D27882109F06726762CE5
:101D50007694AA1FAA27AA1FA625A82109F07726EC
:101D600052E0E13EF50709F0B2CFF091E102F7153C
:101D700009F407C5B091F4028B0E09F4ABCE809242
:101D8000F402A8CE722CC2EED2E030E0BCE8899119
:101D9000832E86943827372109F08B26382C3694E9
:101DA000982E96949824972009F03B26632D6695EB
:101DB000782F769576957325772109F06B27A62FD6
:101DC000A695E82FE695E695E695E627E72109F042
:101DD000AB279A2F9695282F22952F702A272721F7
:101DE00009F09B27F92FF695182F12951695177065
:101DF0001927172109F0FB275F2F5695482F429589
:101E00004695469543704F27472109F05B27352FAC
:101E10003695881F8827881F8527872109F03B274B
:101E20004C165D0609F0B3CFD091EA02D31709F43E
:101E300093C46090FB02760C09F448CE7092FB02CA
:101E400045CE1092780350E0D5CC10927603DECCCC
:101E5000A0916303AA2309F4E3CCE0910002EF3FD1
:101E600009F4DECC93E090934803BEC970E075CAD4
:101E70002FE031CE80915D0390E0782E6624F091C2
:101E80005C036F0E711C70924F0360924E03D091F1
:101E90005403DF5FD0935403E1CA2EE01CCE1092AE
:101EA0007803FAE0F093770310927603F0937503CA
:101EB0004ACC30914D023093CE0029E020934E025F
:101EC00042E040934B025ACD50914D025093CE00C8
:101ED00039E030934A0222E020934B02BBCB5DE015
:101EE0005093440334E0309347030E9478038111F8
:101EF0005DC92AE02093440345E0409347030E94D4
:101F00007803811153C910920203B0E2B0934403E5
:101F1000309247030E947803811148C981E480937D
:101F20004403909247030E94780381113FC9609156
:101F30006A0370916B0380916C0390916D036093C1
:101F4000FE027093FF0280930003909301031093AD
:101F500047030E94BD05811129C9CCE2C093440307
:101F600079E0709347030E94780381111FC9609044
:101F7000FD0260920303AAE0A09347030E94E703D7
:101F8000811114C9ECE2E09344039BE09093470372
:101F90000E94780381110AC97090FC0270920303B9
:101FA000FCE0F09347030E94E7038111FFC8DCE2E5
:101FB000D09344035DE0509347030E94780381115E
:101FC000F5C82091790330917A0340917B035091B9
:101FD0007C032093FE023093FF0240930003509352
:101FE00001033EE0309347030E94BD058111DEC826
:101FF0004CE240934403BFE0B09347030E94780350
:102000008111D4C880916E0390916F03A0917003E9
:102010000A2E000CBB0B8093FE029093FF02A0934C
:102020000003B093010380E1809347030E94BD0544
:102030008111BCC88CE28093440361E16093470343
:102040000E9478038111B2C88091730390E0B0E0E0
:10205000A0E08093FE029093FF02A0930003B09350
:102060000103C2E1C09347030E94BD0581119EC8D0
:102070007CE270934403A3E1A09347030E9478039A
:10208000811194C88091040290910502A0910602EA
:10209000B0E08093FE029093FF02A0930003B09300
:1020A0000103E4E1E09347030E94BD0581117EC86E
:1020B00090E290934403F5E1F09347030E94780384
:1020C000811174C8D2E4D093440356E1509347037E
:1020D0000E94780381116AC88090FB0280920303FA
:1020E00027E1209347030E94E70381115FC83CE288
:1020F0003093440348E1409347030E9478038111E1
:1021000055C86090FA0260920303B9E1B0934703A7
:102110000E94E70381114AC88CE2809344036AE17C
:10212000609347030E947803811140C8C091F80270
:10213000D091F902D093F702C093F6027BE170933D
:1021400047030E94FE04811131C8ACE2A09344030E
:10215000ECE1E09347030E947803811127C8709057
:10216000F502709203039DE1909347030E94E703F9
:1021700081111CC8FCE2F0934403DEE1D0934703D5
:102180000E947803811112C85091020250930303F8
:102190002FE1209347030E94E703811107C830E233
:1021A00030934403309347030E94780381110C94C9
:1021B000D60843E440934403B1E2B09347030E943E
:1021C000780381110C94D6088090F4028092030366
:1021D00082E2809347030E94E70381110C94D608A2
:1021E0006CE260934403C3E2C09347030E94780308
:1021F00081110C94D6086090F3026092030374E29C
:10220000709347030E94E70381110C94D608ACE257
:10221000A0934403E5E2E09347030E947803811111
:102220000C94D6082091F1023091F2023093F7021B
:102230002093F60296E2909347030E94FE048111D8
:102240000C94D608FCE2F0934403D7E2D093470302
:102250000E94780381110C94D6087090F00270925D
:10226000030358E2509347030E94E70381110C9443
:10227000D6083CE23093440349E2409347030E946E
:10228000780381110C94D608B0910102B093030336
:102290008AE2809347030E94E70381110C94D608D9
:1022A00060E260934403CBE2C09347030E9478034B
:1022B00081110C94D60874E470934403ACE2A093AB
:1022C00047030E94780381110C94D6088090EF0296
:1022D00080920303EDE2E09347030E94E70381113C
:1022E0000C94D6082CE2209344039EE2909347037B
:1022F0000E94780381110C94D60860904903609283
:102300000303FFE2F09347030E94E70381110C945B
:10231000D608DCE2D093440350E3509347030E9475
:10232000780381110C94D60840914A0350914B03D5
:102330005093F7024093F60231E3309347030E9433
:10234000FE0481110C94D608BCE2B093440382E3EE
:10235000809347030E94780381110C94D608609102
:102360004E0370914F037093F7026093F602C3E33C
:10237000C09347030E94FE0481110C94D6087CE2AE
:1023800070934403A4E3A09347030E947803811150
:102390000C94D608E0915603F0915703F093F7029E
:1023A000E093F60225E3209347030E94FE04811187
:1023B0000C94D6089CE290934403F6E3F093470311
:1023C0000E94780381110C94D60860904C037090A1
:1023D0004D037092F7026092F602D7E3D093470361
:1023E0000E94FE0481110C94D6085CE250934403D1
:1023F00048E3409347030E94780381110C94D60868
:10240000709055037092030339E3309347030E94A1
:10241000E70381110C94D608BCE2B09344038AE32D
:10242000809347030E94780381110C94D608809012
:102430005203809203036BE3609347030E94E70318
:1024400081110C94D608CCE2C09344037CE37093D2
:1024500047030E94780381110C94D608A091500381
:10246000B0915103B093F702A093F602EDE3E0932D
:1024700047030E94FE0481110C94D6082CE220939D
:1024800044039EE3909347030E94780381110C94C8
:10249000D608F0915303F0930303DFE3D09347038F
:1024A0000E94E70381110C94D6085CE25093440328
:1024B00040E4409347030E94780381110C94D608AE
:1024C000609000026092030331E4309347030E945E
:1024D000E70381110C94D608B0E2B093440382E480
:1024E000809347030E94780381110C94D60865E419
:1024F00060934403C3E4C09347030E9478038111AF
:102500000C94D60872B17295717070930303A4E4B1
:10251000A09347030E94E70381110C94D608ECE2D4
:10252000E093440325E4209347030E94780381113C
:102530000C94D60872B075FA882480F88092030350
:1025400096E4909347030E94E70381110C94D60808
:10255000FCE2F0934403D7E4D09347030E9478034E
:1025600081110C94D60841E050917803511101C0BB
:1025700040E04093030338E4309347030E94E703AD
:1025800081110C94D608BCE2B093440389E4809393
:1025900047030E94780381110C94D60861E0609093
:1025A0007603611001C060E060930303CAE4C09346
:1025B00047030E94E70381110C94D6087CE27093D4
:1025C0004403ABE4A09347030E94780381110C9469
:1025D000D608E0917403E09303032CE420934703AF
:1025E0000E94E70381110C94D60890E29093440373
:1025F000FDE4F09347030E94780381110C94D60800
:10260000D4E5D09303035EE4509347030E94E703AD
:1026100081110C94D60840E2409344033FE4309388
:1026200047030E94780381110C94D608709002032E
:1026300070920303B0E5B09347030E94E703811152
:102640000C94D6088DE08093440361E560934703C2
:102650000E94780381110C94D608CAE0C093440309
:1026600072E5709347030E947803882311F40C9459
:10267000AB080C94D6084F3F09F4F1C8B1C94F3FDD
:1026800011F40C94C90A41C8722D0C94AD095091F3
:102690005B0331EE350F3B33D8F420915D0330E01E
:1026A000322F222770905C03270D311D3093570382
:1026B000209356035852509355034091540342308F
:1026C00039F410920002B0915303BF5FB0935303EB
:1026D00080905A03809252038091590390E0982F82
:1026E0008827C09158038C0F911D909351038093BC
:1026F00050030C942E0A6F3F09F4B1C8A2E0A093D6
:102700004B0260C96F3F11F40C94C90AA2E0A09378
:102710004B020C94770BC13009F448C079E73BC9F0
:10272000C091EC02C09303020EC87090EC0270924C
:10273000710309C85130E1F136E8F7C880915B03B5
:1027400090E0F82FEE2790915A03E90FF11DF093D6
:102750004D03E0934C039BCB10920202C091F50213
:10276000CF5FC093F5028091E30290E0982F882715
:102770007090E202870D911D9093F9028093F80208
:10278000A5C910920102E091F002EF5FE093F00220
:102790008091DA0290E0982E88247091D902870EF9
:1027A000911C9092F2028092F10294C97AE7F3C8E8
:1027B00035E8BBC8709378032AE020937703109222
:1027C00076032093750366CA1F921FB61F921124C9
:1027D0002F932BB72F933F938F939F93EF93FF9359
:1027E0003091C6008091D002820D8F77E091CF02A8
:1027F000E817A9F0F091D002EF2FF0E0E15BFD4F78
:1028000030838093D002FF91EF919F918F913F9100
:102810002F912BBF2F911F901FBE1F9018952091B5
:10282000FC02220D2093FC023091FC023111EBCF0F
:102830008091FC0282198093FC02E5CF1F921FB6A3
:102840001F9211242F932BB72F933F938F939F9316
:10285000EF93FF933091CE0080913D02820D8F71F6
:10286000E0913C02E817A9F0F0913D02EF2FF0E073
:10287000E45EFD4F308380933D02FF91EF919F9185
:102880008F913F912F912BBF2F911F901FBE1F90B3
:1028900018952091EF02220D2093EF023091EF0264
:1028A0003111EBCF8091EF0282198093EF02E5CFD7
:1028B00001E0189597FB072E16F4009406D077FDDB
:1028C00008D013D007FC05D03EF4909581959F4F1A
:1028D0000895709561957F4F0895EE0FFF1F881F33
:1028E0008BBF0790F691E02D1994AA1BBB1B51E1F9
:1028F00007C0AA1FBB1FA617B70710F0A61BB70B70
:10290000881F991F5A95A9F780959095BC01CD0114
:102910000895F894FFCFF800FC000001EE00F400E9
:102920000801DE01E401EA01F001D501B901FC0171
:1029300002020802CC01F6010E023D0A4D0A570AB6
:10294000600A690A720A7C0A860A3C0B0F0BFA0AB3
:10295000E70AD40AC00A250B530BBF08D308750F2A
:102960007F0F8A0F930FA90FB30FBE0FC80FD30F9E
:10297000DD0FF40FFE0F1610201034103E1054100F
:102980005E10681073107D1088109210A110AB10AB
:10299000B610C010CB10D410DF10EB10F6100211DF
:1029A0000D111D11281134113F114B1156116111D8
:1029B0006D11781184118F119F11AA11BA11C511CF
:1029C000D511E011F011FB11071212121E1229127B
:1029D0003912441250125B12671272127D128A125F
:1029E0009512A312AE12BE12C912D912E412F0123D
:1029F000FB12061311131D1328133313AB08AB0876
:102A0000AB08AB08AB08AB08AB08AB08AB08AB082E
:102A1000AB08AB08AB08AB08AB08AB08AB08AB081E
:102A2000AB08AB08AB08AB08AB08AB08AB08AB080E
:102A3000AB08AB08AB08AB08AB08AB08AB08AB08FE
:102A4000AB08AB08AB08AB08AB08AB08AB08AB08EE
:102A5000AB08AB08AB08AB08AB08AB08AB08AB08DE
:102A6000AB08AB08AB08AB08AB08AB08AB08AB08CE
:102A7000AB08AB08AB08AB08AB08AB08AB08AB08BE
:102A8000AB08AB08AB08AB08AB08AB08AB08AB08AE
:102A9000AB08AB08AB08AB08AB08AB08AB08AB089E
:102AA000AB08AB08AB08AB08AB08AB08AB08AB088E
:102AB000AB08AB08AB08AB08AB08AB08AB08AB087E
:102AC000AB08AB08AB08AB08AB08AB08AB08AB086E
:102AD000AB08AB08AB08AB08AB08AB08AB08AB085E
:102AE000AB08AB08AB08AB08AB08AB08AB08AB084E
:102AF000AB08AB08AB08AB08AB08AB08AB08AB083E
:102B0000AB08AB08AB08AB08AB08AB08AB08AB082D
:102B1000AB08AB08AB08AB08AB08AB08AB08AB081D
:102B2000AB08AB08AB08AB08AB08AB08AB08AB080D
:102B3000AB08AB08AB08AB08AB08AB08AB08AB08FD
:102B4000AB08AB08AB08AB08AB08AB08AB08AB08ED
:102B5000AB08AB08D608F40CFE0C0E0D180D220DB8
:102B60002C0D360D400D4A0D540D5E0DC20E620E39
:102B7000810C6B0C580C450C320C260CB90C9E0CBD
:102B8000FFFFFFFFE0A5013C3C0AFFFF303132337D
:0C2B90003435363738396162636465669D
:00000001FF
