:1000000071C000008FC000008DC000008BC00000D8
:1000100089C0000087C0000085C0000083C00000C8
:1000200081C000007FC000007DC000007BC00000D8
:1000300079C0000077C0000075C0000073C00000E8
:1000400071C000000C9419156DC000006BC0000059
:1000500069C0000067C0000065C0000063C0000008
:1000600061C000000C94A5145DC000005BC00000DE
:1000700059C0000057C0000055C0000053C0000028
:1000800051C000004FC000004DC000004BC0000038
:100090000C94DF1447C0000045C0000043C00000BE
:1000A00041C000003FC000003DC000003BC0000058
:1000B00039C0000037C0000035C0000033C0000068
:1000C00031C000002FC000002DC000002BC0000078
:1000D00029C0000027C0000025C0000023C0000088
:1000E00021C0000011241FBECFEFD1E2DEBFCDBF83
:1000F00000E00CBF12E0A0E0B2E0E2E0FDE200E0D0
:100100000BBF02C007900D92AE31B107D9F723E0C3
:10011000AEE1B2E001C01D92AD38B207E1F7EFD514
:100120000C944A156DCF9091DA0291111DC0209167
:10013000D90221111FC035E13A95F1F74091DA0259
:10014000411134C05091D90251112BC060E36A951E
:10015000F1F77091DA0271111CC051110EC08CEDD3
:1001600090E00197F1F70895089A10982091D9022C
:10017000222309F3099A1198DECF019BF0CFB091A9
:1001800046028B0F809346028CED90E00197F1F7C9
:100190000895009BE2CFA0914702A80FA0934702C9
:1001A000DCCF0998119A5091D902D0CF0898109AB3
:1001B000C9CF80914802893070F4823008F43DC084
:1001C0008350863008F5E82FF0E08827E45BFA4E8C
:1001D0008F4F0C942E158F3F81F5089580E2A3DF99
:1001E00087E080934802089580E49DDF88E0F9CF9E
:1001F00084E099DF84E0F5CF88E095DF85E0F1CFFA
:1002000080E191DF86E0EDCF82E08DDF83E0E9CF12
:1002100080E889DF8091D70290E0FC01EC51FD4F2E
:1002200020914702208385529D4F30914602FC0168
:1002300030831092480280E0089510924702109295
:10024000460281E070DF82E0CCCF9091DA0291111A
:1002500024C02091D90221111DC04091DA028823C7
:1002600059F085E18A95F1F7411126C03091D90204
:1002700031111FC04091DA02E0EFF0E03197F1F761
:10028000411114C05091D90251110AC065E36A9519
:10029000F1F70895099A1198E0CF089A1098D9CFEC
:1002A0000998119A65E36A95F1F708950898109AEC
:1002B000E9CF0998119ADECF0898109A3091D902A7
:1002C0003323C1F2F6CF80914B028530A1F1B8F40F
:1002D000833009F45AC08430C1F4E0914902E93016
:1002E00028F5E23008F4E9C0E350E63008F0A3C096
:1002F000F0E08827EE5AFA4E8F4F0C942E15863078
:1003000009F18F3F09F09DC00895823009F099C02E
:10031000A8E6B6E01197F1F77091D9029091DA0250
:10032000792B89F510924B0280E00895EF3F09F098
:10033000C4C084E008958091D80280934A0226E0E8
:1003400020934B02E0914902E93070F4E23008F466
:10035000BAC0E350E63008F068C0F0E08827E85AF9
:10036000FA4E8F4F0C942E15EF3F09F0ACC086E08B
:10037000089580914A02807868DF1092490285E0F2
:1003800080934B02089583E0FBCF4CEC40934A02EC
:1003900054E050934B02A1CF80914A02807255DF06
:1003A00037E03093490286E0089580914A028074D4
:1003B0004CDF68E06093490284E0089580914A022E
:1003C000847043DF64E0F6CF80914A0288703DDF9D
:1003D00065E0F0CF80914A02807137DF66E0EACFB6
:1003E00080914A02807231DF67E0E4CF80914A0257
:1003F00080742BDF38E0D5CF80914A02847025DFEE
:1004000034E0CFCF80914A0288701FDF35E0C9CF3A
:1004100080914A02807119DF36E0C3CF80914A0291
:10042000807813DF109249027DCF80914A0282705A
:100430000CDF33E0B6CF80914A02827006DF63E0C2
:10044000B9CFB091DA02B11131C0E091D902EE23F7
:1004500009F468CF099A119880E699E00197F1F7BD
:100460002091DA02211135C03091D902311143C0F7
:10047000A0E4B1E01197F1F74091DA0241112CC0EC
:10048000311102C082E07CCF90B1E1E0B92FB270AF
:1004900091FDE0E0E093D902BB23A1F3F091FA02D1
:1004A000F20D81F3F093FA0282E06ACF089A109875
:1004B000F091D902FF2381F2CDCF80914A02817061
:1004C000C4DE62E077CF80914A028170BEDE32E006
:1004D00068CF0898109AC8CF50B1517061E0652775
:1004E0006093DA02552361F270910103720D41F2BB
:1004F00070930103C5CF0998119A3091D902B8CFF2
:1005000080914502843009F43FC078F4823009F4C8
:1005100094C0833009F08CC0B091D302B23061F046
:10052000BF3F09F0D1C083E00895853009F462C06F
:100530008F3F09F07DC00895E091D202F091D10281
:10054000EF1789F3E091D102F0E0EF5AFD4F3081CF
:100550003093D5024091D1024F5F4F774093D10243
:100560001092D30250ED530F5A3008F09FC06091A3
:10057000EE02762F770F770F760F770F750F709348
:10058000EE02A4E0A0934502B091D302B23009F08C
:100590004AC0E091D202F091D102EF1709F446C0AF
:1005A000E091D102F0E0EF5AFD4F40814093D50237
:1005B0003091D1023F5F3F773093D1021092D30246
:1005C00050ED540F5A3008F071C06091EE0269315D
:1005D00030F0693109F06AC0463308F067C0762F01
:1005E000770F770F760F770F750F7093EE02A5E0F8
:1005F000A0934502B091D302B23041F4E091D2020F
:10060000F091D102EF1342C085E00895BF3FE1F3BE
:1006100082E09091D2022091D102291337C08093B9
:10062000D30285E0F2CFBF3F09F044C084E00895D3
:100630001092EE0282E0809345028091D3028230D4
:1006400029F08F3F09F04AC082E008952091D2023C
:100650009091D102291709F46ECFE091D102F0E018
:10066000EF5AFD4F60816093D5027091D1027F5F98
:100670007F777093D1021092D30260536A30B0F446
:100680006093EE02A3E0A093450246CFE091D10231
:10069000F0E0EF5AFD4F40814093D5023091D102F6
:1006A0003F5F3F773093D1021092D3021092450200
:1006B00080E0089582E09091D2022091D102291326
:1006C0006FCF8093D302B2CF82E09091D20220917B
:1006D000D102291337CF8093D30225CF32E0409146
:1006E000D2025091D1025413B8CF3093D302ACCF81
:1006F00080914202823031F08F3F09F4089582E008
:10070000809342022091C00025FD02C082E008953E
:1007100030914B033093C6004091090360914B0325
:10072000922D542F56954627422111F07CE85727E9
:10073000A52FA695B62FB695B527B92311F0ECE8ED
:10074000AE27FA2FF695862F869586958A278923D8
:1007500011F02CE8F2274F2F4695362F3695369517
:1007600036953F27392311F05CE84527742F76959D
:10077000A62FA295AF70A427A92311F0BCE87B2770
:10078000E72FE695F62FF295F695F770F727F92300
:1007900011F08CE8E8274E2F4695262F22952695B6
:1007A000269523702E27292311F03CE84327542F48
:1007B0005695661F6627661F6427692311F06CE84B
:1007C0005627509309031092420280E008959091B9
:1007D0004102892F933009F483C09F3F09F47FC001
:1007E000923099F0E0910A03EE2309F475C0E031EC
:1007F00008F4F7C0E295EF70F0E0E35FFD4F408151
:1008000040934B0352E050934102609142026230A8
:1008100009F478C06F3F09F072C082E008956091DA
:100820004B036093C6003091090370914B03A22DD6
:10083000B32FB6953727322111F0ECE8BE27FB2FF6
:10084000F695572F56955B275A2311F09CE8F92708
:100850008F2F8695272F269526952F272A2311F04F
:100860004CE88427682F6695372F36953695369550
:1008700038273A2311F0BCE86B27E62FE695F72FCF
:10088000F295FF70F627FA2311F05CE8E5279E2F1A
:100890009695872F8295869587708E278A2311F0EB
:1008A0002CE89227492F4695672F629566956695A5
:1008B000637069276A2311F03CE84327B42FB6958B
:1008C000771F7727771F74277A2311F07CE8B727E3
:1008D000B0930903109242021092410280E0089501
:1008E00080914202823031F44091C00045FD97CFA3
:1008F00083E008958F3F09F070C083E0089572E0AF
:1009000070934202A091C000A5FF87CFB0914B0326
:10091000B093C600E0910903F0914B03922D8E2F06
:100920008695EF27E22111F02CE88227482F469583
:100930003F2F36953827392311F05CE84527642F7F
:1009400066957F2F769576957427792311F0ACE81C
:100950006A27B62FB695EF2FE695E695E695E6273A
:10096000E92311F08CE8B8275B2F56952F2F22959D
:100970002F702B27292311F04CE85427652F6695FB
:100980003F2F3295369537703527392311F07CE8A3
:100990006727A62FA695BF2FB295B695B695B370CB
:1009A000B627B92311F0ECE8AE275A2F5695FF1F52
:1009B000FF27FF1FFA27F92311F0FCE85F27509368
:1009C0000903E0910A03EF70F0E0E35FFD4F9081CF
:1009D00090934B0383E08093410222E020934202F4
:1009E00083CF80914202EF70F0E0E35FFD4F208102
:1009F00020934B0333E03093410274CF8091430244
:100A00008430A9F0F0F4823009F43CC0833079F5E9
:100A10006FDE81114DC0E0910A03EF70F0E0E35FFB
:100A2000FD4F608160934B0374E070934302A0918B
:100A30004202A23059F4E091C000E5FD3DC084E0DF
:100A40000895853071F08F3F91F40895AF3FB9F369
:100A5000B2E0B0934202EFCF90930A0325E02093D7
:100A60004302B5DE882309F484C085E0089590919F
:100A7000FD028091FE02882379F380930A0332E01D
:100A800030934302A4DE811115C0E091FD02E09392
:100A90000A03E295EF70F0E0E35FFD4F4081409381
:100AA0004B0353E05093430223DE882309F4B3CF72
:100AB00083E0089582E00895F0914B03F093C6001F
:100AC0002091090380914B03922D522F5695282790
:100AD000222111F03CE85327452F4695682F669553
:100AE0006527692311F07CE84727A42FA695B82F26
:100AF000B695B695B427B92311F0ECE8AE27FA2FD6
:100B0000F695282F2695269526952A27292311F034
:100B10005CE8F5276F2F6695382F32953F703F2799
:100B2000392311F04CE86427762F7695A82FA295EB
:100B3000A695A770A627A92311F0BCE87B27E72F6D
:100B4000E695F82FF295F695F695F370F727F923C9
:100B500011F02CE8E2275E2F5695881F8827881F02
:100B60008E27892311F08CE858275093090310929F
:100B700042021092430280E0089580914402853041
:100B8000C1F058F5833009F453C08430B1F5B0DDBD
:100B9000811161C0E091FD02E0930A03E295EF70DC
:100BA000F0E0E35FFD4FA081A0934B03B5E0B0936D
:100BB00044029EDD811160C0E0910A03EF70F0E015
:100BC000E35FFD4FE081E0934B03F6E0F0934402D6
:100BD0008FDD882371F086E00895873009F446C0E0
:100BE0008F3F09F40895863009F04AC081DD8111F4
:100BF000F2CF1092440280E00895823009F040C0A4
:100C0000FDDE81113BC040910503E0910603409356
:100C1000FD02E093FE02E0930A03E295EF70F0E03C
:100C2000E35FFD4F508150934B0363E060934402B8
:100C30005FDD811112C0E0910A03EF70F0E0E35F25
:100C4000FD4F708170934B0394E09093440250DD0C
:100C5000882309F49FCF84E0089583E0089590935A
:100C6000FE028093FD0287E080934402C7DE882362
:100C700009F4BFCF87E0089585E0089582E00895E4
:100C80008091050390910603A0910703B09108039A
:100C9000AD01662777274115510509F35093FE02F0
:100CA0004093FD0232E030934402AACF809140028B
:100CB000823031F08F3F09F4089582E08093400242
:100CC00090913F0220913E02921302C082E008956B
:100CD000E0913E02F0E0E25EFD4F30813093670329
:100CE00040913E024F5F4F7140933E025091660328
:100CF000530F509366031092400280E0089522241F
:100D0000239400E09D98A59A6A98729A6B98739ABA
:100D10006C98749A6D98759A6E98769A6F98779A7F
:100D2000809101018E7F8093010110910201116079
:100D300010930201209101012D7F20930101309138
:100D40000201326030930201409101014B7F4093D8
:100D50000101509102015460509302016091010120
:100D6000677F6093010170910201786070930201C6
:100D7000909101019F7E90930101A0910201A061D9
:100D8000A0930201B0910101BF7DB0930101C09118
:100D90000201C062C0930201D0910101DF7BD093B8
:100DA0000101E0910201E064E09302012098289A99
:100DB0002198299A22982A9A23982B9A24982C9A37
:100DC00025982D9A26982E9AF0910101FF77F0939D
:100DD0000101809102018068809302019B98A39A8F
:100DE0009C98A49A10910A011E7F10930A012091E9
:100DF0000B01216020930B0130910A013D7F30935C
:100E00000A0140910B01426040930B0150910A018D
:100E10005B7F50930A0160910B01646060930B014A
:100E200070910A01777F70930A0190910B0198608D
:100E300090930B01A0910A01AF7EA0930A01B0919B
:100E40000B01B061B0930B01C0910A01CF7DC0933B
:100E50000A01D0910B01D062D0930B01E0910A01FD
:100E6000EF7BE0930A01F0910B01F064F0930B012A
:100E700080910A018F7780930A0110910B0110680D
:100E800010930B015098589A5198599A54985C9A1B
:100E900055985D9A56985E9A57985F9A9898A09A36
:100EA0009998A19A3898409A3998419A3A98429AD2
:100EB0003B98439A3C98449A3D98459A3E98469A66
:100EC0003F98479A209104012E7F2093040130918E
:100ED0000501316030930501409104014D7F40933D
:100EE0000401509105015260509305016091040185
:100EF0006B7F60930401709105017460709305012C
:100F000090910401977F90930401A0910501A8603E
:100F1000A0930501B0910401BF7EB0930401C0917C
:100F20000501C061C0930501D0910401DF7DD0931C
:100F30000401E0910501E062E0930501F0910401F4
:100F4000FF7BF0930401809105018064809305018B
:100F50009A98A29A0F98179A0B98139A0A98129A2D
:100F6000109104011F77109304012091050120685E
:100F700020930501309107013F773093070140919D
:100F80000801406840930801509107015F7B50932E
:100F90000701609108016064609308017091070186
:100FA0007F7D7093070190910801906290930801F2
:100FB000A0910701AF7EA0930701B0910801B06135
:100FC000B0930801C0910701C77FC0930701D0917A
:100FD0000801D860D0930801E0910701EB7FE0930E
:100FE0000701F0910801F460F09308018091070176
:100FF0008D7F809307011091080112601093080102
:10100000209107012E7F2093070130910801316064
:101010003093080187988F9A86988E9A85988D9A32
:1010200084988C9A83988B9A82988A9A8198899AC4
:101030000C9A14980D9A15980E9A1698279A48E1CA
:1010400059E20FB6F894A895409360000FBE5093F4
:1010500060000898109A0998119A60E460937C00E7
:1010600077E870937A0090917A00906490937A0078
:101070001092CD00AFECA093CC00B2E0B093C800CA
:10108000C6E0C093CA00D8E9D093C9001092C50049
:10109000A093C400B093C000C093C200D093C1001D
:1010A000E7EAF1E6F0938900E0938800F0916F00A1
:1010B000F260F0936F00809181008B6080938100DB
:1010C00078949CEE492E92E0592EDAE023E0A22E8D
:1010D000B12CCFEFFF24F3941CE3B7E03B2E86E066
:1010E000982E2091890330918A0340918B0350916F
:1010F0008C032F5F3F4F4F4F5F4F0111BEC02093B6
:10110000890330938A0340938B0350938C03A895F3
:1011100070907A0076FC21C0609078007090790021
:10112000E0917A00E064E0937A0060916B03709143
:101130006C0380916D03660D771D811D60936B03B9
:1011400070936C0380936D038091690390916A039F
:10115000019690936A0380936903E0916803EB30F2
:1011600070F4E23008F4B9C1E350E83008F0B8C1D7
:10117000F0E08827E25AFA4E8F4F0C942E15EF3F7D
:1011800009F0ABC1B0914F03B43009F486C308F045
:101190006AC0B23009F051C070906E03772009F434
:1011A0008EC6E0914E03E250EE3F08F420C27091EB
:1011B0004D03E0914C037E1709F4DBC6C0904D034C
:1011C00060904C03C61409F4C1C68EE380934B03B0
:1011D000F2E0F0934E038CDA811114C0E0914C03DD
:1011E000F0E0E55FFC4F808080920A0350914C0351
:1011F0005F5F5F7350934C0323E020934E03E7DA65
:101200008823E1F26091F002623009F0D5C270915A
:10121000D602743009F4EEC408F0B8C2F091D302DB
:10122000723009F49DC4733009F097C4F23009F4A8
:10123000BFC4FF3F09F4B0C2B8C4B33009F0EBC17A
:10124000E0914C02EB3008F082C2E23008F482C236
:10125000E350E83008F083C2F0E08827EA59FA4EFC
:101260008F4F0C942E15BF3F09F0D5C1E0914E036E
:10127000E250EE3F08F09BCFBAC100E02093850317
:101280003093860340938703509388031092890319
:1012900010928A0310928B0310928C0330910C02EF
:1012A00041E0430F3F3F09F49EC140930C02443696
:1012B00008F09BC150910B0261E0650F5F3F09F0A0
:1012C00089C2C0930B02159870910A0291E0970FA2
:1012D0007F3F09F079C2C0930A021698A0910902D3
:1012E000BFEFBA0FA13009F497C2B0930902509131
:1012F0008403C0900402D0900502E09006024E2DB7
:1013000096012F5F3F4F4F4F21158FE238078DE039
:10131000480718F020E030E040E0752F622D5111B1
:101320000FC070908203711010C261E0A42FC90138
:1013300080549E47A54080349E47A54008F005C2D2
:10134000809103028F3F09F453C060907E03712C9B
:10135000812C872C762C662490E0A0E0A82F99277A
:101360008827860D971DA81D80907D03880D911DEF
:10137000A11D3C018A2E6C187D088E08E82C6301A3
:10138000C0927A03D0927B03E0927C03E0917F03CA
:10139000EA3070F5B4E06B0E711C811CF9E06F1639
:1013A0007104810428F151110C94F913B091820356
:1013B000B11111C071E03901842E50E4651A5EE765
:1013C000750A55E0850AB0E46B16BEE77B06B5E00A
:1013D0008B0608F082C5671709F455C4F3E1CF0EF8
:1013E000D11CE11C57E2C516D104E10408F04BC43E
:1013F000C093030220930402309305024093060237
:10140000662309F436C22110A4C3149810920C026A
:10141000159810920B028091760390917703A0911A
:101420007803B09179030196A11DB11D80937603D5
:1014300090937703A0937803B0937903C0907503DA
:10144000CC2009F41EC22F9A91E0D0907503D110E0
:1014500090E090937503E0907403EE2019F0E21889
:10146000E0927403A22DF0910202F20D11F0F093BC
:101470000202509101025A0F11F050930102209183
:101480000002A20F11F0A09300024091700350914E
:1014900071036091720370917303411551056105E9
:1014A000710509F4F0C14150510961097109409376
:1014B00070035093710360937203709373033091C0
:1014C0006E03332309F423CE315030936E031FCEC5
:1014D000B0915003BF5FB0935003B2E0B093680384
:1014E000E5DB81114FCEA0916703AF3FB1F71092BA
:1014F000660373E070936803D9DB811143CEA0913A
:101500006703A93721F09CE79A0F933070F7A093F7
:101510006503F4E0F0936803C9DB811133CE80905A
:1015200067038092640355E050936803BFDB811129
:1015300029CEC0906703C092630390926803B6DB24
:10154000811120CED0906703D0926203309268035D
:10155000ADDB811117CEE0906703E092610328E0D4
:1015600020936803A3DB81110DCE40916703409364
:10157000600339E03093680399DB811103CE7090EA
:10158000670370925F03D093680390DB8111FACDFB
:1015900060906703E0916603862D8E1B809366033F
:1015A000681296CF70916503763811F40C94FC1391
:1015B000743809F496C4753811F40C9460147937B2
:1015C00009F08BCFA0916403A13009F086CF10926F
:1015D0006F03E0915103F09152033196F09352035F
:1015E000E09351037ACFC0930C02149863CEF0E0DD
:1015F0008827E259FA4E8F4F0C942E1590914D0288
:10160000923009F066C38090C80085FC8BC4E091DD
:101610004C02E111C6CDA3E0A0936E03B2E0B093FB
:101620004F03BFCD40914D02423009F056C3C090E8
:10163000C800C5FEECCF60904F026092CE0098E0EB
:1016400090934C0242E040934D02DDCFF0914D0269
:10165000F23009F04AC3B091C800B5FFD8CF7091FD
:101660004F027093CE0030924C02E2E0E0934D02C4
:10167000DECF50914D02523009F04FC33091C80077
:1016800035FFC5CF60914F026093CE0010924F029C
:1016900090924C02A2E0A0934D02DDCF80914D02CA
:1016A000823009F042C3E090C800E5FEB0CF7090F0
:1016B0004F027092CE0010924F0285E080934C0250
:1016C00022E020934D02DACF20914D02223011F01A
:1016D0000C94F3138090C80085FE99CFD0904F02F0
:1016E000D092CE0049E740934F02F4E0F0934C02D1
:1016F00052E050934D02D7CF60914D02623009F015
:10170000D8C23091C80035FF82CF60914F026093FC
:10171000CE0010924D0210924C02E0E07ACF309150
:101720004D02323009F0CDC2E090C800E5FE6FCF27
:1017300070904F027092CE0086E880934F02D09353
:101740004C0222E020934D02DCCF60E0F9CDEF3F68
:1017500009F45FCFC0934F02A2E0A0934C02B09176
:101760004D02B23011F00C943714C090C800C5FE81
:101770004ECF60904F026092CE00F0924F02E3E0B5
:10178000E0934C0292E090934D02A4CF753009F49F
:1017900042C27F3F09F0DFC1E091ED02E03100F588
:1017A000E23008F1E350ED3040F5F0E08827E459ED
:1017B000F94E8F4F0C942E156F3F71F37091D60236
:1017C00032E03093F00225CD90930A02943608F46B
:1017D00085CD83CD60930B02643608F475CD73CD4F
:1017E000EF3F09F47ECCF092DA02F092D90274E471
:1017F0007093D80242E04093ED020E946301811190
:101800006BCCE090DA026090D902E62809F49AC124
:10181000D093740333E097C150918403D0930902AD
:10182000E0910802FFEFFE0FE13009F08FC1109345
:101830000802552341F080918303815080938303F4
:10184000882309F435C360908203662041F020911B
:101850008103215020938103222309F42DC3309169
:1018600007024FEF430F313009F414C240930702CF
:1018700040CD149810920C02222009F4C9CD159A7B
:10188000C8CD2F98E1CDF0926F0340E857E966E0AC
:1018900070E00DCE94E090934F03E0915002EB3056
:1018A00008F0BEC0E23008F4BEC0E350E83008F0F3
:1018B000BFC0F0E08827E758F94E8F4F0C942E15E3
:1018C00040914D02423009F0F8C1D090C800D5FCDB
:1018D0001DC3E09150029DCEF0914D02F23009F00F
:1018E000F4C16090C80065FEF4CF40914F02409370
:1018F000CE0068E0862E80925002F2E0F0934D0216
:10190000E4CF50914D02523009F0EBC1E091C80094
:10191000E5FFDFCFC0904F02C092CE003092500260
:1019200092E090934D02DDCF80914D02823009F01C
:10193000F0C1A091C800A5FFCCCFB0914F02B093E9
:10194000CE009092500272E070934D02DFCF209152
:101950004D02223009F0E5C1E090C800E5FEB9CFA4
:1019600070904F027092CE0010924F0235E030938B
:10197000500262E060934D02DCCF30914D02323074
:1019800009F02DC78090C80085FEA3CFD0904F02EC
:10199000D092CE00F0914E02F1118DC710925B03F0
:1019A00054E850934F0284E08093500222E0209349
:1019B0004D02D2CFA0914D02A23009F072C1B09178
:1019C000C800B5FF86CF70914F027093CE00109281
:1019D0004D0280914E0290E00196B5010E941B15C8
:1019E00080934E0210925002E0E013CE60914D02BF
:1019F000623009F05AC12091C80025FF6ACF70906B
:101A00004F027092CE0030914E02311139C76BE710
:101A100060934F02D0935002A2E0A0934D02CFCF2B
:101A2000EF3F09F4F6CDC0934F02B2E0B0935002FD
:101A300070914D02723009F013C7C090C800C5FE06
:101A400048CF60904F026092CE00F0924F0293E038
:101A50009093500242E040934D0294CF3090740333
:101A600031103ACB1EEB1093D80254E05093ED02A4
:101A70000E946301811130CB9090DA027090D902FC
:101A8000972809F45FC01092D70225E02093ED0259
:101A90000E94D900811120CBF092D70266E06093BA
:101AA000ED020E94D900811117CB32E03093D702AA
:101AB000A7E0A093ED020E94D90081110DCBB3E005
:101AC000B093D70278E07093ED020E94D9008111A3
:101AD00003CBE4E0E093D70249E04093ED020E949B
:101AE000D9008111F9CA95E09093D702D093ED0205
:101AF0000E94D9008111F0CA86E08093D702FBE0F2
:101B0000F093ED020E94D9008111E6CA17E010930C
:101B1000D7025CE05093ED020E94D9008111DCCA2B
:101B200028E02093D7026DE06093ED020E94D90077
:101B30008111D2CA8090DA028110E6C1A091D90247
:101B4000A111CDC130E13093ED02C6CAF093080275
:101B5000D0CB149A5BCCF091D302A2E0A093D60232
:101B6000F23031F0FF3F09F417CEB2E0B093D30268
:101B7000D090D202E090D102DE1409F40DCEE091B3
:101B8000D102F0E0EF5AFD4F70817093D502E091E1
:101B9000D102EF5FEF77E093D1021092D302F0E031
:101BA0007C33D9F643E04093D60292E09093D3027F
:101BB0006090D202C090D1026C1409F4EDCDE09196
:101BC000D102F0E0EF5AFD4F70807092D502809103
:101BD000D1028F5F8F778093D1021092D302F0E011
:101BE0005FEB570D5A3108F0B8CF7092EF0224E046
:101BF0002093D6020E94800281117BC08090D50282
:101C00006091EF028612A7CF3091EE023093D4029A
:101C1000A5E0A093D6020E94800281116AC0B09113
:101C2000D502BE3309F097CFD090D402E090EE02F7
:101C3000DE1091CF1092D60270E0E091EF02E33413
:101C400009F423C608F45AC0E73409F42AC6EC3470
:101C500009F0B6CD8091EE02882309F46EC1F091AF
:101C60008003FA3008F0ACCD813009F467C61092D9
:101C70008403D0938303F0928203D0938103FF5FA8
:101C8000F09380039DCDEF5FE0937F03672F9C016E
:101C90004A2FAECB109307021092800310927F035D
:101CA00028CBAF3F09F415CEB7CE6F3F09F411CE64
:101CB00035C16F3F09F4ABCC44CD4F3F09F409CE99
:101CC0001CCE3F3F09F4A3CC34C1FF3F09F401CE41
:101CD00027CE9F3F09F49BCCB5CC4F3F09F497CC5E
:101CE000C4CC5F3F09F4F5CD2ECEFF3F09F48FCC75
:101CF000D1CC7091D60271114FCD9FCFE13409F450
:101D0000CAC5E23409F05CCDC090EE02C0927E03F9
:101D100057CD8F3F09F4DDCD2CCE5F3F09F477CC52
:101D2000CFCC2F3F09F4D5CD41CE8F3F09F46FCCF6
:101D3000DFCCB22DEBEDF2E0812C7CE84191E82C78
:101D4000E69484268B2209F0E7266E2C6694C42E36
:101D5000C694CE24CB2209F06726362C3694942ED6
:101D60009694969496249B2209F03726732C7694A9
:101D7000342F36953695369533253B2309F0772653
:101D8000972D9695842F82958F7087258B2309F048
:101D90009727192F1695542F5295569557705927F6
:101DA0005B2309F01727612F6695242F229526952E
:101DB0002695237021272B2309F06727862E8694EA
:101DC000441F4427441F46274B2309F0872652E02F
:101DD000E33EF50709F0B2CFF091E302F81509F4FC
:101DE00092C5D090FB02BD0D09F4ACCEB093FB02BE
:101DF000A9CED22CE4EEF2E020E0ACE8B191E22EE4
:101E0000E6942B272D2109F0EA266E2C6694CB2E22
:101E1000C694CE24CD2009F06A26362C36949B2E0B
:101E20009694969496249D2009F03A26732C7694E5
:101E30003B2F36953695369533253D2109F07A2688
:101E4000772D76954B2F42954F7047254D2109F000
:101E50007A27972F96958B2F82958695877087275F
:101E60008D2109F09A27192F16955B2F52955695BB
:101E70005695537059275D2109F01A27212F269571
:101E8000BB1FBB27BB1FB127BD2109F02A274E1658
:101E90005F0609F0B3CFF091EC02F21709F41EC50A
:101EA00060910203D60E09F449CED092020346CEC9
:101EB0001092840350E0C7CC10928203D0CC709172
:101EC0006F03772309F4E6CCE0910002EF3F09F4B9
:101ED000E1CCE3E0E0934F03B3C970E07CCA3FE09C
:101EE00032CE8091640390E0582F4427F091630331
:101EF0004F0F511D509356034093550350915B0370
:101F00005F5F50935B03E9CA3EE01DCE50914F02E4
:101F10005093CE0059E0E52EE092500282E080938B
:101F20004D0269CDD0904F02D092CE00F9E0F093EF
:101F30004C0252E050934D02F7CB10928403D093A1
:101F4000830310928203D09381033ACC9DE0909357
:101F50004B0344E040934E030E947803811152C921
:101F6000D0934B03F5E0F0934E030E947803811168
:101F700049C91092090350E250934B0390924E03CB
:101F80000E94780381113EC981E480934B03309213
:101F90004E030E947803811135C920917603309158
:101FA0007703409178035091790320930503309390
:101FB0000603409307035093080348E0842E809261
:101FC0004E030E94BD0581111DC93CE230934B03B5
:101FD00069E060934E030E947803811113C9D09089
:101FE0000403D0920A03D0934E030E94E7038111A9
:101FF00009C9ACE2A0934B03BBE0B0934E030E942F
:1020000078038111FFC8E0900303E0920A037CE0AB
:1020100070934E030E94E7038111F4C8ECE2E09351
:102020004B039DE090934E030E9478038111EAC810
:1020300040918503509186036091870370918803D6
:1020400040930503509306036093070370930803BE
:10205000FEE0F0934E030E94BD058111D3C85CE2FF
:1020600050934B038FE080934E030E9478038111BD
:10207000C9C880917A0390917B03A0917C030A2EBA
:10208000000CBB0B8093050390930603A0930703FA
:10209000B093080380E180934E030E94BD05811137
:1020A000B1C82CE220934B0331E130934E030E94E0
:1020B00078038111A7C880917F0390E0B0E0A0E091
:1020C0008093050390930603A0930703B09308033E
:1020D00062E160934E030E94BD05811193C8ACE29A
:1020E000A0934B03B3E1B0934E030E947803811198
:1020F00089C88091040290910502A0910602B0E087
:102100008093050390930603A0930703B0930803FD
:1021100074E170934E030E94BD05811173C8E0E223
:10212000E0934B0395E190934E030E947803811155
:1021300069C842E440934B03F6E1F0934E030E94DA
:10214000780381115FC87090020370920A0357E10F
:1021500050934E030E94E703811154C88CE2809390
:102160004B0328E120934E030E94780381114AC853
:10217000C0900103C0920A0339E130934E030E94DC
:10218000E70381113FC86CE260934B03AAE1A0937F
:102190004E030E947803811135C86090FF02709051
:1021A00000037092FE026092FD02BBE1B0934E0309
:1021B0000E94FE04811126C87CE270934B03ECE17F
:1021C000E0934E030E94780381111CC88090FC02AA
:1021D00080920A039DE190934E030E94E7038111D0
:1021E00011C84CE240934B03FEE1F0934E030E9472
:1021F0007803811107C8D0900202D0920A035FE1F0
:1022000050934E030E94E70381110C94020980E26F
:1022100080934B0380934E030E94780381110C94AA
:10222000020923E420934B0331E230934E030E94D2
:10223000780381110C940209E090FB02E0920A03FA
:1022400062E260934E030E94E70381110C9402093D
:10225000ACE2A0934B03B3E2B0934E030E94780329
:1022600081110C9402097090FA0270920A0374E2D0
:1022700070934E030E94E70381110C940209ECE273
:10228000E0934B0395E290934E030E9478038111F3
:102290000C940209C090F802D090F902D092FE028C
:1022A000C092FD0246E240934E030E94FE0481115B
:1022B0000C940209FCE2F0934B0357E250934E0357
:1022C0000E94780381110C9402096090F7026092D9
:1022D0000A0388E280934E030E94E70381110C9465
:1022E00002092CE220934B0339E230934E030E9403
:1022F000780381110C9402098090010280920A03F4
:102300006AE260934E030E94E70381110C94020974
:10231000A0E2A0934B03BBE2B0934E030E9478036C
:1023200081110C94020974E470934B03ECE2E09386
:102330004E030E94780381110C940209D090F6029A
:10234000D0920A039DE290934E030E94E70381110D
:102350000C9402094CE240934B03FEE2F0934E03CF
:102360000E94780381110C940209E0905003E092DE
:102370000A035FE250934E030E94E70381110C941D
:1023800002098CE280934B0320E320934E030E94CA
:10239000780381110C940209C0905103D09052032C
:1023A000D092FE02C092FD0231E330934E030E94B0
:1023B000FE0481110C9402096CE260934B03A2E3CA
:1023C000A0934E030E94780381110C94020960903F
:1023D0005503709056037092FE026092FD02B3E3C3
:1023E000B0934E030E94FE0481110C9402097CE21A
:1023F00070934B03E4E3E0934E030E947803811152
:102400000C94020940915D0350915E035093FE02CB
:102410004093FD0295E390934E030E94FE048111C8
:102420000C940209FCE2F0934B0356E350934E03E5
:102430000E94780381110C940209809153039091BA
:1024400054039093FE028093FD0227E320934E03F2
:102450000E94FE0481110C9402093CE230934B036C
:1024600068E360934E030E94780381110C94020983
:1024700070905C0370920A03A9E3A0934E030E943C
:10248000E70381110C940209BCE2B0934B037AE399
:1024900070934E030E94780381110C94020980907E
:1024A000590380920A03EBE3E0934E030E94E70393
:1024B00081110C9402094CE240934B0310934E039C
:1024C0000E94780381110C940209C0905703D090A8
:1024D0005803D092FE02C092FD029DE390934E03FA
:1024E0000E94FE0481110C940209FCE2F0934B035C
:1024F0005EE350934E030E94780381110C9402090D
:10250000D0905A03D0920A038FE380934E030E9427
:10251000E70381110C9402092CE220934B0330E471
:1025200030934E030E94780381110C940209E090CD
:102530000002E0920A0361E460934E030E94E70305
:1025400081110C940209ACE2A0934B03B2E4B09366
:102550004E030E94780381110C94020962B066FA5E
:10256000772470F870920A0373E470934E030E940C
:10257000E70381110C940209E0E2E0934B0344E489
:1025800040934E030E94780381110C94020995E454
:1025900090934B0390934E030E94780381110C9407
:1025A0000209F2B1F295F170F0930A0356E45093E8
:1025B0004E030E94E70381110C9402098CE2809380
:1025C0004B0327E420934E030E94780381110C945F
:1025D000020982B085FACC24C0F8C0920A0338E41C
:1025E00030934E030E94E70381110C9402096CE2C0
:1025F00060934B03A9E4A0934E030E9478038111DA
:102600000C940209B1E0D0908403D11001C0B0E075
:10261000B0930A037AE470934E030E94E70381119A
:102620000C940209ECE2E0934B034BE440934E031D
:102630000E94780381110C94020991E0E0908203DA
:10264000E11001C090E090930A03FCE4F0934E0384
:102650000E94E70381110C9402095CE250934B0342
:102660008DE480934E030E94780381110C9402093B
:102670006090800360920A032EE420934E030E9430
:10268000E70381110C940209C0906B03D0906C0396
:10269000E0906D03C092F302D092F402E092F50252
:1026A0006091690370916A037093F2026093F10282
:1026B00010926B0310926C0310926D0310926A03D8
:1026C0001092690330E230934B03AFE4A0934E03C2
:1026D0000E94780381110C940209B6E4B0934B0375
:1026E00070E570934E030E94780381110C940209E7
:1026F0008091F3029091F402A091F502B0E08093F2
:10270000050390930603A0930703B0930803E1E544
:10271000E0934E030E94BD0581110C9402094CE226
:1027200040934B0392E590934E030E9478038111EE
:102730000C9402098091F1029091F2029093FE02B2
:102740008093FD02F3E5F0934E030E94FE04811195
:102750000C94020950E250934B0324E520934E035E
:102760000E94780381110C9402096BEC60930A03B8
:1027700035E530934E030E94E70381110C94020962
:10278000A0E2A0934B03B6E5B0934E030E947803FA
:1027900081110C9402097090090370920A0377E585
:1027A00070934E030E94E70381110C940209EDE03F
:1027B000E0934B0348E540934E030E947803811158
:1027C0000C940209D0934B0399E590934E030E9419
:1027D0007803882311F40C94D7080C9402093F3F26
:1027E00009F477C837C92F3F11F40C94070B0C94E8
:1027F000C20B722D0C94EB098091620321EE280F1D
:102800002B33D8F42091640330E0722E662480903C
:102810006303680C711C70925E0360925D038852C2
:1028200080935C0330915B03323039F410920002E4
:1028300060915A036F5F60935A03D0906103D09206
:1028400059038091600390E0B82FAA27E0905F03BE
:10285000AE0DB11DB0935803A09357030C946D0AAD
:102860007F3F09F436C8E2E0E0934D02E6C8BF3F7F
:1028700011F40C94070B72E070934D020C94B50B9D
:10288000313009F455C069E7C3C84091EE02409366
:1028900003020C94E00B6090EE0260927D030C94B6
:1028A000E00B9091EE02992309F444C0169A10921D
:1028B0000A020C94DE0BF13009F43EC056E871C8F0
:1028C0008091620390E0D82ECC2490916103C90ED0
:1028D000D11CD0925403C092530310CB1092020229
:1028E000E091FC02EF5FE093FC028091E50290E052
:1028F000982E8824D090E4028D0C911C90920003B5
:102900008092FF021BC910920102A091F702AF5FF3
:10291000A093F7028091DC0290E0F82FEE27B091AF
:10292000DB02EB0FF11DF093F902E093F8020AC904
:102930006AE76EC81698BBCF55E833C88093840306
:10294000D09383031092820398C91F921FB61F92DF
:1029500011242F932BB72F933F938F939F93EF9334
:10296000FF933091C6008091D202820D8F77E09163
:10297000D102E817A9F0F091D202EF2FF0E0EF5A60
:10298000FD4F30838093D202FF91EF919F918F9101
:102990003F912F912BBF2F911F901FBE1F90189515
:1029A00020910303220D209303033091030331117F
:1029B000EBCF80910303821980930303E5CF1F922D
:1029C0001FB61F9211242F932BB72F933F938F93F2
:1029D0009F93EF93FF933091CE0080913F02820D41
:1029E0008F71E0913E02E817A9F0F0913F02EF2FBE
:1029F000F0E0E25EFD4F308380933F02FF91EF9164
:102A00009F918F913F912F912BBF2F911F901FBEB0
:102A10001F9018952091F602220D2093F602309116
:102A2000F6023111EBCF8091F60282198093F60203
:102A3000E5CF01E0189597FB072E16F4009406D019
:102A400077FD08D013D007FC05D03EF49095819512
:102A50009F4F0895709561957F4F0895EE0FFF1F6A
:102A6000881F8BBF0790F691E02D1994AA1BBB1B02
:102A700051E107C0AA1FBB1FA617B70710F0A61B7E
:102A8000B70B881F991F5A95A9F780959095BC019F
:102A9000CD010895F894FFCFF800FC000001EE008E
:102AA000F4000801DE01E401EA01F001D501B901F9
:102AB000FC0102020802CC01F6010E027C0A8C0A1B
:102AC000960A9F0AA80AB20ABC0AC50A640B4E0BF2
:102AD000390B260B120BFE0A8F0B7C0BEB08FF0841
:102AE000AC0FB50FC00FC90FE10FEB0FF50FFF0FC4
:102AF0000A1014102B1035104D1057106B10751054
:102B00008B1095109F10AA10B410BF10C910D810C8
:102B1000E210ED10F71002110C11171123112E11F4
:102B20003A114511551160116C11771183118E11F5
:102B30009911A511B011BC11C711D711E211F211F1
:102B4000FD110D121812281233123F124A1256129A
:102B5000601270127B12871292129E12A912B71283
:102B6000C212CC12D912E412F212FD120D13181374
:102B7000281333133F13681373138A139513A51384
:102B8000B013BB13C613D213DD13E713D708D7084E
:102B9000D708D708D708D708D708D708D708D7083D
:102BA000D708D708D708D708D708D708D708D7082D
:102BB000D708D708D708D708D708D708D708D7081D
:102BC000D708D708D708D708D708D708D708D7080D
:102BD000D708D708D708D708D708D708D708D708FD
:102BE000D708D708D708D708D708D708D708D708ED
:102BF000D708D708D708D708D708D708D708D708DD
:102C0000D708D708D708D708D708D708D708D708CC
:102C1000D708D708D708D708D708D708D708D708BC
:102C2000D708D708D708D708D708D708D708D708AC
:102C3000D708D708D708D708D708D708D708D7089C
:102C4000D708D708D708D708D708D708D708D7088C
:102C5000D708D708D708D708D708D708D708D7087C
:102C6000D708D708D708D708D708D708D708D7086C
:102C7000D708D708D708D708D708D708D708D7085C
:102C8000D708D708D708D708D708D708D708D7084C
:102C9000D708D708D708D708D708D708D708D7083C
:102CA000D708D708D708D708D708D708D708D7082C
:102CB000D708D708D708D708D708D708D708D7081C
:102CC000D708D708D708D708D708D708D708D7080C
:102CD000D708D708D70802092E0D380D480D510D19
:102CE0005B0D650D6F0D780D820D8C0D960DF90E37
:102CF000990EBD0CA70C940C810C6C0C600CF60C9E
:022D0000DA0CEB
:102D0200FFFFFFFFE0A5013C3C0AFFFFFF3031322D
:0E2D12003334353637383961626364656600E4
:00000001FF
