:1000000071C000008FC000008DC000008BC00000D8
:1000100089C0000087C0000085C0000083C00000C8
:1000200081C000007FC000007DC000007BC00000D8
:1000300079C0000077C0000075C0000073C00000E8
:1000400071C000000C949F156DC000006BC00000D3
:1000500069C0000067C0000065C0000063C0000008
:1000600061C000000C942B155DC000005BC0000057
:1000700059C0000057C0000055C0000053C0000028
:1000800051C000004FC000004DC000004BC0000038
:100090000C94651547C0000045C0000043C0000037
:1000A00041C000003FC000003DC000003BC0000058
:1000B00039C0000037C0000035C0000033C0000068
:1000C00031C000002FC000002DC000002BC0000078
:1000D00029C0000027C0000025C0000023C0000088
:1000E00021C0000011241FBECFEFD1E2DEBFCDBF83
:1000F00000E00CBF12E0A0E0B2E0EEE0FEE200E0C3
:100100000BBF02C007900D92AE31B107D9F723E0C3
:10011000AEE1B2E001C01D92A739B207E1F7EFD519
:100120000C94D0156DCF9091DA0291111DC02091E1
:10013000D90221111FC035E13A95F1F74091DA0259
:10014000411134C05091D90251112BC060E36A951E
:10015000F1F77091DA0271111CC051110EC08CEDD3
:1001600090E00197F1F70895089A10982091D9022C
:10017000222309F3099A1198DECF019BF0CFB091A9
:1001800046028B0F809346028CED90E00197F1F7C9
:100190000895009BE2CFA0914702A80FA0934702C9
:1001A000DCCF0998119A5091D902D0CF0898109AB3
:1001B000C9CF80914802893070F4823008F43DC084
:1001C0008350863008F5E82FF0E08827EE52FA4E8B
:1001D0008F4F0C94B4158F3F81F5089580E2A3DF13
:1001E00087E080934802089580E49DDF88E0F9CF9E
:1001F00084E099DF84E0F5CF88E095DF85E0F1CFFA
:1002000080E191DF86E0EDCF82E08DDF83E0E9CF12
:1002100080E889DF8091D70290E0FC01EC51FD4F2E
:1002200020914702208385529D4F30914602FC0168
:1002300030831092480280E0089510924702109295
:10024000460281E070DF82E0CCCF9091DA0291111A
:1002500024C02091D90221111DC04091DA028823C7
:1002600059F085E18A95F1F7411126C03091D90204
:1002700031111FC04091DA02E0EFF0E03197F1F761
:10028000411114C05091D90251110AC065E36A9519
:10029000F1F70895099A1198E0CF089A1098D9CFEC
:1002A0000998119A65E36A95F1F708950898109AEC
:1002B000E9CF0998119ADECF0898109A3091D902A7
:1002C0003323C1F2F6CF80914B028530A1F1B8F40F
:1002D000833009F45AC08430C1F4E0914902E93016
:1002E00028F5E23008F4E9C0E350E63008F0A3C096
:1002F000F0E08827E852FA4E8F4F0C94B415863000
:1003000009F18F3F09F09DC00895823009F099C02E
:10031000A8E6B6E01197F1F77091D9029091DA0250
:10032000792B89F510924B0280E00895EF3F09F098
:10033000C4C084E008958091D80280934A0226E0E8
:1003400020934B02E0914902E93070F4E23008F466
:10035000BAC0E350E63008F068C0F0E08827E25207
:10036000FA4E8F4F0C94B415EF3F09F0ACC086E005
:10037000089580914A02807868DF1092490285E0F2
:1003800080934B02089583E0FBCF4CEC40934A02EC
:1003900054E050934B02A1CF80914A02807255DF06
:1003A00037E03093490286E0089580914A028074D4
:1003B0004CDF68E06093490284E0089580914A022E
:1003C000847043DF64E0F6CF80914A0288703DDF9D
:1003D00065E0F0CF80914A02807137DF66E0EACFB6
:1003E00080914A02807231DF67E0E4CF80914A0257
:1003F00080742BDF38E0D5CF80914A02847025DFEE
:1004000034E0CFCF80914A0288701FDF35E0C9CF3A
:1004100080914A02807119DF36E0C3CF80914A0291
:10042000807813DF109249027DCF80914A0282705A
:100430000CDF33E0B6CF80914A02827006DF63E0C2
:10044000B9CFB091DA02B11131C0E091D902EE23F7
:1004500009F468CF099A119880E699E00197F1F7BD
:100460002091DA02211135C03091D902311143C0F7
:10047000A0E4B1E01197F1F74091DA0241112CC0EC
:10048000311102C082E07CCF90B1E1E0B92FB270AF
:1004900091FDE0E0E093D902BB23A1F3F091FF02CC
:1004A000F20D81F3F093FF0282E06ACF089A109870
:1004B000F091D902FF2381F2CDCF80914A02817061
:1004C000C4DE62E077CF80914A028170BEDE32E006
:1004D00068CF0898109AC8CF50B1517061E0652775
:1004E0006093DA02552361F270910603720D41F2B6
:1004F00070930603C5CF0998119A3091D902B8CFED
:1005000080914502843009F43FC078F4823009F4C8
:1005100094C0833009F08CC0B091D302B23061F046
:10052000BF3F09F0D1C083E00895853009F462C06F
:100530008F3F09F07DC00895E091D202F091D10281
:10054000EF1789F3E091D102F0E0EF5AFD4F3081CF
:100550003093D5024091D1024F5F4F774093D10243
:100560001092D30250ED530F5A3008F09FC06091A3
:10057000EE02762F770F770F760F770F750F709348
:10058000EE02A4E0A0934502B091D302B23009F08C
:100590004AC0E091D202F091D102EF1709F446C0AF
:1005A000E091D102F0E0EF5AFD4F40814093D50237
:1005B0003091D1023F5F3F773093D1021092D30246
:1005C00050ED540F5A3008F071C06091EE0269315D
:1005D00030F0693109F06AC0463308F067C0762F01
:1005E000770F770F760F770F750F7093EE02A5E0F8
:1005F000A0934502B091D302B23041F4E091D2020F
:10060000F091D102EF1342C085E00895BF3FE1F3BE
:1006100082E09091D2022091D102291337C08093B9
:10062000D30285E0F2CFBF3F09F044C084E00895D3
:100630001092EE0282E0809345028091D3028230D4
:1006400029F08F3F09F04AC082E008952091D2023C
:100650009091D102291709F46ECFE091D102F0E018
:10066000EF5AFD4F60816093D5027091D1027F5F98
:100670007F777093D1021092D30260536A30B0F446
:100680006093EE02A3E0A093450246CFE091D10231
:10069000F0E0EF5AFD4F40814093D5023091D102F6
:1006A0003F5F3F773093D1021092D3021092450200
:1006B00080E0089582E09091D2022091D102291326
:1006C0006FCF8093D302B2CF82E09091D20220917B
:1006D000D102291337CF8093D30225CF32E0409146
:1006E000D2025091D1025413B8CF3093D302ACCF81
:1006F00080914202823031F08F3F09F4089582E008
:10070000809342022091C00025FD02C082E008953E
:10071000309150033093C60040910E036091500316
:10072000922D542F56954627422111F07CE85727E9
:10073000A52FA695B62FB695B527B92311F0ECE8ED
:10074000AE27FA2FF695862F869586958A278923D8
:1007500011F02CE8F2274F2F4695362F3695369517
:1007600036953F27392311F05CE84527742F76959D
:10077000A62FA295AF70A427A92311F0BCE87B2770
:10078000E72FE695F62FF295F695F770F727F92300
:1007900011F08CE8E8274E2F4695262F22952695B6
:1007A000269523702E27292311F03CE84327542F48
:1007B0005695661F6627661F6427692311F06CE84B
:1007C000562750930E031092420280E008959091B4
:1007D0004102892F933009F483C09F3F09F47FC001
:1007E000923099F0E0910F03EE2309F475C0E031E7
:1007F00008F4F7C0E295EF70F0E0E35FFD4F408151
:100800004093500352E050934102609142026230A3
:1008100009F478C06F3F09F072C082E008956091DA
:1008200050036093C60030910E0370915003A22DC7
:10083000B32FB6953727322111F0ECE8BE27FB2FF6
:10084000F695572F56955B275A2311F09CE8F92708
:100850008F2F8695272F269526952F272A2311F04F
:100860004CE88427682F6695372F36953695369550
:1008700038273A2311F0BCE86B27E62FE695F72FCF
:10088000F295FF70F627FA2311F05CE8E5279E2F1A
:100890009695872F8295869587708E278A2311F0EB
:1008A0002CE89227492F4695672F629566956695A5
:1008B000637069276A2311F03CE84327B42FB6958B
:1008C000771F7727771F74277A2311F07CE8B727E3
:1008D000B0930E03109242021092410280E00895FC
:1008E00080914202823031F44091C00045FD97CFA3
:1008F00083E008958F3F09F070C083E0089572E0AF
:1009000070934202A091C000A5FF87CFB091500321
:10091000B093C600E0910E03F0915003922D8E2FFC
:100920008695EF27E22111F02CE88227482F469583
:100930003F2F36953827392311F05CE84527642F7F
:1009400066957F2F769576957427792311F0ACE81C
:100950006A27B62FB695EF2FE695E695E695E6273A
:10096000E92311F08CE8B8275B2F56952F2F22959D
:100970002F702B27292311F04CE85427652F6695FB
:100980003F2F3295369537703527392311F07CE8A3
:100990006727A62FA695BF2FB295B695B695B370CB
:1009A000B627B92311F0ECE8AE275A2F5695FF1F52
:1009B000FF27FF1FFA27F92311F0FCE85F27509368
:1009C0000E03E0910F03EF70F0E0E35FFD4F9081C5
:1009D0009093500383E08093410222E020934202EF
:1009E00083CF80914202EF70F0E0E35FFD4F208102
:1009F0002093500333E03093410274CF809143023F
:100A00008430A9F0F0F4823009F43CC0833079F5E9
:100A10006FDE81114DC0E0910F03EF70F0E0E35FF6
:100A2000FD4F60816093500374E070934302A09186
:100A30004202A23059F4E091C000E5FD3DC084E0DF
:100A40000895853071F08F3F91F40895AF3FB9F369
:100A5000B2E0B0934202EFCF90930F0325E02093D2
:100A60004302B5DE882309F484C085E0089590919F
:100A7000020380910303882379F380930F0332E00C
:100A800030934302A4DE811115C0E0910203E0938C
:100A90000F03E295EF70F0E0E35FFD4F408140937C
:100AA000500353E05093430223DE882309F4B3CF6D
:100AB00083E0089582E00895F0915003F093C6001A
:100AC00020910E0380915003922D522F5695282786
:100AD000222111F03CE85327452F4695682F669553
:100AE0006527692311F07CE84727A42FA695B82F26
:100AF000B695B695B427B92311F0ECE8AE27FA2FD6
:100B0000F695282F2695269526952A27292311F034
:100B10005CE8F5276F2F6695382F32953F703F2799
:100B2000392311F04CE86427762F7695A82FA295EB
:100B3000A695A770A627A92311F0BCE87B27E72F6D
:100B4000E695F82FF295F695F695F370F727F923C9
:100B500011F02CE8E2275E2F5695881F8827881F02
:100B60008E27892311F08CE8582750930E0310929A
:100B700042021092430280E0089580914402853041
:100B8000C1F058F5833009F453C08430B1F5B0DDBD
:100B9000811161C0E0910203E0930F03E295EF70D1
:100BA000F0E0E35FFD4FA081A0935003B5E0B09368
:100BB00044029EDD811160C0E0910F03EF70F0E010
:100BC000E35FFD4FE081E0935003F6E0F0934402D1
:100BD0008FDD882371F086E00895873009F446C0E0
:100BE0008F3F09F40895863009F04AC081DD8111F4
:100BF000F2CF1092440280E00895823009F040C0A4
:100C0000FDDE81113BC040910A03E0910B0340934C
:100C10000203E0930303E0930F03E295EF70F0E02B
:100C2000E35FFD4F50815093500363E060934402B3
:100C30005FDD811112C0E0910F03EF70F0E0E35F20
:100C4000FD4F70817093500394E09093440250DD07
:100C5000882309F49FCF84E0089583E0089590935A
:100C600003038093020387E080934402C7DE882356
:100C700009F4BFCF87E0089585E0089582E00895E4
:100C800080910A0390910B03A0910C03B0910D0386
:100C9000AD01662777274115510509F350930303EA
:100CA0004093020332E030934402AACF8091400285
:100CB000823031F08F3F09F4089582E08093400242
:100CC00090913F0220913E02921302C082E008956B
:100CD000E0913E02F0E0E25EFD4F308130936C0324
:100CE00040913E024F5F4F7140933E0250916B0323
:100CF000530F50936B031092400280E0089522241A
:100D0000239400E09D98A59A6A98729A6B98739ABA
:100D10006C98749A6D98759A6E98769A6F98779A7F
:100D2000809101018E7F8093010110910201116079
:100D300010930201209101012D7F20930101309138
:100D40000201326030930201409101014B7F4093D8
:100D50000101509102015460509302016091010120
:100D6000677F6093010170910201786070930201C6
:100D7000909101019F7E90930101A0910201A061D9
:100D8000A0930201B0910101BF7DB0930101C09118
:100D90000201C062C0930201D0910101DF7BD093B8
:100DA0000101E0910201E064E09302012098289A99
:100DB0002198299A22982A9A23982B9A24982C9A37
:100DC00025982D9A26982E9AF0910101FF77F0939D
:100DD0000101809102018068809302019B98A39A8F
:100DE0009C98A49A10910A011E7F10930A012091E9
:100DF0000B01216020930B0130910A013D7F30935C
:100E00000A0140910B01426040930B0150910A018D
:100E10005B7F50930A0160910B01646060930B014A
:100E200070910A01777F70930A0190910B0198608D
:100E300090930B01A0910A01AF7EA0930A01B0919B
:100E40000B01B061B0930B01C0910A01CF7DC0933B
:100E50000A01D0910B01D062D0930B01E0910A01FD
:100E6000EF7BE0930A01F0910B01F064F0930B012A
:100E700080910A018F7780930A0110910B0110680D
:100E800010930B015098589A5198599A54985C9A1B
:100E900055985D9A56985E9A57985F9A9898A09A36
:100EA0009998A19A3898409A3998419A3A98429AD2
:100EB0003B98439A3C98449A3D98459A3E98469A66
:100EC0003F98479A209104012E7F2093040130918E
:100ED0000501316030930501409104014D7F40933D
:100EE0000401509105015260509305016091040185
:100EF0006B7F60930401709105017460709305012C
:100F000090910401977F90930401A0910501A8603E
:100F1000A0930501B0910401BF7EB0930401C0917C
:100F20000501C061C0930501D0910401DF7DD0931C
:100F30000401E0910501E062E0930501F0910401F4
:100F4000FF7BF0930401809105018064809305018B
:100F50009A98A29A0F98179A0B98139A0A98129A2D
:100F6000109104011F77109304012091050120685E
:100F700020930501309107013F773093070140919D
:100F80000801406840930801509107015F7B50932E
:100F90000701609108016064609308017091070186
:100FA0007F7D7093070190910801906290930801F2
:100FB000A0910701AF7EA0930701B0910801B06135
:100FC000B0930801C0910701C77FC0930701D0917A
:100FD0000801D860D0930801E0910701EB7FE0930E
:100FE0000701F0910801F460F09308018091070176
:100FF0008D7F809307011091080112601093080102
:10100000209107012E7F2093070130910801316064
:101010003093080187988F9A86988E9A85988D9A32
:1010200084988C9A83988B9A82988A9A0C9A1498AE
:101030000D9A15980E9A1698279A48E159E20FB61C
:10104000F894A895409360000FBE509360000898F4
:10105000109A0998119A60E460937C0077E8709385
:101060007A0090917A00906490937A001092CD006B
:10107000AFECA093CC00B2E0B093C800C6E0C09340
:10108000CA00D8E9D093C9001092C500A093C4004B
:10109000B093C000C093C200D093C100E7EAF1E66C
:1010A000F0938900E0938800F0916F00F260F09374
:1010B0006F00809181008B60809381007894CCEEEA
:1010C0004C2EC2E05C2EDAE0FD2E13E0A12EB12CF6
:1010D000CFEFD1E011E4A9E03A2EB8E09B2E2091A9
:1010E00093033091940340919503509196032F5FA1
:1010F0003F4F4F4F5F4F0111C6C020939303309372
:1011000094034093950350939603A89580907A009A
:1011100086FC29C06090780070907900B0917703C8
:10112000B11167C210937C0070917A007064709363
:101130007A00D0937703C0907403D0907503E09049
:101140007603C60CD71CE11CC0927403D0927503C1
:10115000E0927603A0917203B09173031196B0935D
:101160007303A0937203E0916D03EB3070F4E230EF
:1011700008F4B9C1E350E83008F0B8C1F0E08827BE
:10118000EC51FA4E8F4F0C94B415EF3F09F0ABC100
:1011900090915403943009F4A8C308F06AC09230C7
:1011A00009F051C080907803882009F4B2C6E0911C
:1011B0005303E250EE3F08F43FC250915203609057
:1011C0005103561509F4FCC6209152034091510376
:1011D000241709F4E2C66EE36093500392E0909303
:1011E000530386DA811114C0E0915103F0E0E05F0F
:1011F000FC4F708070920F03509151035F5F5F73DB
:101200005093510383E080935303E1DA8823E1F2A2
:101210003091F002323009F0F5C2A091D602A4302C
:1012200009F410C508F0D8C29091D302A23009F495
:10123000BFC4A33009F0B9C4923009F4E1C49F3FA0
:1012400009F4D0C2DAC4933009F00AC2E0914C022A
:10125000EB3008F0A2C2E23008F4A2C2E350E8305A
:1012600008F0A3C2F0E08827E451FA4E8F4F0C94A7
:10127000B4159F3F09F0F4C1E0915303E250EE3FF3
:1012800008F09BCFD9C100E020938F0330939003E7
:1012900040939103509392031092930310929403FE
:1012A000109295031092960330910C0241E0430F87
:1012B0003F3F09F4BDC140930C02443608F0BAC167
:1012C00050910B0261E0650F5F3F09F0A9C2C09326
:1012D0000B02159870910A0291E0970F7F3F09F079
:1012E00099C2C0930A021698A0910902BFEFBA0FE3
:1012F000A13009F4B7C2B093090250918E03C09097
:101300000402D0900502E09006024E2D96012F5F58
:101310003F4F4F4F21158FE238078DE0480718F0F7
:1013200020E030E040E0752F622D51110FC0609138
:101330008C03611130C261E0A42FC90180549E4723
:10134000A54080349E47A54008F025C28091030245
:101350008F3F09F453C060908803712C812C872C37
:10136000762C662490E0A0E0A82F99278827860D88
:10137000971DA81DB09187038B0F911DA11D3C01E6
:101380008A2E6C187D088E08E82C6301C0928403B5
:10139000D0928503E0928603E0918903EA3070F5EC
:1013A000B4E06B0E711C811CF9E06F1671048104AE
:1013B00028F151110C947D14F0918C03F11111C09E
:1013C00071E03901842E50E4651A5EE7750A55E034
:1013D000850AB0E46B16BEE77B06B5E08B0608F025
:1013E000A6C5671709F463C4F3E1CF0ED11CE11C55
:1013F00057E2C516D104E10408F059C4C0930302B2
:10140000209304023093050240930602662309F4F8
:1014100058C22110C3C3149810920C021598109250
:101420000B028091800390918103A0918203B0917F
:1014300083030196A11DB11D8093800390938103C6
:10144000A0938203B0938303C0907F03CC2009F460
:1014500040C22F9A91E0D0907F03D11090E09093FA
:101460007F03E0907E03EE2019F0E218E0927E0305
:10147000A22D50910202520D11F050930202709071
:1014800001027A0E11F07092010220910002A20F67
:1014900011F0A093000240917A0350917B03609178
:1014A0007C0370917D03411551056105710509F4B7
:1014B00012C2415051096109710940937A03509356
:1014C0007B0360937C0370937D0330917803332317
:1014D00009F41BCE31503093780317CE9091550309
:1014E0009F5F9093550392E090936D03DFDB811132
:1014F0004FCE20916C032F3FB1F710926B0353E056
:1015000050936D03D3DB811143CE20916C032937B7
:1015100021F04CE7420F433070F720936A0334E028
:1015200030936D03C3DB811133CED0906C03D09226
:101530006903B5E0B0936D03B9DB811129CEE0906A
:101540006C03E0926803E6E0E0936D03AFDB81118A
:101550001FCE70906C0370926703F7E0F0936D03F9
:10156000A5DB811115CE80906C038092660390926A
:101570006D039CDB81110CCE60906C03609265035F
:1015800030926D0393DB811103CE60916C03609305
:101590006403F0926D038ADB8111FACD70916C03C4
:1015A00080916B03C72EC81AC0926B037C1196CF33
:1015B00050916A03563811F40C948014543809F48D
:1015C000BAC4553811F40C94E514593709F08BCF8F
:1015D00020916903213009F086CF10927903E091C0
:1015E0005603F09157033196F0935703E093560357
:1015F0007ACFE0E4E0937C00F0917A00F064F0931D
:101600007A001092770360917003709171036615F0
:10161000770520F4709271036092700380916E03DD
:1016200090916F03019690936F0380936E039BCD0F
:10163000C0930C02149844CEF0E08827EC50FA4E88
:101640008F4F0C94B41540914D02423009F057C3AE
:10165000D090C800D5FC8EC4E0914C02E111A7CD1A
:10166000E3E0E093780392E090935403A0CD60917F
:101670004D02623009F047C3C090C800C5FEECCFF0
:10168000E0904F02E092CE0090924C0262E06093B4
:101690004D02DECF30914D02323009F060C35091DF
:1016A000C80055FFD9CF60904F026092CE0027E06E
:1016B00020934C0242E040934D02DECFF0914D0268
:1016C000F23009F05CC37090C80075FEC5CF809001
:1016D0004F028092CE0010924F02F5E0F0934C0240
:1016E00072E070934D0205C0B0914D02B23009F026
:1016F0003EC38091C80085FFAFCFA0914F02A09359
:10170000CE0010924F02E6E0E0934C0292E09093FC
:101710004D02C5CF70914D02723011F00C947714C8
:10172000E090C800E5FE98CFD0904F02D092CE0056
:1017300069E760934F0234E030934C02B2E0B0931B
:101740004D02C1CF80914D02823009F0D0C270901D
:10175000C80075FE81CF80904F028092CE00F6E8DF
:10176000F0934F02F0924C0272E070934D0205C06C
:10177000A0914D02A23009F0B2C28091C80085FF4D
:101780006BCFA0914F02A093CE0010924D02109209
:101790004C02E0E063CF60E0D9CDEF3F09F45ECFCB
:1017A000C0934F02E2E0E0934C0290914D029230E0
:1017B00011F00C94BC146090C80065FE4DCFC09031
:1017C0004F02C092CE00D0934F0223E020934C02F0
:1017D00042E040934D02A4CFA53009F444C2AF3F8C
:1017E00009F0E1C1E091ED02E03100F5E23008F1ED
:1017F000E350ED3040F5F0E08827EE50F94E8F4F82
:101800000C94B4153F3F71F3A091D602B2E0B093AF
:10181000F00205CD90930A02943608F465CD63CDAD
:1018200060930B02643608F455CD53CDEF3F09F4B5
:1018300056CCD093DA02D093D90274E47093D802D4
:1018400042E04093ED020E946301811143CCE0909D
:10185000DA026090D902E62809F49CC1F0927E0376
:1018600023E099C150918E03F0920902E0910802A1
:10187000FFEFFE0FE13009F093C1FCE36F2E6092A1
:101880000802552341F080918D03815080938D0390
:10189000882309F43AC370908C03772041F020919B
:1018A0008B03215020938B03222309F42BC3309107
:1018B00007024FEF430F313009F400C24093070293
:1018C0001ECD149810920C02222009F4A7CD159A6F
:1018D000A6CD2F98BFCDD093790340E857E966E0B5
:1018E00070E0EBCD44E040935403E0915002EB30C4
:1018F00008F0BEC0E23008F4BEC0E350E83008F0A3
:10190000BFC0F0E08827E150F94E8F4F0C94B4151A
:1019100060914D02623009F0E6C1B091C800B5FD9A
:101920001FC3E09150029ACE30914D02323009F03F
:10193000E2C1E090C800E5FEF4CFD0904F02D09213
:10194000CE009092500232E030934D02E6CFB0913B
:101950004D02B23009F0DBC16090C80065FEE1CFF6
:10196000C0904F02C092CE0047E04093500262E028
:1019700060934D02DECFF0914D02F23009F0F3C1D9
:10198000E091C800E5FFCDCF90914F029093CE003B
:1019900056E05093500222E020934D02DDCF70912B
:1019A0004D02723009F0E7C17090C80075FEB9CFE2
:1019B00080904F028092CE0010924F0285E080937B
:1019C0005002A2E0A0934D02DBCF80914D02823005
:1019D00009F089C7E090C800E5FEA3CFD0904F0280
:1019E000D092CE0030914E023111EAC710926003BE
:1019F000B4E8B0934F02F4E0F093500272E07093B9
:101A00004D02D2CFE0914D02E23009F060C19091D9
:101A1000C80095FF86CF50914F025093CE00109290
:101A20004D0280914E0290E00196B5010E94A115F1
:101A300080934E0210925002E0E010CEA0914D0231
:101A4000A23009F048C17090C80075FE6ACF80903E
:101A50004F028092CE0080914E02811196C7ABE773
:101A6000A0934F02F0925002E2E0E0934D02CFCFFC
:101A7000EF3F09F4F3CDC0934F0292E090935002F0
:101A800050914D02523009F06FC76090C80065FE5A
:101A900048CFC0904F02C092CE00D0934F0243E097
:101AA0004093500262E060934D0294CF30907E03E9
:101AB000311010CB1EEB1093D80254E05093ED027E
:101AC0000E946301811106CB9090DA02D090D90276
:101AD0009D2809F45FC01092D70285E08093ED0243
:101AE0000E94D9008111F6CAD093D70236E0309314
:101AF000ED020E94D9008111EDCAB2E0B093D70285
:101B0000F7E0F093ED020E94D9008111E3CA23E0CF
:101B10002093D702A8E0A093ED020E94D900811182
:101B2000D9CA74E07093D702E9E0E093ED020E9415
:101B3000D9008111CFCA45E04093D702F092ED025F
:101B40000E94D9008111C6CA66E06093D7029BE06B
:101B50009093ED020E94D9008111BCCA17E0109346
:101B6000D7025CE05093ED020E94D9008111B2CA05
:101B700088E08093D7023DE03093ED020E94D900C7
:101B80008111A8CA7090DA027110E8C1B091D9022F
:101B9000B111CFC120E12093ED029CCA149A3CCC34
:101BA000F0930802ACCB9091D302F2E0F093D6020E
:101BB000923031F09F3F09F415CE22E02093D302FA
:101BC0008090D202E090D1028E1409F40BCEE09105
:101BD000D102F0E0EF5AFD4FA081A093D5027091A1
:101BE000D1027F5F7F777093D1021092D30290E091
:101BF000AC33D9F6E3E0E093D60242E04093D3025F
:101C00006090D202C090D1026C1409F4EBCDE09147
:101C1000D102F0E0EF5AFD4FD080D092D502609112
:101C2000D1026F5F6F776093D1021092D30290E080
:101C30005FEB5D0D5A3108F0B8CFD092EF0284E02F
:101C40008093D6020E948002811165C07090D502F7
:101C50003091EF027312A7CFB091EE02B093D4028D
:101C6000F5E0F093D6020E948002811154C02091C9
:101C7000D5022E3309F097CF8090D402E090EE0287
:101C80008E1091CF1092D602A0E07091EF027334C3
:101C900009F490C608F044C0713409F47BC672346C
:101CA00009F0B4CDC090EE02C0928803AFCDEF5FD3
:101CB000E0938903672F9C014A2FA0CBECE38E2E83
:101CC0008092070210928A031092890318CBEF3F8B
:101CD00009F427CEC9CEAF3F09F423CE47C1AF3FA9
:101CE00009F4BACC41CD6F3F09F41BCE2CCE8F3F07
:101CF00009F4B2CC45C13F3F09F413CE38CE4F3F73
:101D000009F4AACCC3CC6F3F09F4A6CCD3CCBF3F17
:101D100009F407CE40CEA091D602A11163CDB5CF74
:101D2000773409F43DC67C3409F070CD6091EE0241
:101D3000662309F429C190918A039A3008F066CD90
:101D4000613009F481C610928E03F0928D03D09316
:101D50008C03F0928B039F5F90938A0357CD3F3F94
:101D600009F47ACCD3CCFF3F09F4DBCD2ACEBF3FB8
:101D700009F472CCB5CC7F3F09F4D3CD3FCEFF3F01
:101D800009F46ACCDBCCA22DEBEDF2E0812C7CE8EF
:101D90004191E82CE69484268A2209F0E7266E2CED
:101DA0006694C42EC694CE24CA2209F06726362C27
:101DB0003694942E9694969496249A2209F0372677
:101DC000D32CD694242F26952695269523252A2391
:101DD00009F0D7266D2D6695942F92959F709D25BD
:101DE0009A2309F06727162F1695542F529556956A
:101DF000577056275A2309F01727312F3695842F0D
:101E0000829586958695837081278A2309F03727E6
:101E1000832E8694441F4427441F43274A2309F0F6
:101E2000872652E0E33EF50709F0B2CFF091E302D6
:101E3000F81509F4EDC570900003A70D09F4AACEBA
:101E4000A0930003A7CE822CE4EEF2E030E0BCE8E1
:101E5000A191E32EE6943A27382109F0EB266E2C67
:101E60006694CA2EC694CE24C82009F06B26362C60
:101E700036949A2E969496949624982009F03B26B0
:101E8000D32CD6942A2F26952695269523252821CE
:101E900009F0DB267D2D76954A2F42954F704D2512
:101EA000482109F07B27672F66959A2F9295969582
:101EB00097709727982109F06B27162F16955A2FA0
:101EC00052955695569553705627582109F01B2761
:101ED000312F3695AA1FAA27AA1FA127A82109F0EA
:101EE0003B274E165F0609F0B3CFF091EC02F317D3
:101EF00009F479C580910703880E09F447CE8092D2
:101F0000070344CE10928C03D2CC10928E0350E083
:101F1000C2CC50917903552309F4E4CC20910002FE
:101F20002F3F09F4DFCC23E0209354038FC970E0E6
:101F300058CA2FE030CE8091690390E0782F662751
:101F400030916803630F711D70935B0360935A03B4
:101F5000B0916003BF5FB0936003C5CA2EE01BCE93
:101F6000F0914F02F093CE003092500272E07093E5
:101F70004D0269CD30914F023093CE0030924C0229
:101F8000B2E0B0934D02E3CB10928E03F0928D033A
:101F900010928C03F0928B0339CC6DE06093500368
:101FA00034E0309353030E947803811131C9F092D9
:101FB0005003B5E0B09353030E947803811128C900
:101FC00010920E03F0E2F093500376E07093530307
:101FD0000E94780381111CC91093500387E08093FD
:101FE00053030E947803811113C92091800330911B
:101FF0008103409182035091830320930A0330931D
:102000000B0340930C0350930D03909253030E94D3
:10201000BD058111FDC8ACE2A0935003309253037B
:102020000E9478038111F4C8C0900903C0920F0385
:10203000F09253030E94E7038111EAC8ECE2E093B7
:1020400050039BE0909353030E9478038111E0C8F2
:10205000E0900803E0920F035CE0509353030E946A
:10206000E7038111D5C84CE2409350036DE06093C3
:1020700053030E9478038111CBC880918F03909104
:102080009003A0919103B091920380930A039093DF
:102090000B03A0930C03B0930D033EE03093530366
:1020A0000E94BD058111B4C8BCE2B0935003FFE0AB
:1020B000F09353030E9478038111AAC8809184038E
:1020C00090918503A09186030A2E000CBB0B809390
:1020D0000A0390930B03A0930C03B0930D0380E1CC
:1020E000809353030E94BD05811192C87CE27093D6
:1020F000500321E1209353030E947803811188C883
:102100008091890390E0B0E0A0E080930A0390936F
:102110000B03A0930C03B0930D03A2E1A093530310
:102120000E94BD05811174C8ECE2E093500393E175
:10213000909353030E94780381116AC8809104022E
:1021400090910502A0910602B0E080930A0390935B
:102150000B03A0930C03B0930D0354E1509353036E
:102160000E94BD05811154C840E24093500365E1CF
:10217000609353030E94780381114AC882E48093DC
:10218000500336E1309353030E947803811140C815
:10219000D0900703D0920F03B7E1B09353030E948E
:1021A000E703811135C8FCE2F093500378E17093A6
:1021B00053030E94780381112BC87090060370921C
:1021C0000F0329E1209353030E94E703811120C8E4
:1021D000ACE2A0935003EAE1E09353030E9478033A
:1021E000811116C860900403709005037092030378
:1021F000609202039BE1909353030E94FE048111BD
:1022000007C85CE2509350034CE1409353030E9493
:10221000780381110C9408098090010380920F03C8
:102220006DE1609353030E94E70381110C94080948
:102230008CE2809350033EE1309353030E94780375
:1022400081110C940809C0900202C0920F03BFE1F3
:10225000B09353030E94E70381110C940809F0E244
:10226000F0935003F09353030E94780381110C9470
:10227000080973E47093500321E2209353030E94F2
:10228000780381110C940809E0900003E0920F0399
:10229000A2E2A09353030E94E70381110C94080962
:1022A000ECE2E093500393E2909353030E9478038F
:1022B00081110C940809D090FF02D0920F0354E2D0
:1022C000509353030E94E70381110C9408094CE2D8
:1022D0004093500365E2609353030E947803811199
:1022E0000C9408096090FD027090FE027092030346
:1022F0006092020386E2809353030E94FE048111E0
:102300000C9408093CE230935003B7E2B0935303B6
:102310000E94780381110C9408097090FC0270925D
:102320000F03F8E2F09353030E94E70381110C942A
:1023300008097CE27093500329E2209353030E9422
:10234000780381110C9408098090010280920F0398
:10235000AAE2A09353030E94E70381110C94080999
:10236000E0E2E09350039BE2909353030E947803D2
:1023700081110C94080954E4509350034CE24093AB
:1023800053030E94780381110C940809C090FB024A
:10239000C0920F036DE2609353030E94E703811123
:1023A0000C9408098CE2809350033EE2309353036F
:1023B0000E94780381110C940809E0905503E09283
:1023C0000F03BFE2B09353030E94E70381110C9403
:1023D0000809FCE2F093500370E3709353030E94EA
:1023E000780381110C94080960905603709057038C
:1023F000709203036092020321E3209353030E942F
:10240000FE0481110C940809ACE2A0935003E2E3AE
:10241000E09353030E94780381110C9408094091C2
:102420005A0350915B03509303034093020393E3D9
:10243000909353030E94FE0481110C9408095CE2FE
:102440005093500364E3609353030E947803811117
:102450000C940809C0906203D0906303D0920303E8
:10246000C092020385E3809353030E94FE0481110E
:102470000C9408093CE230935003B6E3B093530345
:102480000E94780381110C940809609058037090A1
:1024900059037092030360920203F7E3F09353032E
:1024A0000E94FE0481110C9408097CE27093500391
:1024B00028E3209353030E94780381110C940809A8
:1024C000D0906103D0920F03A9E3A09353030E941D
:1024D000E70381110C940809ECE2E09350034AE30E
:1024E000409353030E94780381110C940809709063
:1024F0005E0370920F039BE3909353030E94E703E4
:1025000081110C9408095CE2509350036CE36093D2
:1025100053030E94780381110C940809C0905C0356
:10252000D0905D03D0920303C09202038DE38093A9
:1025300053030E94FE0481110C9408093CE230937D
:102540005003BEE3B09353030E94780381110C94AF
:10255000080980905F0380920F03FFE3F093530319
:102560000E94E70381110C9408097CE270935003E8
:1025700020E4209353030E94780381110C940809EE
:10258000E0900002E0920F03109353030E94E703D0
:1025900081110C940809ACE2A0935003E2E4E093AB
:1025A00053030E94780381110C94080962B066FA03
:1025B000DD24D0F8D0920F0343E4409353030E94EC
:1025C000E70381110C94080990E29093500354E4BE
:1025D000509353030E94780381110C94080965E419
:1025E00060935003609353030E94780381110C940D
:1025F000080982B18295817080930F0336E430938D
:1026000053030E94E70381110C940809BCE2B093C4
:102610005003F7E4F09353030E94780381110C9464
:10262000080972B075FACC24C0F8C0920F0378E4A0
:10263000709353030E94E70381110C9408092CE264
:1026400020935003A9E4A09353030E9478038111BF
:102650000C940809E1E080908E03811001C0E0E055
:10266000E0930F034AE4409353030E94E703811170
:102670000C9408099CE2909350035BE4509353033D
:102680000E94780381110C94080961E0E0908C03AA
:10269000E11001C060E060930F038CE4809353036A
:1026A0000E94E70381110C9408093CE23093500327
:1026B000BDE4B09353030E94780381110C94080980
:1026C00060908A0360920F03FEE4F09353030E942C
:1026D000E70381110C940809C0907403D09075032E
:1026E000E0907603C092F802D092F902E092FA02EA
:1026F00020917203309173033093F7022093F60216
:102700008091700390917103A0E08093F302909305
:10271000F402A093F502A0916E03B0916F03B09301
:10272000F202A093F10210927403109275031092BA
:102730007603109273031092720310927103109239
:10274000700310926F0310926E0370E27093500347
:10275000EFE4E09353030E94780381110C9408097D
:1027600046E44093500390E5909353030E9478030E
:1027700081110C9408098091F8029091F902A091BE
:10278000FA02B0E080930A0390930B03A0930C032A
:10279000B0930D0351E5509353030E94BD05811181
:1027A0000C9408096CE26093500382E58093530314
:1027B0000E94780381110C9408096090F6027090D1
:1027C000F702709203036092020333E530935303E0
:1027D0000E94FE0481110C940809B0E2B0935003EA
:1027E000F4E5F09353030E94780381110C940809D7
:1027F00027E420935003A5E5A09353030E94780398
:1028000081110C940809C090F302D090F402D09288
:102810000303C092020376E5709353030E94FE0403
:1028200081110C940809ECE2E093500347E54093D2
:1028300053030E94780381110C9408096091F102FE
:102840007091F202709303036093020398E59093F2
:1028500053030E94FE0481110C94080950E2509326
:10286000500389E5809353030E94780381110C94EF
:10287000080931E730930F03BAE5B09353030E9480
:10288000E70381110C940809F0E2F09350032BE563
:10289000209353030E94780381110C940809D0906F
:1028A0000E03D0920F03ACE5A09353030E94E703FD
:1028B00081110C9408097DE070935003EDE5E093DD
:1028C00053030E94780381110C940809F09250037D
:1028D0004EE5409353030E947803882311F40C942F
:1028E000DD080C9408098F3F09F41BC8DBC87F3F43
:1028F00011F40C942C0B0C94E80B722D0C94F10930
:10290000F091670371EE7F0F7B33D8F42091690358
:1029100030E0D22ECC24E0906803CE0CD11CD092B3
:102920006303C0926203F852F093610380916003E5
:10293000823039F410920002A0915F03AF5FA09340
:102940005F03D0906603D0925E038091650390E0B0
:10295000F82FEE2770906403E70DF11DF0935D03EF
:10296000E0935C030C94730A5F3F11F40C94910C98
:1029700022E020934D0289C89F3F11F40C942C0B48
:1029800052E050934D020C94DB0B813009F455C09A
:10299000A9E766C86090EE02609287030C94060C6B
:1029A0004091EE02442309F44AC0169A10920A029A
:1029B0000C94040CE091EE02E09303020C94060CDC
:1029C000313009F43EC0B6E814C88091670390E046
:1029D000782E662440916603640E711C7092590330
:1029E00060925803B5CA10920202E0910103EF5FB2
:1029F000E09301038091E50290E0982E8824709086
:102A0000E402870C911C9092050380920403BEC8D7
:102A100010920102B091FC02BF5FB093FC02809162
:102A2000DC0290E0B82FAA27E091DB02AE0FB11DC7
:102A3000B093FE02A093FD02ADC8AAE711C8169894
:102A4000B5CFB5E80C94F90C60938E03F0928D032A
:102A500010928C037EC91F921FB61F9211242F93D0
:102A60002BB72F933F938F939F93EF93FF933091C7
:102A7000C6008091D202820D8F77E091D102E817D3
:102A8000A9F0F091D202EF2FF0E0EF5AFD4F308322
:102A90008093D202FF91EF919F918F913F912F915F
:102AA0002BBF2F911F901FBE1F90189520910803D8
:102AB000220D20930803309108033111EBCF809150
:102AC0000803821980930803E5CF1F921FB61F9257
:102AD00011242F932BB72F933F938F939F93EF93B3
:102AE000FF933091CE0080913F02820D8F71E09173
:102AF0003E02E817A9F0F0913F02EF2FF0E0E25E0E
:102B0000FD4F308380933F02FF91EF919F918F9112
:102B10003F912F912BBF2F911F901FBE1F90189593
:102B20002091FB02220D2093FB023091FB02311118
:102B3000EBCF8091FB0282198093FB02E5CF01E08D
:102B4000189597FB072E16F4009406D077FD08D051
:102B500013D007FC05D03EF4909581959F4F0895C2
:102B6000709561957F4F0895EE0FFF1F881F8BBFF3
:102B70000790F691E02D1994AA1BBB1B51E107C0E9
:102B8000AA1FBB1FA617B70710F0A61BB70B881FFD
:102B9000991F5A95A9F780959095BC01CD0108958C
:102BA000F894FFCFF800FC000001EE00F4000801EB
:102BB000DE01E401EA01F001D501B901FC010202E4
:102BC0000802CC01F6010E02820A920A9C0AA60AA9
:102BD000B00AB90AC20ACB0A8A0B5E0B740B4A0B05
:102BE000370B230BA20BB80BF1080509D30FDC0F31
:102BF000E80FF10F071010101A1024102F103910C1
:102C000050105A1072107C1090109A10B010BA1018
:102C1000C410CF10D910E410EE10FD1007111311DD
:102C20001E112A1134113F114B11561162116D11F1
:102C30007D11881194119F11AB11B611C111CD11E5
:102C4000D811E411EF11FF110A121A1225123512D0
:102C5000401250125B12671272127E128912991280
:102C6000A412B012BB12C612D112DF12EA12F41271
:102C700001130C131A1325133513401350135B1350
:102C80006713AB13B613CD13D813E813F313FE1366
:102C90000E141914291434143F144A1456146114D0
:102CA0006B14DD08DD08DD08DD08DD08DD08DD0862
:102CB000DD08DD08DD08DD08DD08DD08DD08DD08EC
:102CC000DD08DD08DD08DD08DD08DD08DD08DD08DC
:102CD000DD08DD08DD08DD08DD08DD08DD08DD08CC
:102CE000DD08DD08DD08DD08DD08DD08DD08DD08BC
:102CF000DD08DD08DD08DD08DD08DD08DD08DD08AC
:102D0000DD08DD08DD08DD08DD08DD08DD08DD089B
:102D1000DD08DD08DD08DD08DD08DD08DD08DD088B
:102D2000DD08DD08DD08DD08DD08DD08DD08DD087B
:102D3000DD08DD08DD08DD08DD08DD08DD08DD086B
:102D4000DD08DD08DD08DD08DD08DD08DD08DD085B
:102D5000DD08DD08DD08DD08DD08DD08DD08DD084B
:102D6000DD08DD08DD08DD08DD08DD08DD08DD083B
:102D7000DD08DD08DD08DD08DD08DD08DD08DD082B
:102D8000DD08DD08DD08DD08DD08DD08DD08DD081B
:102D9000DD08DD08DD08DD08DD08DD08DD08DD080B
:102DA000DD08DD08DD08DD08DD08DD08DD08DD08FB
:102DB000DD08DD08DD08DD08DD08DD08DD08DD08EB
:102DC000DD08DD08DD08DD08DD08DD08DD08DD08DB
:102DD000DD08DD08DD08DD08DD08DD08DD08DD08CB
:102DE000DD080809560D600D700D790D830D8D0DF0
:102DF000970DA00DAA0DB40DBE0D230FC30EE50C4B
:0E2E0000CF0CBB0CA70C940C880C1E0D020D01
:102E0E00FFFFFFFFE0A5013C3C0AFFFFFF30313220
:0E2E1E003334353637383961626364656600D7
:00000001FF
