:1000000071C000008FC000008DC000008BC00000D8
:1000100089C0000087C0000085C0000083C00000C8
:1000200081C000007FC000007DC000007BC00000D8
:1000300079C0000077C0000075C0000073C00000E8
:1000400071C000000C945A146DC000006BC0000019
:1000500069C0000067C0000065C0000063C0000008
:1000600061C000000C94E6135DC000005BC000009E
:1000700059C0000057C0000055C0000053C0000028
:1000800051C000004FC000004DC000004BC0000038
:100090000C94201447C0000045C0000043C000007D
:1000A00041C000003FC000003DC000003BC0000058
:1000B00039C0000037C0000035C0000033C0000068
:1000C00031C000002FC000002DC000002BC0000078
:1000D00029C0000027C0000025C0000023C0000088
:1000E00021C0000011241FBECFEFD1E2DEBFCDBF83
:1000F00000E00CBF12E0A0E0B2E0E4E8FBE200E0C8
:100100000BBF02C007900D92AC31B107D9F723E0C5
:10011000ACE1B2E001C01D92A138B207E1F7EFD522
:100120000C948B146DCF9091D80291111DC0209129
:10013000D70221111FC035E13A95F1F74091D8025D
:10014000411134C05091D70251112BC060E36A9520
:10015000F1F77091D80271111CC051110EC08CEDD5
:1001600090E00197F1F70895089A10982091D7022E
:10017000222309F3099A1198DECF019BF0CFB091A9
:1001800044028B0F809344028CED90E00197F1F7CD
:100190000895009BE2CFA0914502A80FA0934502CD
:1001A000DCCF0998119A5091D702D0CF0898109AB5
:1001B000C9CF80914602893070F4823008F43DC086
:1001C0008350863008F5E82FF0E08827E357FB4E90
:1001D0008F4F0C946F148F3F81F5089580E2A3DF59
:1001E00087E080934602089580E49DDF88E0F9CFA0
:1001F00084E099DF84E0F5CF88E095DF85E0F1CFFA
:1002000080E191DF86E0EDCF82E08DDF83E0E9CF12
:1002100080E889DF8091D50290E0FC01EE51FD4F2E
:1002200020914502208387529D4F30914402FC016A
:1002300030831092460280E0089510924502109299
:10024000440281E070DF82E0CCCF9091D80291111E
:1002500024C02091D70221111DC04091D8028823CB
:1002600059F085E18A95F1F7411126C03091D70206
:1002700031111FC04091D802E0EFF0E03197F1F763
:10028000411114C05091D70251110AC065E36A951B
:10029000F1F70895099A1198E0CF089A1098D9CFEC
:1002A0000998119A65E36A95F1F708950898109AEC
:1002B000E9CF0998119ADECF0898109A3091D702A9
:1002C0003323C1F2F6CF809149028530A1F1B8F411
:1002D000833009F45AC08430C1F4E0914702E93018
:1002E00028F5E23008F4E9C0E350E63008F0A3C096
:1002F000F0E08827ED56FB4E8F4F0C946F1486303C
:1003000009F18F3F09F09DC00895823009F099C02E
:10031000A8E6B6E01197F1F77091D7029091D80254
:10032000792B89F51092490280E00895EF3F09F09A
:10033000C4C084E008958091D6028093480226E0EC
:1003400020934902E0914702E93070F4E23008F46A
:10035000BAC0E350E63008F068C0F0E08827E756FE
:10036000FB4E8F4F0C946F14EF3F09F0ACC086E04A
:10037000089580914802807868DF1092470285E0F6
:1003800080934902089583E0FBCF4CEC40934802F0
:1003900054E050934902A1CF80914802807255DF0A
:1003A00037E03093470286E00895809148028074D8
:1003B0004CDF68E06093470284E008958091480232
:1003C000847043DF64E0F6CF8091480288703DDF9F
:1003D00065E0F0CF80914802807137DF66E0EACFB8
:1003E00080914802807231DF67E0E4CF809148025B
:1003F00080742BDF38E0D5CF80914802847025DFF0
:1004000034E0CFCF8091480288701FDF35E0C9CF3C
:1004100080914802807119DF36E0C3CF8091480295
:10042000807813DF109247027DCF8091480282705E
:100430000CDF33E0B6CF80914802827006DF63E0C4
:10044000B9CFB091D802B11131C0E091D702EE23FB
:1004500009F468CF099A119880E699E00197F1F7BD
:100460002091D802211135C03091D702311143C0FB
:10047000A0E4B1E01197F1F74091D80241112CC0EE
:10048000311102C082E07CCF90B1E1E0B92FB270AF
:1004900091FDE0E0E093D702BB23A1F3F091F302DA
:1004A000F20D81F3F093F30282E06ACF089A10987C
:1004B000F091D702FF2381F2CDCF80914802817065
:1004C000C4DE62E077CF809148028170BEDE32E008
:1004D00068CF0898109AC8CF50B1517061E0652775
:1004E0006093D802552361F27091FA02720D41F2C5
:1004F0007093FA02C5CF0998119A3091D702B8CFFC
:1005000080914302843009F43FC078F4823009F4CA
:1005100094C0833009F08CC0B091D102B23061F048
:10052000BF3F09F0D1C083E00895853009F462C06F
:100530008F3F09F07DC00895E091D002F091CF0285
:10054000EF1789F3E091CF02F0E0E15BFD4F3081DE
:100550003093D3024091CF024F5F4F774093CF0249
:100560001092D10250ED530F5A3008F09FC06091A5
:10057000EC02762F770F770F760F770F750F70934A
:10058000EC02A4E0A0934302B091D102B23009F092
:100590004AC0E091D002F091CF02EF1709F446C0B3
:1005A000E091CF02F0E0E15BFD4F40814093D30248
:1005B0003091CF023F5F3F773093CF021092D1024C
:1005C00050ED540F5A3008F071C06091EC0269315F
:1005D00030F0693109F06AC0463308F067C0762F01
:1005E000770F770F760F770F750F7093EC02A5E0FA
:1005F000A0934302B091D102B23041F4E091D00215
:10060000F091CF02EF1342C085E00895BF3FE1F3C0
:1006100082E09091D0022091CF02291337C08093BD
:10062000D10285E0F2CFBF3F09F044C084E00895D5
:100630001092EC0282E0809343028091D1028230DA
:1006400029F08F3F09F04AC082E008952091D0023E
:100650009091CF02291709F46ECFE091CF02F0E01C
:10066000E15BFD4F60816093D3027091CF027F5FA9
:100670007F777093CF021092D10260536A30B0F44A
:100680006093EC02A3E0A093430246CFE091CF0237
:10069000F0E0E15BFD4F40814093D3023091CF0207
:1006A0003F5F3F773093CF021092D1021092430206
:1006B00080E0089582E09091D0022091CF0229132A
:1006C0006FCF8093D102B2CF82E09091D00220917F
:1006D000CF02291337CF8093D10225CF32E040914A
:1006E000D0025091CF025413B8CF3093D102ACCF87
:1006F00080914002823031F08F3F09F4089582E00A
:10070000809340022091C00025FD02C082E0089540
:10071000309144033093C60040910203609144033A
:10072000922D542F56954627422111F07CE85727E9
:10073000A52FA695B62FB695B527B92311F0ECE8ED
:10074000AE27FA2FF695862F869586958A278923D8
:1007500011F02CE8F2274F2F4695362F3695369517
:1007600036953F27392311F05CE84527742F76959D
:10077000A62FA295AF70A427A92311F0BCE87B2770
:10078000E72FE695F62FF295F695F770F727F92300
:1007900011F08CE8E8274E2F4695262F22952695B6
:1007A000269523702E27292311F03CE84327542F48
:1007B0005695661F6627661F6427692311F06CE84B
:1007C0005627509302031092400280E008959091C2
:1007D0003F02892F933009F483C09F3F09F47FC003
:1007E000923099F0E0910303EE2309F475C0E031F3
:1007F00008F4F7C0E295EF70F0E0E45FFD4F408150
:100800004093440352E050933F02609140026230B3
:1008100009F478C06F3F09F072C082E008956091DA
:1008200044036093C6003091020370914403A22DEB
:10083000B32FB6953727322111F0ECE8BE27FB2FF6
:10084000F695572F56955B275A2311F09CE8F92708
:100850008F2F8695272F269526952F272A2311F04F
:100860004CE88427682F6695372F36953695369550
:1008700038273A2311F0BCE86B27E62FE695F72FCF
:10088000F295FF70F627FA2311F05CE8E5279E2F1A
:100890009695872F8295869587708E278A2311F0EB
:1008A0002CE89227492F4695672F629566956695A5
:1008B000637069276A2311F03CE84327B42FB6958B
:1008C000771F7727771F74277A2311F07CE8B727E3
:1008D000B09302031092400210923F0280E008950C
:1008E00080914002823031F44091C00045FD97CFA5
:1008F00083E008958F3F09F070C083E0089572E0AF
:1009000070934002A091C000A5FF87CFB09144032F
:10091000B093C600E0910203F0914403922D8E2F14
:100920008695EF27E22111F02CE88227482F469583
:100930003F2F36953827392311F05CE84527642F7F
:1009400066957F2F769576957427792311F0ACE81C
:100950006A27B62FB695EF2FE695E695E695E6273A
:10096000E92311F08CE8B8275B2F56952F2F22959D
:100970002F702B27292311F04CE85427652F6695FB
:100980003F2F3295369537703527392311F07CE8A3
:100990006727A62FA695BF2FB295B695B695B370CB
:1009A000B627B92311F0ECE8AE275A2F5695FF1F52
:1009B000FF27FF1FFA27F92311F0FCE85F27509368
:1009C0000203E0910303EF70F0E0E45FFD4F9081DC
:1009D0009093440383E080933F0222E020934002FF
:1009E00083CF80914002EF70F0E0E45FFD4F208103
:1009F0002093440333E030933F0274CF809141024F
:100A00008430A9F0F0F4823009F43CC0833079F5E9
:100A10006FDE81114DC0E0910303EF70F0E0E45F01
:100A2000FD4F60816093440374E070934102A09194
:100A30004002A23059F4E091C000E5FD3DC084E0E1
:100A40000895853071F08F3F91F40895AF3FB9F369
:100A5000B2E0B0934002EFCF9093030325E02093E0
:100A60004102B5DE882309F484C085E008959091A1
:100A7000F6028091F702882379F38093030332E032
:100A800030934102A4DE811115C0E091F602E0939B
:100A90000303E295EF70F0E0E45FFD4F4081409387
:100AA000440353E05093410223DE882309F4B3CF7B
:100AB00083E0089582E00895F0914403F093C60026
:100AC0002091020380914403922D522F569528279E
:100AD000222111F03CE85327452F4695682F669553
:100AE0006527692311F07CE84727A42FA695B82F26
:100AF000B695B695B427B92311F0ECE8AE27FA2FD6
:100B0000F695282F2695269526952A27292311F034
:100B10005CE8F5276F2F6695382F32953F703F2799
:100B2000392311F04CE86427762F7695A82FA295EB
:100B3000A695A770A627A92311F0BCE87B27E72F6D
:100B4000E695F82FF295F695F695F370F727F923C9
:100B500011F02CE8E2275E2F5695881F8827881F02
:100B60008E27892311F08CE85827509302031092A6
:100B700040021092410280E0089580914202853047
:100B8000C1F058F5833009F453C08430B1F5B0DDBD
:100B9000811161C0E091F602E0930303E295EF70EA
:100BA000F0E0E45FFD4FA081A0934403B5E0B09373
:100BB00042029EDD811160C0E0910303EF70F0E01E
:100BC000E45FFD4FE081E0934403F6E0F0934202DE
:100BD0008FDD882371F086E00895873009F446C0E0
:100BE0008F3F09F40895863009F04AC081DD8111F4
:100BF000F2CF1092420280E00895823009F040C0A6
:100C0000FDDE81113BC04091FE02E091FF02409366
:100C1000F602E093F702E0930303E295EF70F0E051
:100C2000E45FFD4F50815093440363E060934202C0
:100C30005FDD811112C0E0910303EF70F0E0E45F2B
:100C4000FD4F70817093440394E09093420250DD15
:100C5000882309F49FCF84E0089583E0089590935A
:100C6000F7028093F60287E080934202C7DE882372
:100C700009F4BFCF87E0089585E0089582E00895E4
:100C80008091FE029091FF02A0910003B0910103B8
:100C9000AD01662777274115510509F35093F702F7
:100CA0004093F60232E030934202AACF80913E0296
:100CB000823031F08F3F09F4089582E080933E0244
:100CC00090913D0220913C02921302C082E008956F
:100CD000E0913C02F0E0E45EFD4F30813093600330
:100CE00040913C024F5F4F7140933C0250915F0333
:100CF000530F50935F0310923E0280E00895222428
:100D0000239400E09D98A59A6A98729A6B98739ABA
:100D10006C98749A6D98759A6E98769A6F98779A7F
:100D2000809101018E7F8093010110910201116079
:100D300010930201209101012D7F20930101309138
:100D40000201326030930201409101014B7F4093D8
:100D50000101509102015460509302016091010120
:100D6000677F6093010170910201786070930201C6
:100D7000909101019F7E90930101A0910201A061D9
:100D8000A0930201B0910101BF7DB0930101C09118
:100D90000201C062C0930201D0910101DF7BD093B8
:100DA0000101E0910201E064E09302012098289A99
:100DB0002198299A22982A9A23982B9A24982C9A37
:100DC00025982D9A26982E9AF0910101FF77F0939D
:100DD0000101809102018068809302019B98A39A8F
:100DE0009C98A49A10910A011E7F10930A012091E9
:100DF0000B01216020930B0130910A013D7F30935C
:100E00000A0140910B01426040930B0150910A018D
:100E10005B7F50930A0160910B01646060930B014A
:100E200070910A01777F70930A0190910B0198608D
:100E300090930B01A0910A01AF7EA0930A01B0919B
:100E40000B01B061B0930B01C0910A01CF7DC0933B
:100E50000A01D0910B01D062D0930B01E0910A01FD
:100E6000EF7BE0930A01F0910B01F064F0930B012A
:100E700080910A018F7780930A0110910B0110680D
:100E800010930B015098589A5198599A54985C9A1B
:100E900055985D9A56985E9A57985F9A9898A09A36
:100EA0009998A19A3898409A3998419A3A98429AD2
:100EB0003B98439A3C98449A3D98459A3E98469A66
:100EC0003F98479A209104012E7F2093040130918E
:100ED0000501316030930501409104014D7F40933D
:100EE0000401509105015260509305016091040185
:100EF0006B7F60930401709105017460709305012C
:100F000090910401977F90930401A0910501A8603E
:100F1000A0930501B0910401BF7EB0930401C0917C
:100F20000501C061C0930501D0910401DF7DD0931C
:100F30000401E0910501E062E0930501F0910401F4
:100F4000FF7BF0930401809105018064809305018B
:100F50009A98A29A0F98179A0E98169A0B98139A25
:100F60000A98129A109104011F771093040120919E
:100F70000501206820930501309107013F773093E8
:100F80000701409108014068409308015091070112
:100F90005F7B5093070160910801606460930801D2
:100FA000709107017F7D7093070190910801906215
:100FB00090930801A0910701AF7EA0930701B09123
:100FC0000801B061B0930801C0910701C77FC093C9
:100FD0000701D0910801D860D0930801E091070182
:100FE000EB7FE0930701F0910801F460F0930801B2
:100FF000809107018D7F8093070110910801126095
:1010000010930801209107012E7F20930701309152
:10101000080131603093080187988F9A86988E9ADC
:1010200085988D9A84988C9A83988B9A82988A9ABC
:101030008198899A8098889A0C9A14980D9A159894
:10104000279A48E159E20FB6F894A89540936000BA
:101050000FBE509360000898109A0998119A109248
:10106000CD006FEC6093CC0072E07093C80096E006
:101070009093CA00A8E9A093C9001092C50060939C
:10108000C4007093C0009093C200A093C100C7EA4F
:10109000D1E6D0938900C0938800B0916F00B26010
:1010A000B0936F00D0918100DB60D0938100789481
:1010B000AAEE4A2EA2E05A2EB3E0AB2EB12CC0E825
:1010C000CC2EC7E9DC2EC6E0EC2EF12C18E0E7E0D0
:1010D0009E2EF6E03F2E80917D0390917E03A0919D
:1010E0007F03B09180030196A11DB11D011199C02C
:1010F00080937D0390937E03A0937F03B09380033E
:10110000A895E0916103EB3070F4E23008F4A8C1D7
:10111000E350E83008F0A7C1F0E08827E156FB4E25
:101120008F4F0C946F14EF3F09F09AC1C0914803A0
:10113000C43009F47AC308F06AC0C23009F051C063
:1011400070916203772309F485C6E0914703E2506A
:10115000EE3F08F410C28090460370904503871458
:1011600009F4D3C6B0914603D0914503BD1709F4E5
:10117000B8C6AEE3A093440372E070934703B8DAB5
:10118000811114C0E0914503F0E0EC5FFC4F7080EA
:1011900070920303209145032F5F2F732093450323
:1011A00093E09093470313DB8823E1F2B091EE02C2
:1011B000B23009F0C6C28091D402843009F4E4C48C
:1011C00008F0A9C29091D102823009F493C483300F
:1011D00009F08DC4923009F4B5C49F3F09F4A1C24F
:1011E000AEC4C33009F0DBC1E0914A02EB3008F035
:1011F00071C2E23008F471C2E350E83008F073C203
:10120000F0E08827E955FB4E8F4F0C946F14CF3FC9
:1012100009F0C5C1E0914703E250EE3F08F09BCFD3
:10122000AAC100E08093790390937A03A0937B0393
:10123000B0937C0310927D0310927E0310927F0383
:1012400010928003E0910B02F1E0FE0FEF3F09F4F2
:101250008DC1F0930B02F43608F08BC130910A0275
:1012600041E0430F3F3F09F074C25FEF50930A0221
:101270001598609109027FEF760F613009F4A3C2DF
:101280007093090250917803C0910402D091050235
:10129000E09106023E018E2E2FEF621A720A820A38
:1012A00061148FE278068DE0880618F0612C712CAD
:1012B000812C752F622D51110FC0309176033111A1
:1012C00007C261E0A82DC30180549E47A540803429
:1012D0009E47A54008F0FCC1209103022F3F09F46E
:1012E00049C08091720390E0A0E0A92F982F882731
:1012F00030E040E0422F33272227820F931FA41FA4
:1013000040917103840F911DA11D9C014A2F2C1B3C
:101310003D0B4E0B20936E0330936F03409370038D
:10132000F0917303FA3030F5E42FE901C953DF4F30
:10133000EF4FCF38D140E105E8F051110C9446133E
:10134000C0917603C1110BC071E0E82DE301C054D8
:10135000DE47E540C034DE47E54008F089C5671741
:1013600009F447C421573E4F4F4F2F3133404105B9
:1013700008F03FC49FEF90930302609204027092C2
:10138000050280920602662309F407C22110A8C351
:10139000149810920B02159810920A0280916A0319
:1013A00090916B03A0916C03B0916D030196A11D08
:1013B000B11D80936A0390936B03A0936C03B09369
:1013C0006D0370906903772009F4EFC12F9AA1E0B3
:1013D000809069038110A0E0A0936903B091680335
:1013E000BB2319F0B219B0936803D22D50910202B9
:1013F000520D11F050930202609001026D0E11F037
:1014000060920102E0910002DE0F11F0D093000221
:101410002091640330916503409166035091670306
:10142000211531054105510509F4C1C1215031098A
:101430004109510920936403309365034093660387
:101440005093670340916203442309F459CE4150FD
:101450004093620355CEF0914903FF5FF093490337
:10146000F2E0F093610322DC811160CE70916003A1
:101470007F3FB1F710925F03C3E0C093610316DCB6
:10148000811154CE70916003793721F06CE7670FBA
:10149000633070F770935E0394E09093610306DC11
:1014A000811144CE8091600380935D03A5E0A093F9
:1014B0006103FCDB81113ACE7090600370925C0393
:1014C00030926103F3DB811131CE80906003809212
:1014D0005B0390926103EADB811128CEB091600337
:1014E000B0935A0310936103E1DB81111FCED091B9
:1014F0006003D093590359E050936103D7DB811106
:1015000015CE6090600360925803EAE0E0936103B7
:10151000CDDB81110BCE2091600330915F03822FD0
:10152000831B80935F03281396CFC0915E03C63858
:1015300011F40C944913C43809F49EC4C53811F44D
:101540000C94A013C93709F08BCF70915D037130F3
:1015500009F086CF10926303A0914A03B0914B0328
:101560001196B0934B03A0934A037ACF2FEF2093A9
:101570000B02149873CEF0E08827E155FB4E8F4F95
:101580000C946F14B0914B02B23009F05AC36090C2
:10159000C80065FC9BC4E0914A02E111D6CD63E02E
:1015A0006093620392E090934803CFCDD0914B02B9
:1015B000D23009F04AC39091C80095FFECCFB091AA
:1015C0004D02B093CE0010934A02D2E0D0934B026A
:1015D000DECF50914B02523009F062C38090C800B8
:1015E00085FED9CF70904D027092CE0090924A0243
:1015F00062E060934B02DFCFE0914B02E23009F0F2
:1016000057C3C091C800C5FFC6CF70914D027093FB
:10161000CE0010924D0230924A02A2E0A0934B02FB
:10162000DDCF20914B02223009F04AC33091C8002F
:1016300035FFB1CF80914D028093CE0010924D02C4
:1016400045E040934A02F2E0F0934B02DACF8091FA
:101650004B02823009F0EDC23091C80035FF9BCFBC
:1016600080914D028093CE0046E840934D02FAE00F
:10167000F0934A02C2E0C0934B021CC030914B026F
:10168000323009F0FEC76090C80065FE84CFD0916B
:101690004D02D093CE0059E750934D02E4E0E09321
:1016A0004A0222E020934B02C1CF40914B024230CC
:1016B00009F0BBC27091C80075FF6DCFA0914D02BB
:1016C000A093CE0010924B0210924A02E0E065CF48
:1016D00060E002CEEF3F09F460CFFFEFF0934D02E0
:1016E000C2E0C0934A0270914B02723011F00C9428
:1016F00084138090C80085FE4ECF70904D0270928A
:10170000CE0061E060934D0293E090934A02B2E014
:10171000B0934B02B8CF853009F447C28F3F09F030
:10172000E4C1E091EB02E031D0F4E230D8F0E350D4
:10173000ED3018F5F0E08827E355FA4E8F4F0C9402
:101740006F14BF3F71F38091D402D2E0D093EE02C8
:1017500034CD40930A02443608F48BCD89CDEF3F57
:1017600009F4B9CC71E07093D8027093D70264E4A5
:101770006093D60292E09093EB020E946301811184
:10178000A5CC3090D8029090D702392809F4A4C192
:10179000BAE0B093680323E0A0C1149810920B0242
:1017A000222009F4F8CD159AF7CD2F9810CE31E00C
:1017B00030936303C0926403D0926503E0926603A2
:1017C000F09267033FCE509178039AE0909309021C
:1017D000A0910802CFEFCA0FA13009F083C1BCE38A
:1017E000B0930802552341F0D0917703D150D093A4
:1017F0007703DD2309F427C360907603662041F068
:1018000080917503815080937503882309F41FC369
:10181000E0910702FFEFFE0FE13009F4F2C1F0930F
:10182000070232CD94E090934803E0914E02EB30F2
:1018300008F0BCC0E23008F4BCC0E350E83008F067
:10184000BEC0F0E08827E654FA4E8F4F0C946F1418
:10185000B0914B02B23009F0E4C15091C80055FD7F
:101860002AC3E0914E0299CED0914B02D23009F0BA
:10187000E4C1B091C800B5FFF4CF70904D027092F2
:10188000CE0010934E02D2E0D0934B02E6CF50919F
:101890004B02523009F0DDC16090C80065FEE1CF17
:1018A00080904D028092CE0090924E0292E09093F2
:1018B0004B02DFCFE0914B02E23009F0F5C17091AD
:1018C000C80075FFCECFA0914D02A093CE003092FC
:1018D0004E0262E060934B02DFCF20914B02223038
:1018E00009F0EAC18091C80085FFBBCF40914D024D
:1018F0004093CE0010924D02F5E0F0934E02C2E00C
:10190000C0934B02DCCF30914B02323009F0B5C6A8
:101910007090C80075FEA5CFD0914D02D093CE0037
:1019200050914C02511108C710925403E4E8E0931F
:101930004D0224E020934E0232E030934B02D2CF8E
:1019400040914B02423009F064C16091C80065FFCC
:1019500088CF60904D026092CE0010924B02809131
:101960004C0290E00196B501A7D780934C021092EB
:101970004E02E0E012CE80914B02823009F04DC160
:101980008091C80085FF6DCF40914D024093CE00FD
:10199000F0914C02F111C1C6CBE7C0934D027AE041
:1019A00070934E02A2E0A0934B02CFCFEF3F09F419
:1019B000F4CDFFEFF0934D02C2E0C0934E02709160
:1019C0004B02723009F099C66090C80065FE49CF9D
:1019D00080904D028092CE0061E060934D0293E0D2
:1019E00090934E02B2E0B0934B0292CF30906803D6
:1019F00031106CCB1EEB1093D602D4E0D093EB02E7
:101A00000E946301811162CB9090D8025091D7025D
:101A1000952A09F461C01092D502E5E0E093EB024B
:101A20000E94D900811152CB31E03093D50246E0BB
:101A30004093EB020E94D900811148CB82E0809351
:101A4000D50267E06093EB020E94D90081113ECB82
:101A5000C3E0C093D502F8E0F093EB020E94D900F6
:101A6000811134CBA4E0A093D50279E07093EB020E
:101A70000E94D90081112ACB95E09093D5022AE0EB
:101A80002093EB020E94D900811120CBB6E0B093E5
:101A9000D5021BE01093EB020E94D900811116CBF6
:101AA000D7E0D093D5025CE05093EB020E94D900BE
:101AB00081110CCBE8E0E093D5023DE03093EB02DE
:101AC0000E94D900811102CB6090D8026110E7C159
:101AD0008091D7028111CEC120E12093EB02F6CA9A
:101AE000149A57CCC0930802CFCB9091D10252E008
:101AF0005093D402923031F09F3F09F412CEE2E0CD
:101B0000E093D1026090D0023091CF02631609F4C5
:101B100008CEE091CF02F0E0E15BFD4F40814093C1
:101B2000D3028091CF028F5F8F778093CF02109284
:101B3000D10290E04C33D9F663E06093D402C2E066
:101B4000C093D1028090D002F091CF028F1609F499
:101B5000E8CDE091CF02F0E0E15BFD4FA081A093E2
:101B6000D3027091CF027F5F7F777093CF02109284
:101B7000D10290E02FEB2A0F2A3108F0B8CFA093C2
:101B8000ED02B4E0B093D4020E948002811165C0DE
:101B90007090D302D091ED027D12A7CF5091EC024C
:101BA0005093D202E5E0E093D4020E9480028111BA
:101BB00054C03091D3023E3309F097CF6090D202E7
:101BC0004091EC02641291CF1092D40280E06091B7
:101BD000ED02633409F4A6C508F044C0613409F489
:101BE000A6C5623409F0B1CD7090EC027092720318
:101BF000ACCD61E06F0F60937303672F3C018A2EB9
:101C0000B9CB2CE320930702109274031092730354
:101C10003BCB4F3F09F425CEC5CE8F3F09F421CEF3
:101C200051C1BF3F09F41DCE2ECE4F3F09F4B3CCB6
:101C300021CD8F3F09F4AFCC50C1DF3F09F411CE65
:101C400035CEBF3F09F4A7CCC0CCDF3F09F4A3CC0D
:101C5000CFCC5F3F09F405CE3CCE8091D4028111F8
:101C600060CDB5CF6C3409F070CDF091EC02FF235C
:101C700009F417C1A0917403AA3008F066CDF130C1
:101C800009F49AC5109278037AE07093770391E093
:101C90009093760370937503AF5FA093740355CD53
:101CA0005F3F09F478CCB9CCEF3F09F4DACD27CE09
:101CB000EF3F09F470CCC7CC2F3F09F4D2CD3CCE16
:101CC0002F3F09F468CCEDCC722CE9EDF2E0812CC9
:101CD000ACE87191382C36948726872009F03A2693
:101CE000932C9694672F66956325672109F09A26B1
:101CF000992D9695272F269526952925272109F098
:101D00009A27B92FB695172F169516951695192758
:101D1000172109F0BA27DB2FD695572F52955F7000
:101D20005B27572109F0DA276D2E6694372F3295FD
:101D3000369537703D27372109F06A26C62DC6959E
:101D4000472F42954695469543704625472109F011
:101D5000CA278C2E8694771F7727771F7C277721B9
:101D600009F08A2682E0E13EF80709F0B2CFF0914F
:101D7000E102F81509F407C58091F402780E09F420
:101D8000ABCE7092F402A8CE822CC2EED2E030E04C
:101D90004CE88991732E76943827382109F07426FF
:101DA000372C3694982E96949724982009F0342650
:101DB000632D6695F82FF695F695F325F82109F031
:101DC0006427A62FA695782F769576957695762713
:101DD000782109F0A4279A2F9695282F22952F7005
:101DE0002A27282109F09427B92FB695182F129584
:101DF000169517701927182109F0B4275B2F5695EF
:101E0000E82FE295E695E695E370EB27E82109F0E7
:101E10005427352F3695881F8827881F85278821C6
:101E200009F034274C165D0609F0B3CFD091EA02D1
:101E3000D31709F493C46090FB02860C09F448CED2
:101E40008092FB0245CE1092780350E0D5CC1092E0
:101E50007603DECCA0916303AA2309F4E3CC60915E
:101E600000026F3F09F4DECC93E090934803BCC9B5
:101E700070E075CA2FE031CE80915D0390E0782E3E
:101E8000662480905C03680C711C70924F03609212
:101E90004E03B0915403BF5FB0935403E1CA2EE0E8
:101EA0001CCE10927803BAE0B093770310927603B9
:101EB000B09375034ACCE0914D02E093CE0029E047
:101EC00020934E0232E030934B025ACD50914D0296
:101ED0005093CE00E9E0E0934A0222E020934B02C7
:101EE000BBCB5DE050934403E4E0E09347030E94E2
:101EF000780381115BC92AE02093440335E03093D5
:101F000047030E947803811151C91092020380E2B5
:101F100080934403309247030E947803811146C99D
:101F200041E440934403909247030E947803811157
:101F30003DC960916A0370916B0380916C0390912D
:101F40006D036093FE027093FF02809300039093F1
:101F50000103109347030E94BD05811127C9FCE2CC
:101F6000F0934403C9E0C09347030E9478038111B2
:101F70001DC96090FD02609203037AE070934703ED
:101F80000E94E703811112C9ACE2A09344039BE0D5
:101F9000909347030E947803811108C98090FC0246
:101FA00080920303BCE0B09347030E94E7038111D2
:101FB000FDC8DCE2D09344035DE0509347030E94E8
:101FC00078038111F3C82091790330917A0340910D
:101FD0007B0350917C032093FE023093FF024093D9
:101FE000000350930103EEE0E09347030E94BD0518
:101FF0008111DCC83CE2309344038FE080934703B7
:102000000E9478038111D2C880916E0390916F0372
:10201000A09170030A2E000CBB0B8093FE029093DC
:10202000FF02A0930003B093010380E18093470374
:102030000E94BD058111BAC84CE24093440361E19E
:10204000609347030E9478038111B0C880917303A5
:1020500090E0B0E0A0E08093FE029093FF02A09396
:102060000003B0930103F2E1F09347030E94BD0522
:1020700081119CC8CCE2C093440373E17093470381
:102080000E947803811192C8809104029091050208
:10209000A0910602B0E08093FE029093FF02A0930D
:1020A0000003B0930103A4E1A09347030E94BD0580
:1020B00081117CC890E290934403B5E1B09347034B
:1020C0000E947803811172C8D2E4D093440356E190
:1020D000509347030E947803811168C87090FB02F7
:1020E0007092030327E1209347030E94E7038111C5
:1020F0005DC8ECE2E093440338E1309347030E946B
:102100007803811153C86090FA026092030389E159
:10211000809347030E94E703811148C84CE2409333
:1021200044036AE1609347030E94780381113EC82B
:10213000C091F802D091F902D093F702C093F60251
:10214000FBE1F09347030E94FE0481112FC87CE25B
:1021500070934403ACE1A09347030E94780381117C
:1021600025C88090F502809203039DE19093470378
:102170000E94E70381111AC8BCE2B0934403DEE178
:10218000D09347030E947803811110C85091020236
:10219000509303032FE1209347030E94E70381112B
:1021A00005C8E0E2E0934403E09347030E9478030C
:1021B00081110C94D60833E43093440381E2809378
:1021C00047030E94780381110C94D6087090F402A2
:1021D0007092030342E2409347030E94E703811198
:1021E0000C94D6086CE260934403C3E2C0934703A7
:1021F0000E94780381110C94D6086090F3026092DB
:102200000303F4E2F09347030E94E70381110C9467
:10221000D6087CE270934403A5E2A09347030E9492
:10222000780381110C94D6082091F1023091F202CA
:102230003093F7022093F60296E2909347030E94B0
:10224000FE0481110C94D608BCE2B0934403D7E29B
:10225000D09347030E94780381110C94D608809094
:10226000F0028092030358E2509347030E94E70371
:1022700081110C94D608ECE2E093440339E23093E8
:1022800047030E94780381110C94D60880910102C3
:10229000809303034AE2409347030E94E7038111BE
:1022A0000C94D60860E260934403CBE2C0934703EA
:1022B0000E94780381110C94D608F4E4F09344034F
:1022C0007CE2709347030E94780381110C94D60836
:1022D0007090EF0270920303ADE2A09347030E9457
:1022E000E70381110C94D6082CE2209344039EE26C
:1022F000909347030E94780381110C94D608609054
:10230000490360920303BFE2B09347030E94E703CF
:1023100081110C94D608DCE2D093440350E350932F
:1023200047030E94780381110C94D608E0914A0378
:10233000F0914B03F093F702E093F60231E3309310
:1023400047030E94FE0481110C94D6088CE280930E
:10235000440342E3409347030E94780381110C94A5
:10236000D60860914E0370914F037093F70260930B
:10237000F602C3E3C09347030E94FE0481110C944C
:10238000D608FCE2F093440374E3709347030E9481
:10239000780381110C94D608A0915603B09157038D
:1023A000B093F702A093F60225E3209347030E941F
:1023B000FE0481110C94D6089CE290934403B6E38A
:1023C000B09347030E94780381110C94D608609063
:1023D0004C0370904D037092F7026092F602D7E3BF
:1023E000D09347030E94FE0481110C94D6085CE24E
:1023F00050934403E8E3E09347030E94780381117C
:102400000C94D608809055038092030339E33093EF
:1024100047030E94E70381110C94D6088CE2809355
:1024200044034AE3409347030E94780381110C94CC
:10243000D60870905203709203036BE360934703D6
:102440000E94E70381110C94D608CCE2C0934403A8
:10245000FCE3F09347030E94780381110C94D608A3
:10246000A0915003B0915103B093F702A093F602EC
:102470007DE3709347030E94FE0481110C94D608FB
:102480002CE2209344039EE3909347030E94780339
:1024900081110C94D608B0915303B0930303DFE38A
:1024A000D09347030E94E70381110C94D6085CE2A5
:1024B00050934403E0E4E09347030E9478038111C2
:1024C0000C94D608609000026092030331E43093CC
:1024D00047030E94E70381110C94D60880E28093A1
:1024E000440342E4409347030E94780381110C9413
:1024F000D60865E460934403C3E4C09347030E9495
:10250000780381110C94D608F2B1F295F170F09332
:102510000303A4E4A09347030E94E70381110C94F2
:10252000D6087CE27093440325E4209347030E947D
:10253000780381110C94D60882B085FA772470F85C
:102540007092030396E4909347030E94E70381117E
:102550000C94D608BCE2B0934403D7E4D09347036D
:102560000E94780381110C94D608E1E05091780321
:10257000511101C0E0E0E093030338E430934703D6
:102580000E94E70381110C94D6088CE280934403E7
:1025900049E4409347030E94780381110C94D608C4
:1025A00061E060907603611001C060E06093030316
:1025B000CAE4C09347030E94E70381110C94D60834
:1025C000FCE2F0934403ABE4A09347030E9478033A
:1025D00081110C94D60870917403709303032CE45A
:1025E000209347030E94E70381110C94D60890E2E0
:1025F00090934403BDE4B09347030E947803811194
:102600000C94D608D4E5D09303035EE450934703BB
:102610000E94E70381110C94D608E0E2E0934403A2
:102620003FE4309347030E94780381110C94D6084D
:10263000809002038092030380E5809347030E9409
:10264000E70381110C94D6084DE04093440361E503
:10265000609347030E94780381110C94D608CAE066
:10266000C0934403F2E5F09347030E947803882364
:1026700011F40C94AB080C94D6083F3F09F4F1C850
:10268000B1C93F3F11F40C94CB0A41C8722D0C9490
:10269000AF09D0915B0351EE5D0F5B33D8F420910D
:1026A0005D0330E0F22FEE2770905C03E70DF11D23
:1026B000F0935703E0935603D852D09355032091DB
:1026C0005403223039F410920002309153033F5FDB
:1026D0003093530380915A0380935203809159039E
:1026E00090E0582F4427F09158034F0F511D5093FD
:1026F0005103409350030C94300A7F3F09F4B1C852
:10270000A2E0A0934B0260C97F3F11F40C94CB0A66
:10271000A2E0A0934B020C94790BF13009F448C06D
:10272000C9E73BC9C091EC02C09303020EC8809078
:10273000EC028092710309C85130E1F1E6E8F7C874
:1027400080915B0390E0782F662790915A03690F80
:10275000711D70934D0360934C039BCB109202024A
:10276000C091F502CF5FC093F5028091E30290E043
:10277000982E88244091E202840E911C9092F902D6
:102780008092F802A5C910920102E091F002EF5F79
:10279000E093F0028091DA0290E0B82FAA277090BF
:1027A000D902A70DB11DB093F202A093F10294C912
:1027B000CAE7F3C8E5E8BBC8F09378032AE02093A2
:1027C0007703109276032093750366CA1F921FB693
:1027D0001F9211242F932BB72F933F938F939F9387
:1027E000EF93FF933091C6008091D002820D8F77D6
:1027F000E091CF02E817A9F0F091D002EF2FF0E0BE
:10280000E15BFD4F30838093D002FF91EF919F9168
:102810008F913F912F912BBF2F911F901FBE1F9023
:1028200018952091FC02220D2093FC023091FC02AD
:102830003111EBCF8091FC0282198093FC02E5CF2D
:102840001F921FB61F9211242F932BB72F933F93E4
:102850008F939F93EF93FF933091CE0080913D0231
:10286000820D8F71E0913C02E817A9F0F0913D02D2
:10287000EF2FF0E0E45EFD4F308380933D02FF9147
:10288000EF919F918F913F912F912BBF2F911F908F
:102890001FBE1F9018952091EF02220D2093EF028A
:1028A0003091EF023111EBCF8091EF0282198093CA
:1028B000EF02E5CF01E0189597FB072E16F4009480
:1028C00006D077FD08D013D007FC05D03EF49095D4
:1028D00081959F4F0895709561957F4F0895EE0FF4
:1028E000FF1F881F8BBF0790F691E02D1994AA1B3C
:1028F000BB1B51E107C0AA1FBB1FA617B70710F0EB
:10290000A61BB70B881F991F5A95A9F7809590951C
:10291000BC01CD010895F894FFCFF800FC00000140
:10292000EE00F4000801DE01E401EA01F001D50146
:10293000B901FC0102020802CC01F6010E023F0AB5
:102940004F0A590A620A6B0A740A7E0A880A3E0B09
:10295000110BFC0AE90AD60AC20A270B550BBF085D
:10296000D308770F810F8C0F950FAB0FB50FC00FEA
:10297000CA0FD50FDF0FF60F0010181022103610F7
:102980004010561060106A1075107F108A10941055
:10299000A310AD10B810C210CD10D610E110ED107C
:1029A000F81004110F111F112A11361141114D1188
:1029B000581163116F117A1186119111A111AC1187
:1029C000BC11C711D711E211F211FD110912141235
:1029D00020122B123B12461252125D12691274120F
:1029E0007F128C129712A512B012C012CB12DB12FA
:1029F000E612F212FD12081313131F132A133513D4
:102A0000AB08AB08AB08AB08AB08AB08AB08AB082E
:102A1000AB08AB08AB08AB08AB08AB08AB08AB081E
:102A2000AB08AB08AB08AB08AB08AB08AB08AB080E
:102A3000AB08AB08AB08AB08AB08AB08AB08AB08FE
:102A4000AB08AB08AB08AB08AB08AB08AB08AB08EE
:102A5000AB08AB08AB08AB08AB08AB08AB08AB08DE
:102A6000AB08AB08AB08AB08AB08AB08AB08AB08CE
:102A7000AB08AB08AB08AB08AB08AB08AB08AB08BE
:102A8000AB08AB08AB08AB08AB08AB08AB08AB08AE
:102A9000AB08AB08AB08AB08AB08AB08AB08AB089E
:102AA000AB08AB08AB08AB08AB08AB08AB08AB088E
:102AB000AB08AB08AB08AB08AB08AB08AB08AB087E
:102AC000AB08AB08AB08AB08AB08AB08AB08AB086E
:102AD000AB08AB08AB08AB08AB08AB08AB08AB085E
:102AE000AB08AB08AB08AB08AB08AB08AB08AB084E
:102AF000AB08AB08AB08AB08AB08AB08AB08AB083E
:102B0000AB08AB08AB08AB08AB08AB08AB08AB082D
:102B1000AB08AB08AB08AB08AB08AB08AB08AB081D
:102B2000AB08AB08AB08AB08AB08AB08AB08AB080D
:102B3000AB08AB08AB08AB08AB08AB08AB08AB08FD
:102B4000AB08AB08AB08AB08AB08AB08AB08AB08ED
:102B5000AB08AB08AB08AB08D608F60C000D100D9F
:102B60001A0D240D2E0D380D420D4C0D560D600D15
:102B7000C40E640E830C6D0C5A0C470C340C280CDC
:042B8000BB0CA00CDE
:102B8400FFFFFFFFE0A5013C3C0AFFFF3031323379
:0C2B940034353637383961626364656699
:00000001FF
