:1000000071C000008FC000008DC000008BC00000D8
:1000100089C0000087C0000085C0000083C00000C8
:1000200081C000007FC000007DC000007BC00000D8
:1000300079C0000077C0000075C0000073C00000E8
:1000400071C000000C9455146DC000006BC000001E
:1000500069C0000067C0000065C0000063C0000008
:1000600061C000000C94E1135DC000005BC00000A3
:1000700059C0000057C0000055C0000053C0000028
:1000800051C000004FC000004DC000004BC0000038
:100090000C941B1447C0000045C0000043C0000082
:1000A00041C000003FC000003DC000003BC0000058
:1000B00039C0000037C0000035C0000033C0000068
:1000C00031C000002FC000002DC000002BC0000078
:1000D00029C0000027C0000025C0000023C0000088
:1000E00021C0000011241FBECFEFD1E2DEBFCDBF83
:1000F00000E00CBF12E0A0E0B2E0EAE7FBE200E0C3
:100100000BBF02C007900D92AE31B107D9F723E0C3
:10011000AEE1B2E001C01D92A338B207E1F7EFD51E
:100120000C9486146DCF9091DA0291111DC020912C
:10013000D90221111FC035E13A95F1F74091DA0259
:10014000411134C05091D90251112BC060E36A951E
:10015000F1F77091DA0271111CC051110EC08CEDD3
:1001600090E00197F1F70895089A10982091D9022C
:10017000222309F3099A1198DECF019BF0CFB091A9
:1001800046028B0F809346028CED90E00197F1F7C9
:100190000895009BE2CFA0914702A80FA0934702C9
:1001A000DCCF0998119A5091D902D0CF0898109AB3
:1001B000C9CF80914802893070F4823008F43DC084
:1001C0008350863008F5E82FF0E08827E857FB4E8B
:1001D0008F4F0C946A148F3F81F5089580E2A3DF5E
:1001E00087E080934802089580E49DDF88E0F9CF9E
:1001F00084E099DF84E0F5CF88E095DF85E0F1CFFA
:1002000080E191DF86E0EDCF82E08DDF83E0E9CF12
:1002100080E889DF8091D70290E0FC01EC51FD4F2E
:1002200020914702208385529D4F30914602FC0168
:1002300030831092480280E0089510924702109295
:10024000460281E070DF82E0CCCF9091DA0291111A
:1002500024C02091D90221111DC04091DA028823C7
:1002600059F085E18A95F1F7411126C03091D90204
:1002700031111FC04091DA02E0EFF0E03197F1F761
:10028000411114C05091D90251110AC065E36A9519
:10029000F1F70895099A1198E0CF089A1098D9CFEC
:1002A0000998119A65E36A95F1F708950898109AEC
:1002B000E9CF0998119ADECF0898109A3091D902A7
:1002C0003323C1F2F6CF80914B028530A1F1B8F40F
:1002D000833009F45AC08430C1F4E0914902E93016
:1002E00028F5E23008F4E9C0E350E63008F0A3C096
:1002F000F0E08827E257FB4E8F4F0C946A1486304B
:1003000009F18F3F09F09DC00895823009F099C02E
:10031000A8E6B6E01197F1F77091D9029091DA0250
:10032000792B89F510924B0280E00895EF3F09F098
:10033000C4C084E008958091D80280934A0226E0E8
:1003400020934B02E0914902E93070F4E23008F466
:10035000BAC0E350E63008F068C0F0E08827EC56F9
:10036000FB4E8F4F0C946A14EF3F09F0ACC086E04F
:10037000089580914A02807868DF1092490285E0F2
:1003800080934B02089583E0FBCF4CEC40934A02EC
:1003900054E050934B02A1CF80914A02807255DF06
:1003A00037E03093490286E0089580914A028074D4
:1003B0004CDF68E06093490284E0089580914A022E
:1003C000847043DF64E0F6CF80914A0288703DDF9D
:1003D00065E0F0CF80914A02807137DF66E0EACFB6
:1003E00080914A02807231DF67E0E4CF80914A0257
:1003F00080742BDF38E0D5CF80914A02847025DFEE
:1004000034E0CFCF80914A0288701FDF35E0C9CF3A
:1004100080914A02807119DF36E0C3CF80914A0291
:10042000807813DF109249027DCF80914A0282705A
:100430000CDF33E0B6CF80914A02827006DF63E0C2
:10044000B9CFB091DA02B11131C0E091D902EE23F7
:1004500009F468CF099A119880E699E00197F1F7BD
:100460002091DA02211135C03091D902311143C0F7
:10047000A0E4B1E01197F1F74091DA0241112CC0EC
:10048000311102C082E07CCF90B1E1E0B92FB270AF
:1004900091FDE0E0E093D902BB23A1F3F091F502D6
:1004A000F20D81F3F093F50282E06ACF089A10987A
:1004B000F091D902FF2381F2CDCF80914A02817061
:1004C000C4DE62E077CF80914A028170BEDE32E006
:1004D00068CF0898109AC8CF50B1517061E0652775
:1004E0006093DA02552361F27091FC02720D41F2C1
:1004F0007093FC02C5CF0998119A3091D902B8CFF8
:1005000080914502843009F43FC078F4823009F4C8
:1005100094C0833009F08CC0B091D302B23061F046
:10052000BF3F09F0D1C083E00895853009F462C06F
:100530008F3F09F07DC00895E091D202F091D10281
:10054000EF1789F3E091D102F0E0EF5AFD4F3081CF
:100550003093D5024091D1024F5F4F774093D10243
:100560001092D30250ED530F5A3008F09FC06091A3
:10057000EE02762F770F770F760F770F750F709348
:10058000EE02A4E0A0934502B091D302B23009F08C
:100590004AC0E091D202F091D102EF1709F446C0AF
:1005A000E091D102F0E0EF5AFD4F40814093D50237
:1005B0003091D1023F5F3F773093D1021092D30246
:1005C00050ED540F5A3008F071C06091EE0269315D
:1005D00030F0693109F06AC0463308F067C0762F01
:1005E000770F770F760F770F750F7093EE02A5E0F8
:1005F000A0934502B091D302B23041F4E091D2020F
:10060000F091D102EF1342C085E00895BF3FE1F3BE
:1006100082E09091D2022091D102291337C08093B9
:10062000D30285E0F2CFBF3F09F044C084E00895D3
:100630001092EE0282E0809345028091D3028230D4
:1006400029F08F3F09F04AC082E008952091D2023C
:100650009091D102291709F46ECFE091D102F0E018
:10066000EF5AFD4F60816093D5027091D1027F5F98
:100670007F777093D1021092D30260536A30B0F446
:100680006093EE02A3E0A093450246CFE091D10231
:10069000F0E0EF5AFD4F40814093D5023091D102F6
:1006A0003F5F3F773093D1021092D3021092450200
:1006B00080E0089582E09091D2022091D102291326
:1006C0006FCF8093D302B2CF82E09091D20220917B
:1006D000D102291337CF8093D30225CF32E0409146
:1006E000D2025091D1025413B8CF3093D302ACCF81
:1006F00080914202823031F08F3F09F4089582E008
:10070000809342022091C00025FD02C082E008953E
:10071000309146033093C600409104036091460334
:10072000922D542F56954627422111F07CE85727E9
:10073000A52FA695B62FB695B527B92311F0ECE8ED
:10074000AE27FA2FF695862F869586958A278923D8
:1007500011F02CE8F2274F2F4695362F3695369517
:1007600036953F27392311F05CE84527742F76959D
:10077000A62FA295AF70A427A92311F0BCE87B2770
:10078000E72FE695F62FF295F695F770F727F92300
:1007900011F08CE8E8274E2F4695262F22952695B6
:1007A000269523702E27292311F03CE84327542F48
:1007B0005695661F6627661F6427692311F06CE84B
:1007C0005627509304031092420280E008959091BE
:1007D0004102892F933009F483C09F3F09F47FC001
:1007E000923099F0E0910503EE2309F475C0E031F1
:1007F00008F4F7C0E295EF70F0E0E35FFD4F408151
:100800004093460352E050934102609142026230AD
:1008100009F478C06F3F09F072C082E008956091DA
:1008200046036093C6003091040370914603A22DE5
:10083000B32FB6953727322111F0ECE8BE27FB2FF6
:10084000F695572F56955B275A2311F09CE8F92708
:100850008F2F8695272F269526952F272A2311F04F
:100860004CE88427682F6695372F36953695369550
:1008700038273A2311F0BCE86B27E62FE695F72FCF
:10088000F295FF70F627FA2311F05CE8E5279E2F1A
:100890009695872F8295869587708E278A2311F0EB
:1008A0002CE89227492F4695672F629566956695A5
:1008B000637069276A2311F03CE84327B42FB6958B
:1008C000771F7727771F74277A2311F07CE8B727E3
:1008D000B0930403109242021092410280E0089506
:1008E00080914202823031F44091C00045FD97CFA3
:1008F00083E008958F3F09F070C083E0089572E0AF
:1009000070934202A091C000A5FF87CFB09146032B
:10091000B093C600E0910403F0914603922D8E2F10
:100920008695EF27E22111F02CE88227482F469583
:100930003F2F36953827392311F05CE84527642F7F
:1009400066957F2F769576957427792311F0ACE81C
:100950006A27B62FB695EF2FE695E695E695E6273A
:10096000E92311F08CE8B8275B2F56952F2F22959D
:100970002F702B27292311F04CE85427652F6695FB
:100980003F2F3295369537703527392311F07CE8A3
:100990006727A62FA695BF2FB295B695B695B370CB
:1009A000B627B92311F0ECE8AE275A2F5695FF1F52
:1009B000FF27FF1FFA27F92311F0FCE85F27509368
:1009C0000403E0910503EF70F0E0E35FFD4F9081D9
:1009D0009093460383E08093410222E020934202F9
:1009E00083CF80914202EF70F0E0E35FFD4F208102
:1009F0002093460333E03093410274CF8091430249
:100A00008430A9F0F0F4823009F43CC0833079F5E9
:100A10006FDE81114DC0E0910503EF70F0E0E35F00
:100A2000FD4F60816093460374E070934302A09190
:100A30004202A23059F4E091C000E5FD3DC084E0DF
:100A40000895853071F08F3F91F40895AF3FB9F369
:100A5000B2E0B0934202EFCF9093050325E02093DC
:100A60004302B5DE882309F484C085E0089590919F
:100A7000F8028091F902882379F38093050332E02C
:100A800030934302A4DE811115C0E091F802E09397
:100A90000503E295EF70F0E0E35FFD4F4081409386
:100AA000460353E05093430223DE882309F4B3CF77
:100AB00083E0089582E00895F0914603F093C60024
:100AC0002091040380914603922D522F569528279A
:100AD000222111F03CE85327452F4695682F669553
:100AE0006527692311F07CE84727A42FA695B82F26
:100AF000B695B695B427B92311F0ECE8AE27FA2FD6
:100B0000F695282F2695269526952A27292311F034
:100B10005CE8F5276F2F6695382F32953F703F2799
:100B2000392311F04CE86427762F7695A82FA295EB
:100B3000A695A770A627A92311F0BCE87B27E72F6D
:100B4000E695F82FF295F695F695F370F727F923C9
:100B500011F02CE8E2275E2F5695881F8827881F02
:100B60008E27892311F08CE85827509304031092A4
:100B700042021092430280E0089580914402853041
:100B8000C1F058F5833009F453C08430B1F5B0DDBD
:100B9000811161C0E091F802E0930503E295EF70E6
:100BA000F0E0E35FFD4FA081A0934603B5E0B09372
:100BB00044029EDD811160C0E0910503EF70F0E01A
:100BC000E35FFD4FE081E0934603F6E0F0934402DB
:100BD0008FDD882371F086E00895873009F446C0E0
:100BE0008F3F09F40895863009F04AC081DD8111F4
:100BF000F2CF1092440280E00895823009F040C0A4
:100C0000FDDE81113BC040910003E0910103409360
:100C1000F802E093F902E0930503E295EF70F0E04B
:100C2000E35FFD4F50815093460363E060934402BD
:100C30005FDD811112C0E0910503EF70F0E0E35F2A
:100C4000FD4F70817093460394E09093440250DD11
:100C5000882309F49FCF84E0089583E0089590935A
:100C6000F9028093F80287E080934402C7DE88236C
:100C700009F4BFCF87E0089585E0089582E00895E4
:100C80008091000390910103A0910203B0910303AE
:100C9000AD01662777274115510509F35093F902F5
:100CA0004093F80232E030934402AACF8091400290
:100CB000823031F08F3F09F4089582E08093400242
:100CC00090913F0220913E02921302C082E008956B
:100CD000E0913E02F0E0E25EFD4F3081309362032E
:100CE00040913E024F5F4F7140933E02509161032D
:100CF000530F509361031092400280E00895222424
:100D0000239400E09D98A59A6A98729A6B98739ABA
:100D10006C98749A6D98759A6E98769A6F98779A7F
:100D2000809101018E7F8093010110910201116079
:100D300010930201209101012D7F20930101309138
:100D40000201326030930201409101014B7F4093D8
:100D50000101509102015460509302016091010120
:100D6000677F6093010170910201786070930201C6
:100D7000909101019F7E90930101A0910201A061D9
:100D8000A0930201B0910101BF7DB0930101C09118
:100D90000201C062C0930201D0910101DF7BD093B8
:100DA0000101E0910201E064E09302012098289A99
:100DB0002198299A22982A9A23982B9A24982C9A37
:100DC00025982D9A26982E9AF0910101FF77F0939D
:100DD0000101809102018068809302019B98A39A8F
:100DE0009C98A49A10910A011E7F10930A012091E9
:100DF0000B01216020930B0130910A013D7F30935C
:100E00000A0140910B01426040930B0150910A018D
:100E10005B7F50930A0160910B01646060930B014A
:100E200070910A01777F70930A0190910B0198608D
:100E300090930B01A0910A01AF7EA0930A01B0919B
:100E40000B01B061B0930B01C0910A01CF7DC0933B
:100E50000A01D0910B01D062D0930B01E0910A01FD
:100E6000EF7BE0930A01F0910B01F064F0930B012A
:100E700080910A018F7780930A0110910B0110680D
:100E800010930B015098589A5198599A54985C9A1B
:100E900055985D9A56985E9A57985F9A9898A09A36
:100EA0009998A19A3898409A3998419A3A98429AD2
:100EB0003B98439A3C98449A3D98459A3E98469A66
:100EC0003F98479A209104012E7F2093040130918E
:100ED0000501316030930501409104014D7F40933D
:100EE0000401509105015260509305016091040185
:100EF0006B7F60930401709105017460709305012C
:100F000090910401977F90930401A0910501A8603E
:100F1000A0930501B0910401BF7EB0930401C0917C
:100F20000501C061C0930501D0910401DF7DD0931C
:100F30000401E0910501E062E0930501F0910401F4
:100F4000FF7BF0930401809105018064809305018B
:100F50009A98A29A0F98179A0B98139A0A98129A2D
:100F6000109104011F77109304012091050120685E
:100F700020930501309107013F773093070140919D
:100F80000801406840930801509107015F7B50932E
:100F90000701609108016064609308017091070186
:100FA0007F7D7093070190910801906290930801F2
:100FB000A0910701AF7EA0930701B0910801B06135
:100FC000B0930801C0910701C77FC0930701D0917A
:100FD0000801D860D0930801E0910701EB7FE0930E
:100FE0000701F0910801F460F09308018091070176
:100FF0008D7F809307011091080112601093080102
:10100000209107012E7F2093070130910801316064
:101010003093080187988F9A86988E9A85988D9A32
:1010200084988C9A83988B9A82988A9A8198899AC4
:101030008098889A0C9A14980D9A15980E9A16987A
:10104000279A48E159E20FB6F894A89540936000BA
:101050000FBE509360000898109A0998119A109248
:10106000CD006FEC6093CC0072E07093C80096E006
:101070009093CA00A8E9A093C9001092C50060939C
:10108000C4007093C0009093C200A093C100C7EA4F
:10109000D1E6D0938900C0938800B0916F00B26010
:1010A000B0936F00D0918100DB60D0938100789481
:1010B0009CEE492E92E0592E23E0A22EB12CCFEFC8
:1010C000FF24F394DAE01CE3B7E03B2E86E0982E91
:1010D00080917F0390918003A0918103B09182035E
:1010E0000196A11DB11D011199C080937F039093BA
:1010F0008003A0938103B0938203A895E0916303DA
:10110000EB3070F4E23008F4B8C1E350E83008F096
:10111000B7C1F0E08827E656FB4E8F4F0C946A1457
:10112000EF3F09F0AAC1F0914A03F43009F484C3F7
:1011300008F06AC0F23009F051C0E0906403EE207C
:1011400009F488C6E0914903E250EE3F08F41FC25B
:10115000B091480370914703B71709F4D5C6609062
:101160004803C09047036C1409F4BBC63EE33093B8
:10117000460342E040934903BBDA811114C0E09179
:101180004703F0E0EA5FFC4FC080C0920503809106
:1011900047038F5F8F738093470393E090934903D6
:1011A00016DB8823E1F2E091F002E23009F0D3C2CD
:1011B000B091D602B43009F4EBC408F0B6C2409145
:1011C000D302B23009F49AC4B33009F094C4423067
:1011D00009F4BCC44F3F09F4AEC2B5C4F33009F002
:1011E000EAC1E0914C02EB3008F081C2E23008F431
:1011F00081C2E350E83008F082C2F0E08827EE5563
:10120000FB4E8F4F0C946A14FF3F09F0D4C1E0915C
:101210004903E250EE3F08F09BCFB9C100E0809354
:101220007B0390937C03A0937D03B0937E03109285
:101230007F03109280031092810310928203E09149
:101240000C02F1E0FE0FEF3F09F49DC1F0930C0298
:10125000F43608F09AC120910B0231E0320F2F3F93
:1012600009F087C2C0930B02159840910A0251E021
:10127000540F4F3F09F077C2C0930A02169860914D
:1012800009027FEF760F613009F495C2709309026D
:1012900050917A03C0900402D0900502E0900602BB
:1012A0004E2D96012F5F3F4F4F4F21158FE238078C
:1012B0008DE0480718F020E030E040E0752F622D07
:1012C00051110FC07090780371100FC261E0A42F0C
:1012D000C90180549E47A54080349E47A54008F030
:1012E00004C2809103028F3F09F453C060907403DD
:1012F000712C812C872C762C662490E0A0E0A82FFE
:1013000099278827860D971DA81D80907303880D47
:10131000911DA11D3C018A2E6C187D088E08E82CB9
:101320006301C0927003D0927103E0927203E09166
:101330007503EA3070F5B4E06B0E711C811CF9E0A6
:101340006F167104810428F151110C944413B0916B
:101350007803B11111C071E03901842E50E4651A8F
:101360005EE7750A55E0850AB0E46B16BEE77B06BA
:10137000B5E08B0608F07CC5671709F43EC4F3E1BD
:10138000CF0ED11CE11C57E2C516D104E10408F0D0
:1013900034C4C093030220930402309305024093A7
:1013A0000602662309F434C221109EC314981092D9
:1013B0000C02159810920B0220916C0330916D0372
:1013C00040916E0350916F032F5F3F4F4F4F5F4F20
:1013D00020936C0330936D0340936E0350936F031F
:1013E000C0906B03CC2009F41BC22F9A31E0D0903F
:1013F0006B03D11030E030936B03E0906A03EE2072
:1014000019F0E218E0926A03422DA0910202A20DA7
:1014100011F0A093020290910102940F11F09093A9
:10142000010250910002450F11F04093000280919B
:10143000660390916703A0916803B09169030097D8
:10144000A105B10509F4EEC10197A109B109809385
:10145000660390936703A0936803B0936903F091C8
:101460006403FF2309F449CEF150F093640345CEA1
:10147000E0914B03EF5FE0934B03E2E0E093630303
:1014800015DC811150CE709162037F3FB1F710924D
:101490006103B3E0B093630309DC811144CE709122
:1014A0006203793721F06CE7670F633070F7709350
:1014B000600324E020936303F9DB811134CE709044
:1014C000620370925F0335E030936303EFDB8111B9
:1014D0002ACE6090620360925E0390926303E6DB23
:1014E000811121CE8090620380925D03309263036C
:1014F000DDDB811118CEC0906203C0925C0348E02E
:1015000040936303D3DB81110ECED0906203D0925F
:101510005B03A9E0A0936303C9DB811104CEE090D3
:101520006203E0925A03D0936303C0DB8111FBCDC9
:101530009091620350916103892F851B8093610311
:10154000981396CFB0916003B63811F40C944713FA
:10155000B43809F491C4B53811F40C949E13B9371A
:1015600009F08BCF70915F03713009F086CF109234
:101570006503A0914C03B0914D031196B0934D03B8
:10158000A0934C037ACFC0930C02149864CEF0E081
:101590008827E655FB4E8F4F0C946A1460914D02DC
:1015A000623009F050C37090C80075FC8FC4E091A0
:1015B0004C02E111C7CDA3E0A0936403F2E0F093E5
:1015C0004A03C0CD20914D02223009F040C3609003
:1015D000C80065FEECCFC0904F02C092CE0068E01C
:1015E00060934C0222E020934D02DDCF30914D02FA
:1015F000323009F055C3F091C800F5FFD8CFB09153
:101600004F02B093CE0030924C0272E070934D02C4
:10161000DECF40914D02423009F04AC35091C800DC
:1016200055FFC5CF80914F028093CE0010924F029C
:1016300090924C02A2E0A0934D02DDCF90914D021A
:10164000923009F03DC3D090C800D5FEB0CFE090F5
:101650004F02E092CE0010924F0295E090934C0220
:10166000E2E0E0934D02DACFE0914D02E23011F07A
:101670000C943F137090C80075FE99CF80904F0274
:101680008092CE0029E720934F0234E030934C0241
:1016900042E040934D02D7CF80914D02823009F055
:1016A000C6C25091C80055FF82CF80914F028093EF
:1016B000CE0010924D0210924C02E0E07ACF509191
:1016C0004D02523009F0B7C2D090C800D5FE6FCF9E
:1016D000E0904F02E092CE0096E890934F02D093B4
:1016E0004C02E2E0E0934D02DCCF60E0FACDEF3F48
:1016F00009F45FCFC0934F02A2E0A0934C02F09197
:101700004D02F23009F0FEC76090C80065FE4FCF71
:10171000C0904F02C092CE00F0924F0273E07093DF
:101720004C0262E060934D02A5CFB53009F441C28E
:10173000BF3F09F0DEC1E091ED02E03100F5E2309B
:1017400008F1E350ED3040F5F0E08827E855FA4E17
:101750008F4F0C946A14EF3F71F3B091D60252E0B0
:101760005093F00227CD50930A02543608F487CDE7
:1017700085CD30930B02343608F477CD75CDEF3F2D
:1017800009F4A6CCF092DA02F092D90274E47093D4
:10179000D80212E01093ED020E946301811193CCF4
:1017A0007090DA026090D902762809F499C1D0933A
:1017B0006A0353E096C150917A03D0930902A09135
:1017C00008029FEF9A0FA13009F090C11093080210
:1017D000552341F0B0917903B150B0937903BB2305
:1017E00009F431C360907803662041F0809177035B
:1017F000815080937703882309F429C3E09107027D
:10180000FFEFFE0FE13009F4FFC1F093070242CD74
:10181000149810920C02222009F4CBCD159ACACD4F
:101820002F98E4CDF092650380E897E9A6E0B0E058
:101830000ECE64E060934A03E0915002EB3008F072
:10184000BDC0E23008F4BDC0E350E83008F0BEC0CF
:10185000F0E08827EB54FA4E8F4F0C946A142091D5
:101860004D02223009F0DFC18090C80085FC22C300
:10187000E09150029ECE30914D02323009F0DFC12E
:10188000C090C800C5FEF4CF20914F022093CE0037
:1018900068E0762E7092500232E030934D02E4CF31
:1018A00040914D02423009F0D6C17091C80075FFD9
:1018B000DFCF60904F026092CE003092500262E023
:1018C00060934D02DDCF90914D02923009F0ECC152
:1018D000A091C800A5FFCCCFF0914F02F093CE00AD
:1018E00090925002B2E0B0934D02DFCFE0914D02F2
:1018F000E23009F0E1C1D090C800D5FEB9CFE09048
:101900004F02E092CE0010924F0255E050935002E9
:1019100082E080934D02DCCF50914D02523009F0AD
:10192000AAC67090C80075FEA3CF80904F02809227
:10193000CE0030914E023111FDC61092560344E89C
:1019400040934F0294E090935002E2E0E0934D0206
:10195000D2CFA0914D02A23009F05DC1F091C80034
:10196000F5FF86CFB0914F02B093CE0010924D029A
:1019700080914E0290E00196B50199D780934E0276
:1019800010925002E0E015CE80914D02823009F0B5
:1019900046C1E091C800E5FF6BCFE0904F02E092B6
:1019A000CE0050914E025111B6C68BE780934F0284
:1019B000D0935002A2E0A0934D02D0CFEF3F09F4A4
:1019C000F8CDC0934F02F2E0F0935002B0914D0277
:1019D000B23009F090C66090C80065FE49CFC09053
:1019E0004F02C092CE00F0924F0263E0609350022B
:1019F00022E020934D0295CF30906A03311063CBE3
:101A00001EEB1093D80244E04093ED020E94630164
:101A1000811159CB9090DA02D090D9029D2809F417
:101A20005FC01092D70285E08093ED020E94D9003A
:101A3000811149CBF092D70296E09093ED020E947B
:101A4000D900811140CBE2E0E093D70257E05093F8
:101A5000ED020E94D900811136CBA3E0A093D702FA
:101A6000F8E0F093ED020E94D90081112CCBB4E094
:101A7000B093D70279E07093ED020E94D9008111F2
:101A800022CB65E06093D702D093ED020E94D9008B
:101A9000811119CB26E02093D7023BE03093ED0271
:101AA0000E94D90081110FCB17E01093D7024CE0B0
:101AB0004093ED020E94D900811105CB88E080930C
:101AC000D7029DE09093ED020E94D9008111FBCADC
:101AD000C090DA02C110E3C1A091D902A111CAC11C
:101AE00050E15093ED02EFCA149A61CC9093080232
:101AF000D1CB4091D302A2E0A093D602423031F084
:101B00004F3F09F418CEF2E0F093D302E090D202F6
:101B10007090D102E71409F40ECEE091D102F0E00A
:101B2000EF5AFD4FB081B093D5027091D1027F5F23
:101B30007F777093D1021092D30240E0BC33D9F684
:101B400063E06093D60222E02093D3026090D20239
:101B50008090D102681409F4EECDE091D102F0E05A
:101B6000EF5AFD4FD080D092D5023091D1023F5F25
:101B70003F773093D1021092D30240E08FEB8D0D6E
:101B80008A3108F0B8CFD092EF0294E09093D60259
:101B90000E948002811163C0C090D502E091EF02E3
:101BA000CE12A7CF5091EE025093D402A5E0A0939D
:101BB000D6020E948002811152C0F091D502FE33FC
:101BC00009F097CFE090D4027090EE02E71091CF29
:101BD0001092D602B0E07091EF02733409F4A0C500
:101BE00008F042C0713409F4A0C5723409F0B7CDD1
:101BF0008090EE0280927403B2CDEF5FE0937503A4
:101C0000672F9C014A2FC5CB1093070210927603D1
:101C1000109275033FCBAF3F09F42ACECBCE8F3F56
:101C200009F426CE4FC12F3F09F422CE35CE8F3F87
:101C300009F4BDCC56CD5F3F09F4B9CC4EC13F3F4E
:101C400009F416CE3CCE6F3F09F4B1CCCBCC2F3F7C
:101C500009F4ADCCDACC4F3F09F40ACE43CEB091B3
:101C6000D602B11168CDB7CF7C3409F078CD209180
:101C7000EE02222309F415C1309176033A3008F0C0
:101C80006ECD213009F496C510927A03D093790372
:101C9000F0927803D09377033F5F309376035FCD64
:101CA0003F3F09F484CCC6CC9F3F09F4E1CD30CE50
:101CB0004F3F09F47CCCD4CCEF3F09F4D9CD45CECD
:101CC0009F3F09F474CCE4CCB22DEBEDF2E0C12CD3
:101CD0007CE811917C2C7694C126CB2209F07726E2
:101CE000672C6694812E869487248B2209F06726C0
:101CF000362C3694912E9694969496249B2209F035
:101D00003726D32CD694512F569556955695532554
:101D10005B2309F0D7266D2D6695212F22952F7014
:101D20002D252B2309F06727462F4695312F329515
:101D30003695377036273B2309F04727942F969521
:101D4000812F829586958695837084278B2309F051
:101D50009727C92EC694111F1127111F19271B235E
:101D600009F0C72652E0E33EF50709F0B2CFF09143
:101D7000E302FC1509F405C5E090F602BE0D09F476
:101D8000AFCEB093F602ACCEE22CE4EEF2E090E0FF
:101D9000ACE8B191792E76949B279E2109F07A26A2
:101DA000672C66948B2E869487248E2009F06A26F1
:101DB000362C36949B2E9694969496249E2009F069
:101DC0003A26D32CD6945B2F569556955695532587
:101DD0005E2109F0DA267D2D76956B2F62956F7066
:101DE0006D256E2109F07A27172F16952B2F229536
:101DF0002695277027272E2109F01A27312F36958F
:101E00004B2F429546954695437041274E2109F048
:101E10003A27932F9695BB1FBB27BB1FB327BE2125
:101E200009F09A274E165F0609F0B3CFF091EC0245
:101E3000F91709F491C48091FD02E80E09F44CCE23
:101E4000E092FD0249CE10927A0350E0CBCC109282
:101E50007803D4CCB0916503BB2309F4EACC70912C
:101E600000027F3F09F4E5CC73E070934A03B9C9DF
:101E700070E082CA5FE035CE80915F0390E0D82E9B
:101E8000CC2420915E03C20ED11CD0925103C0928B
:101E90005003309156033F5F30935603EECA5EE025
:101EA00020CE10927A03D093790310927803D093C6
:101EB000770355CC40914F024093CE0059E0D52E88
:101EC000D092500292E090934D0263CD80904F02E9
:101ED0008092CE0039E030934C0242E040934D02B4
:101EE000F3CB6DE06093460324E0209349030E9406
:101EF0007803811158C9D093460335E030934903E4
:101F00000E94780381114FC91092040340E240936C
:101F10004603909249030E947803811144C991E4D9
:101F200090934603309249030E94780381113BC984
:101F300080916C0390916D03A0916E03B0916F033B
:101F40008093000390930103A0930203B0930303D3
:101F500048E0742E709249030E94BD05811123C987
:101F6000ECE2E093460359E0509349030E94780362
:101F7000811119C98090FF0280920503D093490313
:101F80000E94E70381110FC9ACE2A0934603FBE076
:101F9000F09349030E947803811105C9D090FE0295
:101FA000D0920503BCE0B09349030E94E70381117E
:101FB000FAC87CE2709346036DE0609349030E9487
:101FC00078038111F0C820917B0330917C0340910C
:101FD0007D0350917E0320930003309301034093CF
:101FE0000203509303033EE0309349030E94BD0572
:101FF0008111D9C84CE2409346039FE09093490376
:102000000E9478038111CFC8809170039091710371
:10201000A09172030A2E000CBB0B809300039093D7
:102020000103A0930203B093030380E1809349036B
:102030000E94BD058111B7C88CE280934603E1E19F
:10204000E09349030E9478038111ADC88091750324
:1020500090E0B0E0A0E08093000390930103A09390
:102060000203B093030352E1509349030E94BD055C
:10207000811199C8ACE2A0934603F3E1F0934903C0
:102080000E94780381118FC880910402909105020B
:10209000A0910602B0E08093000390930103A09307
:1020A0000203B0930303B4E1B09349030E94BD055A
:1020B000811179C870E27093460365E1609349032A
:1020C0000E94780381116FC822E42093460336E111
:1020D000309349030E947803811165C8E090FD02A6
:1020E000E092050347E1409349030E94E703811111
:1020F0005AC89CE29093460388E1809349030E946A
:102100007803811150C86090FC0260920503E9E1F8
:10211000E09349030E94E703811145C85CE25093B4
:102120004603AAE1A09349030E94780381113BC8AA
:10213000C090FA02D090FB02D092F902C092F8024D
:10214000FBE1F09349030E94FE0481112CC8BCE21C
:10215000B09346037CE1709349030E947803811198
:1021600022C87090F702709205036DE160934903F5
:102170000E94E703811117C82CE2209346033EE139
:10218000309349030E94780381110DC880900202A8
:10219000809205034FE1409349030E94E7038111B8
:1021A00002C890E290934603909349030E947803FB
:1021B00081110C94D30883E480934603E1E2E09319
:1021C00049030E94780381110C94D308D090F60241
:1021D000D092050352E2509349030E94E703811114
:1021E0000C94D308ACE2A0934603F3E2F0934903C6
:1021F0000E94780381110C94D308E090F502E092DC
:102200000503B4E2B09349030E94E70381110C94E3
:10221000D3087CE27093460365E2609349030E9411
:10222000780381110C94D3086090F3027090F4024B
:102230007092F9026092F80226E2209349030E940C
:10224000FE0481110C94D3083CE23093460347E22C
:10225000409349030E94780381110C94D308C090E5
:10226000F202C092050398E2909349030E94E703AB
:1022700081110C94D3088CE280934603E9E2E09349
:1022800049030E94780381110C94D30870900102D5
:10229000709205035AE2509349030E94E7038111AB
:1022A0000C94D308A0E2A0934603FBE2F093490309
:1022B0000E94780381110C94D308B4E4B0934603D0
:1022C0007CE2709349030E94780381110C94D30837
:1022D0008090F102809205036DE2609349030E94B1
:1022E000E70381110C94D3082CE2209346033EE2CD
:1022F000309349030E94780381110C94D308D09045
:102300004B03D09205034FE2409349030E94E70339
:1023100081110C94D3089CE29093460380E3809350
:1023200049030E94780381110C94D30860904C03F8
:1023300070904D037092F9026092F802E1E3E0932D
:1023400049030E94FE0481110C94D3085CE250936F
:102350004603A2E3A09349030E94780381110C94E1
:10236000D308C0905003D0905103D092F902C0928C
:10237000F802F3E3F09349030E94FE0481110C94E8
:10238000D308BCE2B093460374E3709349030E9400
:10239000780381110C94D30860915803709159030C
:1023A0007093F9026093F80225E3209349030E9499
:1023B000FE0481110C94D3083CE23093460346E3BB
:1023C000409349030E94780381110C94D3088091B3
:1023D0004E0390914F039093F9028093F80297E394
:1023E000909349030E94FE0481110C94D308ECE2FF
:1023F000E093460358E3509349030E947803811108
:102400000C94D308E0905703E0920503A9E3A0934E
:1024100049030E94E70381110C94D308FCE2F09376
:102420004603BAE3B09349030E94780381110C94E8
:10243000D30870905403709205037BE370934903B3
:102440000E94E70381110C94D3086CE26093460369
:10245000109349030E94780381110C94D308609073
:102460005203709053037092F9026092F8022DE3C8
:10247000209349030E94FE0481110C94D3083CE28E
:10248000309346034EE3409349030E947803811141
:102490000C94D30880905503809205038FE38093BA
:1024A00049030E94E70381110C94D3089CE29093A6
:1024B0004603E0E4E09349030E94780381110C9401
:1024C000D308D0900002D092050351E45093490301
:1024D0000E94E70381110C94D308A0E2A093460365
:1024E000F2E4F09349030E94780381110C94D3081D
:1024F000B5E4B093460373E4709349030E947803F4
:1025000081110C94D30862B16295617060930503E8
:1025100024E4209349030E94E70381110C94D3081B
:102520003CE23093460345E4409349030E9478031C
:1025300081110C94D308C2B0C5FAEE24E0F8E09201
:10254000050386E4809349030E94E70381110C94FC
:10255000D3089CE290934603E7E4E09349030E948A
:10256000780381110C94D30851E070907A037110B4
:1025700001C050E050930503A8E4A09349030E94D2
:10258000E70381110C94D308FCE2F0934603B9E40D
:10259000B09349030E94780381110C94D30871E031
:1025A00060907803611001C070E0709305036AE4E5
:1025B000609349030E94E70381110C94D3082CE235
:1025C000209346033BE4309349030E947803811132
:1025D0000C94D30880907603809205034CE44093DA
:1025E00049030E94E70381110C94D30880E2809391
:1025F00046039DE4909349030E94780381110C9453
:10260000D308E4E5E09305035EE4509349030E9498
:10261000E70381110C94D308A0E2A0934603FFE4E2
:10262000F09349030E94780381110C94D308D09051
:102630000403D0920503B0E5B09349030E94E70379
:1026400081110C94D3087DE07093460361E560939B
:1026500049030E94780381110C94D308D093460358
:1026600022E5209349030E947803882311F40C94F7
:10267000A8080C94D3085F3F09F4FAC8B9C9EF3F22
:1026800011F40C94D70A4DC8722D0C94BC094091DA
:102690005D0391EE940F9B33D8F420915F0330E0FB
:1026A000F22FEE2770905E03E70DF11DF0935903B2
:1026B000E0935803485240935703509156035230C9
:1026C00039F410920002809155038F5F8093550377
:1026D00080905C038092540380915B0390E0B82F5C
:1026E000AA27D0905A03AD0DB11DB0935303A09308
:1026F00052030C943D0ABF3F09F4BAC872E07093CC
:102700004D0269C9FF3F11F40C94D70AB2E0B093AF
:102710004D020C94840B513009F448C089E746C936
:102720006091EE02609303021AC86090EE0260921C
:10273000730315C83130E1F146E802C980915D03A9
:1027400090E0782E662460915C03660E711C709296
:102750004F0360924E039DCB10920202E091F7026C
:10276000EF5FE093F7028091E50290E0D82ECC2451
:10277000E090E402CE0CD11CD092FB02C092FA028F
:10278000ABC910920102A091F202AF5FA093F202D6
:102790008091DC0290E0F82FEE27B091DB02EB0F86
:1027A000F11DF093F402E093F3029AC98AE7FEC8A0
:1027B00045E8C6C820937A03D09379031092780332
:1027C00069CA1F921FB61F9211242F932BB72F9304
:1027D0003F938F939F93EF93FF933091C600809127
:1027E000D202820D8F77E091D102E817A9F0F09123
:1027F000D202EF2FF0E0EF5AFD4F30838093D202E8
:10280000FF91EF919F918F913F912F912BBF2F912E
:102810001F901FBE1F9018952091FE02220D20933D
:10282000FE023091FE023111EBCF8091FE0282193F
:102830008093FE02E5CF1F921FB61F9211242F93A3
:102840002BB72F933F938F939F93EF93FF933091E9
:10285000CE0080913F02820D8F71E0913E02E81719
:10286000A9F0F0913F02EF2FF0E0E25EFD4F3083E0
:1028700080933F02FF91EF919F918F913F912F9114
:102880002BBF2F911F901FBE1F9018952091F10212
:10289000220D2093F1023091F1023111EBCF8091A2
:1028A000F10282198093F102E5CF01E0189597FBC0
:1028B000072E16F4009406D077FD08D013D007FC3D
:1028C00005D03EF4909581959F4F08957095619540
:1028D0007F4F0895EE0FFF1F881F8BBF0790F69163
:1028E000E02D1994AA1BBB1B51E107C0AA1FBB1FF7
:1028F000A617B70710F0A61BB70B881F991F5A958C
:10290000A9F780959095BC01CD010895F894FFCF6B
:10291000F800FC000001EE00F4000801DE01E40113
:10292000EA01F001D501B901FC0102020802CC0163
:10293000F6010E024C0A5C0A660A6F0A780A820ADD
:102940008C0A950A340B1E0B090BF60AE20ACE0A12
:102950005F0B4C0BBC08D008770F800F8B0F940FC8
:10296000AC0FB60FC00FCA0FD50FDF0FF60F001058
:102970001810221036104010561060106A10751092
:102980007F108A109410A310AD10B810C210CD1093
:10299000D610E110ED10F81004110F111F112A11BB
:1029A000361141114D11581163116F117A118611B1
:1029B0009111A111AC11BC11C711D711E211F21183
:1029C000FD110912141220122A123A124512511244
:1029D0005C12681273127E128B129612A412AF123E
:1029E000BF12CA12DA12E512F112FC120713121307
:1029F0001E1329133313A808A808A808A808A808B4
:102A0000A808A808A808A808A808A808A808A80846
:102A1000A808A808A808A808A808A808A808A80836
:102A2000A808A808A808A808A808A808A808A80826
:102A3000A808A808A808A808A808A808A808A80816
:102A4000A808A808A808A808A808A808A808A80806
:102A5000A808A808A808A808A808A808A808A808F6
:102A6000A808A808A808A808A808A808A808A808E6
:102A7000A808A808A808A808A808A808A808A808D6
:102A8000A808A808A808A808A808A808A808A808C6
:102A9000A808A808A808A808A808A808A808A808B6
:102AA000A808A808A808A808A808A808A808A808A6
:102AB000A808A808A808A808A808A808A808A80896
:102AC000A808A808A808A808A808A808A808A80886
:102AD000A808A808A808A808A808A808A808A80876
:102AE000A808A808A808A808A808A808A808A80866
:102AF000A808A808A808A808A808A808A808A80856
:102B0000A808A808A808A808A808A808A808A80845
:102B1000A808A808A808A808A808A808A808A80835
:102B2000A808A808A808A808A808A808A808A80825
:102B3000A808A808A808A808A808A808A808A80815
:102B4000A808A808A808A808A808A808A808D308DA
:102B5000FC0C060D160D1F0D290D330D3D0D460DF8
:102B6000500D5A0D640DC40E640E8C0C760C630C63
:0A2B7000500C3B0C2F0CC40CA90CF8
:102B7A00FFFFFFFFE0A5013C3C0AFFFFFF303132B7
:0E2B8A0033343536373839616263646566006E
:00000001FF
